:100000000C94AC000C94C9000C94C9000C94C90069
:100010000C94C9000C94C9000C94F9000C94C9000C
:100020000C94C9000C94C9000C94C9000C9448218C
:100030000C94C9000C94CB000C94C9000C94C9001A
:100040000C94C9000C94C9000C94C9000C94C9000C
:100050000C94C9007B0169016B016D016F01710195
:10006000730175017701AB0199019B019D019F010E
:10007000A101A301A501A7016B0B8B0BAB0BCB0B54
:10008000EB0B0B0C2B0C4B0C6B0C8B0CAB0CCB0C39
:10009000EB0C0B0D560D760D960DB60DD60DF60D1F
:1000A000160E360E560E760E960EB60ED60EF60EB0
:1000B000450F650F850FA50FC50FE50F051025101E
:1000C000451065108510A510C510E510391159119E
:1000D00079119911B911D911F9111912391259124D
:1000E00079129912B912D9122D134D136D138D1364
:1000F000AD13CD13ED130B14291447146514831499
:10010000A114BF1411152F154D156B158915A715C1
:10011000C515E31501161F163D165B1679169716C1
:10012000E91607172517431761177F179D17BB1788
:10013000D917F7171518331851186F18C218E01887
:1001400001192319441966198819AA19CB19ED192F
:100150000F1A311A531A751A11241FBECFE5D4E0B5
:10016000DEBFCDBF10E0A0E6B0E0E0E0F3E402C007
:1001700005900D92A636B107D9F721E0A6E6B0E0CA
:1001800001C01D92AC38B207E1F70E944F010C94F8
:100190007E210C9400001F920F920FB60F92112433
:1001A0008F939F93EF93FF935D9B1AC0E09169003B
:1001B00080916800E81750F4F0E0E45FFE4F808122
:1001C0008CB9809169008F5F80936900909169007C
:1001D00080916800981304C0109269001092680022
:1001E000FF91EF919F918F910F900FBE0F901F90F5
:1001F00018951F920F920FB60F9211248F93809132
:1002000066008F5F809366008F910F900FBE0F90F6
:100210001F90189590BD89B980E28BB988E48AB99E
:1002200086E880BD08958AB180698AB90895909161
:100230006800E92FF0E0E45FFE4F80839F5F983015
:1002400019F09093680002C0109268005D9B0CC08A
:10025000E0916900F0E0E45FFE4F80818CB980910D
:1002600069008F5F809369000895909167009930CD
:1002700040F4E92FF0E0EC59FE4F80839F5F9093AC
:10028000670008951DBC1CBC8EB588608EBD86E9D4
:1002900098E99BBD8ABD89B7806189BF089580E4D4
:1002A00090E00E940A010E94130187B38F6287BB0E
:1002B00088B38F6288BB0E9442017894FFCF90E0A0
:1002C000FC01F097E930F105A0F4E65DFF4F0C94D6
:1002D000782181E0089582E0089583E0089584E024
:1002E000089585E0089586E0089587E0089588E000
:1002F000089589E0089580E00895E09167008E2FC9
:1003000090E0883091054CF4FC01EC59FE4F8CE6EE
:1003100091E01192E817F907E1F71092670008954C
:1003200090E089309105A8F4FC01ED5CFF4F0C943E
:10033000782181E3089582E3089583E3089584E3B7
:10034000089585E3089586E3089587E3089588E393
:10035000089589E3089580E30895CF93DF93D82F1C
:10036000C62F8DE40E9417018DE40E94170180E2E0
:100370000E9417018D2F0E9417018C2F0E9490015F
:100380000E9417018DE00E941701DF91CF9108951F
:100390008DE40E94170180E50E9417018DE00E9404
:1003A00017010895C19887E50E9417018EE40E9405
:1003B00017018DE00E9417010895C2988CE40E94F5
:1003C000170183E50E9417018DE00E94170108952F
:1003D000C39884E50E94170185E40E9417018DE00F
:1003E0000E941701089589E40E9417018CE40E947D
:1003F00017018DE00E941701089589E40E941701FA
:1004000084E50E9417018DE00E9417010895815430
:10041000880F653010F4615002C08F5F6550F9019C
:10042000E80FF11D2081423499F484E0860F41E009
:1004300050E0DA0102C0AA0FBB1F8A95E2F7CD0196
:10044000822B02C0440F551F6A95E2F7842B12C01D
:1004500081E090E0AC01062E02C0440F551F0A94C3
:10046000E2F76C5F02C0880F991F6A95E2F740952A
:100470004223842B808308958154880F653010F4C3
:10048000615002C08F5F6550FA01E80FF11D808155
:1004900090E024E0260FAC0102C0559547952A95BF
:1004A000E2F740FF09C002C0959587956A95E2F78B
:1004B00080FD04C087E5089585E4089582E40895E9
:1004C0008154E82FF0E0E458FF4F208130E0615084
:1004D00002C0359527956A95E2F781E020FF80E01C
:1004E00008958154E82FF0E0615081E090E002C06F
:1004F000880F991F6A95E2F7EC55FF4F9081892B81
:10050000808308958154E82FF0E0615081E090E00D
:1005100002C0880F991F6A95E2F7E458FF4F908157
:10052000892B808308957F928F929F92AF92BF9282
:10053000CF92DF92EF92FF920F931F93CF93DF93AF
:10054000C82FD62FC42ED22E82E44813C4C101E096
:10055000060F093040F027C0823409F478C31F5FCA
:10056000193011F420C0102F4CEB50E0612F8C2F6C
:100570000E943C02853481F716C01FEF1D0F4CEB23
:1005800050E0612F8C2F0E943C02853461F492E48C
:10059000D91205C0612F8C2F0E94710204C0612FF7
:1005A0008C2F0E948202CC24CA94CD0E81E08C153F
:1005B00040F025C0823409F452C31150113011F4B7
:1005C0001EC01C2D4CEB50E0612F8C2F0E943C0272
:1005D000853481F714C04CEB50E0602F8C2F0E94C3
:1005E0003C02853461F492E4D91205C0602F8C2F4F
:1005F0000E94710204C0602F8C2F0E948202BB24D3
:10060000BA94BC0E80E48B1540F038C3823409F4F0
:100610002DC31150103411F420C01B2D4CEB50E0B1
:100620006D2F812F0E943C02853481F716C011E0A6
:100630001C0F4CEB50E06D2F812F0E943C02853443
:1006400061F492E4D91205C06D2F812F0E947102CE
:1006500004C06D2F812F0E94820211E01C0F1934FB
:1006600048F021C0823409F40FC3F39489E4F812EE
:1006700002C019C0F12E4CEB50E06D2F8F2D0E945F
:100680003C02853479F70FC04CEB50E06D2F8B2D79
:100690000E943C02853439F492E4D9120BC06D2FCC
:1006A0008B2D0E94710280E48B1508F043C0093045
:1006B00098F040C06D2F8B2D0E948202F4CFA92CA0
:1006C000823409F0A82CFA94E39490E4F916A1F08E
:1006D00089E0E81207C010C0E02EFB2CA12C992461
:1006E0009394812C4CEB50E06E2D8F2D0E943C0298
:1006F000853411F0AA2019F391E0A9121BC08C2FA8
:1007000090E0019689349105ACF48D2F90E001972B
:10071000181619067CF44CEB50E06C2D812F0E94CA
:100720003C02853439F482E4D8120AC06C2D812F42
:100730000E947102193408F0AFC2C11010C080C00D
:100740006C2D812F0E948202F5CFF394EA9499E4F4
:10075000F91681F0EE2071F0823419F40BC0EC2C04
:10076000F12E4CEB50E06E2D8F2D0E943C02853413
:1007700061F721C0823409F094C28C2F90E0019778
:10078000813491050CF48DC28D2F90E0019609976C
:100790000CF087C24CEB50E0602F8B2D0E943C0286
:1007A000853409F07EC282E4D8120CC0602F8B2DF4
:1007B0000E94710276C290E49B1508F041C0C110FE
:1007C00012C03EC0602F8B2D0E9482026AC2A92CEB
:1007D000823409F0A82CFA94EA9480E4F81699F08F
:1007E000E11007C010C0EC2CFB2CA12C9924939491
:1007F000812C4CEB50E06E2D8F2D0E943C028534F5
:1008000011F0AA2021F391E0A9121AC08C2F90E0D8
:10081000019689349105A4F48D2F90E001960997F3
:100820007CF44CEB50E0602F812F0E943C02853419
:1008300039F482E4D8120AC0602F812F0E9471021D
:10084000193408F061C2093088F05EC2602F812F30
:100850000E948202F5CFFE2C823409F0FA2C1F5F31
:100860000F5F193489F0093029F40EC0F12CEE2401
:10087000E394A12C4CEB50E0602F812F0E943C02AE
:10088000853411F0FF2039F391E0F9123DC28C2F2D
:1008900090E00197813491050CF436C28D2F90E0E1
:1008A0000197181619060CF02FC24CEB50E06C2D76
:1008B0008B2D0E943C02853409F026C282E4D812B6
:1008C00005C06C2D8B2D0E9471021EC26C2D8B2DCC
:1008D0000E94820219C201E0060F093040F026C0D2
:1008E000873509F4E3C11F5F193011F41FC0102FC1
:1008F0004CEB50E0612F8C2F0E943C02853481F735
:1009000015C01FEF1D0F4CEB50E0612F8C2F0E9484
:100910003C02853459F4CD1005C0612F8C2F0E9404
:10092000710204C0612F8C2F0E948202BB24BA94F2
:10093000BD0E91E09B1540F024C0873509F4BEC17F
:100940001150113011F41DC01B2D4CEB50E0612FE4
:100950008C2F0E943C02853481F713C04CEB50E091
:10096000602F8C2F0E943C02853459F4CD1005C0B5
:10097000602F8C2F0E94710204C0602F8C2F0E9468
:100980008202AA24AA94AC0E80E48A1540F0A5C184
:10099000873509F49AC11150103411F41FC01A2D73
:1009A0004CEB50E06D2F812F0E943C02853481F783
:1009B00015C011E01C0F4CEB50E06D2F812F0E94F1
:1009C0003C02853459F4CD1005C06D2F812F0E9453
:1009D000710204C06D2F812F0E94820211E01C0F52
:1009E000193448F020C0873509F47DC1F39499E4A7
:1009F000F91202C018C0F12E4CEB50E06D2F8F2D74
:100A00000E943C02853479F70EC04CEB50E06D2F0C
:100A10008A2D0E943C02853431F4CD100BC06D2F1D
:100A20008A2D0E94710280E48A1508F042C00930C4
:100A300098F03FC06D2F8A2D0E948202F4CF982C2F
:100A4000873509F0972CFA94E39490E4F916A1F015
:100A500089E0E81207C010C0E02EFA2C912C8824FF
:100A60008394712C4CEB50E06E2D8F2D0E943C0234
:100A7000853411F0992019F391E099121AC08C2F46
:100A800090E0019689349105A4F48D2F90E00197B0
:100A90001816190674F44CEB50E06B2D812F0E9450
:100AA0003C02853431F4CD100AC06B2D812F0E9499
:100AB0007102193408F024C1B11010C07EC06B2D32
:100AC000812F0E948202F5CFF394EA9499E4F916FB
:100AD00081F0EE2071F0873519F40BC0EB2CF12E6C
:100AE0004CEB50E06E2D8F2D0E943C02853461F757
:100AF00020C0873509F0FFC08C2F90E0019781342A
:100B000091050CF4F8C08D2F90E0019609970CF038
:100B1000F2C04CEB50E0602F8A2D0E943C028534DD
:100B200009F0E9C0CD100CC0602F8A2D0E9471021F
:100B3000E2C080E48A1508F040C0B11012C03DC088
:100B4000602F8A2D0E948202D6C0982C873509F02A
:100B5000972CFA94EA9490E4F91699F0E11007C002
:100B600010C0EB2CFA2C912C88248394712C4CEB24
:100B700050E06E2D8F2D0E943C02853411F099209B
:100B800021F381E0981219C08C2F90E001968934EE
:100B900091059CF48D2F90E00196099774F44CEB2D
:100BA00050E0602F812F0E943C02853431F4CD103B
:100BB0000AC0602F812F0E947102193408F0A4C06E
:100BC000093088F0A1C0602F812F0E948202F5CFEA
:100BD000FE2C873509F0F92C1F5F0F5F193489F05F
:100BE000093029F40EC0F12CEE24E394912C4CEB47
:100BF00050E0602F812F0E943C02853411F0FF20CD
:100C000039F391E0F91280C08C2F90E00197813484
:100C100091050CF479C08D2F90E0019718161906F4
:100C20000CF072C04CEB50E06B2D8A2D0E943C0200
:100C3000853409F069C0CD1005C06B2D8A2D0E9446
:100C4000710262C06B2D8A2D0E9482025DC08D2FC1
:100C500090E00197181619060CF48FCCA4CC8D2FB8
:100C600090E0019609970CF4B6CCC9CC8C2F90E09B
:100C70000196893491050CF4DACCEFCC11E01C0F0D
:100C8000193408F4F7CC56CD8C2F90E001978134BD
:100C900091050CF0F9CC07CD80E48B1508F48FCDCD
:100CA00033C090E49B1508F49ECDCACD8D2F90E003
:100CB0000197181619060CF424CE38CE8D2F90E02B
:100CC000019609970CF44ACE5CCE8C2F90E00196E9
:100CD000893491050CF46DCE81CE11E01C0F1934CE
:100CE00008F489CEE6CE8C2F90E0019781349105EF
:100CF0000CF08BCE98CE80E48A1508F432CF5DCF0D
:100D000090E49A1508F419CFDF91CF911F910F91BC
:100D1000FF90EF90DF90CF90BF90AF909F908F901B
:100D20007F9008955F926F927F928F929F92AF9281
:100D3000BF92CF92DF92EF92FF920F931F93CF93C8
:100D4000DF93082F0F2EFCEBEF2EF0E0FF2EF02D9F
:100D500010E0552453940F2EF5E06F2EF02D68947B
:100D6000772471F80F2EF6E08F2EF02D0F2EF3E082
:100D70009F2EF02D0F2EF7E0AF2EF02D6894BB24A0
:100D8000B2F86894CC24C3F8C12FC695CF5BF701A5
:100D9000D1917F01D4FF24C010FF02C0D62C01C026
:100DA000D52C4CEB50E06D2D8C2F0E943C028735EA
:100DB00061F480916A008F5F80936A00202F42E483
:100DC0006D2D8C2F0E9493020BC080916B008F5F62
:100DD00080936B00202F47E56D2D8C2F0E9493028E
:100DE000D5FF24C010FF02C0D82C01C0D72C4CEB7B
:100DF00050E06D2D8C2F0E943C02873561F480916C
:100E00006A008F5F80936A00202F42E46D2D8C2F43
:100E10000E9493020BC080916B008F5F80936B00E8
:100E2000202F47E56D2D8C2F0E949302D6FF24C002
:100E300010FF02C0DA2C01C0D92C4CEB50E06D2D14
:100E40008C2F0E943C02873561F480916A008F5F8D
:100E500080936A00202F42E46D2D8C2F0E94930214
:100E60000BC080916B008F5F80936B00202F47E554
:100E70006D2D8C2F0E949302DD2324F510FF02C0FC
:100E8000DC2D01C0DB2D4CEB50E06D2F8C2F0E9430
:100E90003C02873561F480916A008F5F80936A001D
:100EA000202F42E46D2F8C2F0E9493020BC0809163
:100EB0006B008F5F80936B00202F47E56D2F8C2F89
:100EC0000E9493021F5F103109F05ECFDF91CF9136
:100ED0001F910F91FF90EF90DF90CF90BF90AF9058
:100EE0009F908F907F906F905F9008957F928F92E8
:100EF0009F92AF92BF92CF92DF92EF92FF920F93A9
:100F00001F93CF93DF93F82EE62EC42FD22ECC243E
:100F1000C394C60E88E08C1598F431C08D2F90E0F4
:100F2000019609974CF4A80161E06D0F8F2D0E9486
:100F30003C02BA2C8D11B92CDF5FD93031F41FC0BF
:100F4000DC2DB12CAA24A394912CA8016D2F8F2DF8
:100F50000E943C028C1302C0BB2001F381E0B81256
:100F60000EC0D93060F4CD1650F4BC2C98014D2D34
:100F70006B2D8F2D0E940702B394BD16B8F3BB24CE
:100F8000BA94BE0C99F435C08D2F90E001971816D5
:100F900019064CF4A8016FEF6D0F8F2D0E943C02D3
:100FA000A92CD812A82CD15031F40EC0DB2DA12CC5
:100FB00099249394812CA8016D2F8F2D0E943C02BF
:100FC000C81302C0AA2001F381E0A81212C08E2D1E
:100FD00090E001971816190664F4DB1550F4AB2C59
:100FE00098014D2D6A2D8F2D0E940702AA94DA15C3
:100FF000B8F3AA24AA94AF0C80E48A15A0F0A7C184
:101000008D2F90E00197813491054CF0A8016E2D51
:101010008FEF8D0F0E943C02982CD812972CD15044
:10102000D03431F40EC0DA2D912C88248394712CA5
:10103000A8016E2D8D2F0E943C02C81302C099207A
:10104000F9F281E098120EC0D13460F0DA1550F454
:101050009A2C98014D2D6E2D892D0E9407029A948D
:10106000D915B8F3F39488E48F15A0F428C08D2F18
:1010700090E00196893491054CF4A8016E2D81E031
:101080008D0F0E943C02982CD812972CDF5FD93428
:1010900031F40EC0DF2D912C88248394712CA8018B
:1010A0006E2D8D2F0E943C02C81302C09920F9F2C8
:1010B00081E0981204C0D93410F4FD1640F080E4A9
:1010C0008A1508F040C088E08C1548F53CC09F2C7C
:1010D00098014D2D6E2D892D0E94070293949D1627
:1010E000B8F3EDCF8D2F90E00197813491057CF01E
:1010F0008E2D90E00196099754F4A80161E06E0DE1
:101100008FEF8D0F0E943C02D81201C0982CD15055
:10111000E394D034A1F089E0E81206C003C1EC2CBE
:10112000DA2D912C88248394A8016E2D8D2F0E9496
:101130003C02C81304C081E09812D4CF0EC181E0F4
:10114000981609F40AC188E48F1508F413C1B11088
:101150002DC08CC0DA15B8F7EA2C9C2C98014D2DC7
:10116000692D8E2D0E9407029394EA94DE15B0F348
:10117000EACF8D2F90E001968934910584F48E2D6D
:1011800090E001971816190654F4A8016FEF6E0D40
:1011900081E08D0F0E943C02D81201C0982CDF5FC5
:1011A000EA94D93499F0E11006C0C0C0EB2CDF2DD1
:1011B000912C88248394A8016E2D8D2F0E943C02CF
:1011C000C81304C081E09812D4CFCBC081E098123C
:1011D000CCC0C7C080E48A1508F048C0B11031C047
:1011E00045C0FD1608F0A6C0EF2C9B2C98014D2D94
:1011F000692D8E2D0E9407029A94E394ED1608F053
:1012000099C09110F3CF96C08D2F90E00197813453
:10121000910584F08E2D90E001971816190654F46C
:10122000A8016FEF6E0D8FEF8D0F0E943C02D81258
:1012300001C0982CD150EA94D13498F0E11006C046
:101240007EC0EB2CDA2D912C88248394A8016E2D7E
:101250008D2F0E943C02C81304C081E09812D4CFA5
:1012600003C081E0981202C0D13440F488E48F15A5
:1012700008F488C088E08C1580F584C0BB20B1F3E9
:10128000DA15A0F798014D2D6B2D8A2D0E940702CB
:10129000BA94AA94DA1550F7B110F4CFE7CF8D2F96
:1012A00090E00196893491057CF48E2D90E00196B2
:1012B000099754F4A80161E06E0D81E08D0F0E9442
:1012C0003C02D81201C0BA2CDF5FE394D93409F490
:1012D00059C089E0E81206C036C0EC2CDF2DB12CD5
:1012E000AA24A394A8016E2D8D2F0E943C02C8133E
:1012F00004C081E0B812D3CF42C081E0B81242C02E
:101300003EC0FD1608F03EC098014D2D6C2D8F2D6E
:101310000E940702C394F394FD16A0F589E0C81259
:10132000F3CF30C081E098120ECF14CF81E0981235
:101330001CC057CF80E48A1508F483CF97CF81E093
:10134000981294CF9BCF81E0B8121CC0DACFF394EF
:1013500088E48F1508F09ECEF6CED13408F4F3CE93
:10136000F9CED93408F036CF3CCF80E48A1508F4A2
:1013700068CF7CCF80E48A1508F430CF03C0D9341D
:1013800008F4BFCFDF91CF911F910F91FF90EF90A5
:10139000DF90CF90BF90AF909F908F907F900895F7
:1013A00010926B0010926A00E4EAF0E0ACE7B0E063
:1013B0008CEA90E011921D92E817F907D9F7089589
:1013C000ECEBF0E08CEC90E01192E817F907E1F714
:1013D0000E94D0092CEB30E047E564E084E40E94F1
:1013E00007022CEB30E042E465E084E40E9407024F
:1013F0002CEB30E042E464E085E40E9407022CEB31
:1014000030E047E565E085E40E9407020895E4EADC
:10141000F0E02CEA30E0919181E090FF80E091FDD6
:101420008F5F92FD8F5F93FD8F5F94FD8F5F95FDC2
:101430008F5F96FD8F5F99230CF48F5FE217F307A0
:1014400011F0882341F30895ECE7F0E024E830E060
:10145000919181E090FF80E091FD8F5F92FD8F5F21
:1014600093FD8F5F94FD8F5F95FD8F5F96FD8F5F7E
:1014700099230CF48F5FE217F30711F0882341F3EF
:101480000895823469F4461718F40E94D201089531
:10149000641718F40E94DD0108950E94E801089580
:1014A000641718F40E94D2010895461718F40E9498
:1014B000DD0108950E94E80108952F923F924F9216
:1014C0005F926F927F928F929F92AF92BF92CF92D4
:1014D000DF92EF92FF920F931F93CF93DF93CDB7DD
:1014E000DEB72A970FB6F894DEBF0FBECDBF8CEBE8
:1014F00090E09A8389830F2EFCED4F2EF0E05F2E53
:10150000F02DACE6B1E0BC83AB830F2EFCE66F2E72
:10151000F0E07F2EF02D0F2EF4E48F2EF1E09F2EC1
:10152000F02D0F2EF4E5CF2EF1E0DF2EF02D0F2E53
:10153000F4E8AF2EF0E0BF2EF02D0F2EFCEEEF2ED4
:10154000F0E0FF2EF02D04E910E064E371E04CE7D9
:1015500051E024E231E08CEA90E0ECECF0E0F88736
:10156000EF83A4E1B1E0ECEFF0E0212C9E838D83CA
:10157000922DBA87A987A981BA813D90BA83A983A0
:10158000D2013D922D01AB81BC813D92BC83AB83E6
:10159000D3013D923D01D4013D924D01D6013D92D2
:1015A0006D01D5013D925D01D7013D927D01D801CC
:1015B0003D928D01DB013D92BD01DA013D92AD010D
:1015C000D9013D929D01AD81BE813D92BE83AD8327
:1015D000AF81B8853D92B887AF83A985BA853D9222
:1015E000BA87A98731929F5F903129F62A960FB664
:1015F000F894DEBF0FBECDBFDF91CF911F910F9149
:10160000FF90EF90DF90CF90BF90AF909F908F9022
:101610007F906F905F904F903F902F900895FB01C7
:101620009B01205F3F4F40E0919194FF09C090FFE4
:1016300004C0823429F44F5F03C0873509F44F5F3B
:1016400095FF09C091FF04C0823429F44F5F03C0A5
:10165000873509F44F5F96FF09C092FF04C08234BA
:1016600029F44F5F03C0873509F44F5F99234CF489
:1016700093FF04C0823429F44F5F03C0873509F417
:101680004F5FE217F30781F6842F0895AF92BF9260
:10169000DF92EF92FF920F931F93CF93DF93F82E79
:1016A0000F2EF4EAAF2EF0E0BF2EF02DD1E4D12CB6
:1016B000E12CF501C1915F01C0FFE9C1E3948E2DDA
:1016C00090E0FC013197EE30F10508F0C4C1E45C14
:1016D000FF4F0C9478212CED30E04F2D61E08D2FE1
:1016E0000E9407020CED10E02F2D4091630061E095
:1016F0008D2F0E947607B8018F2D0E940F0BD816F0
:1017000010F00C94091BD093610091E0909360005D
:10171000D82E0C94091B2CE631E04F2D61E08D2F63
:101720000E9407020CE611E02F2D4091630061E05A
:101730008D2F0E947607B8018F2D0E940F0BD816AF
:1017400010F00C940D1BD093610091E09093600019
:10175000D82E0C940D1B2CE630E04F2D61E08D2F20
:101760000E9407020CE610E02F2D4091630061E01B
:101770008D2F0E947607B8018F2D0E940F0BD8166F
:1017800010F00C94111BD093610091E090936000D5
:10179000D82E0C94111B24E431E04F2D61E08D2FE5
:1017A0000E94070204E411E02F2D4091630061E0E4
:1017B0008D2F0E947607B8018F2D0E940F0BD8162F
:1017C00010F00C94151BD093610091E09093600091
:1017D000D82E0C94151B24E531E04F2D61E08D2FA0
:1017E0000E94070204E511E02F2D4091630061E0A3
:1017F0008D2F0E947607B8018F2D0E940F0BD816EF
:1018000010F00C94191BD093610091E0909360004C
:10181000D82E0C94191B24E830E04F2D61E08D2F59
:101820000E94070204E810E02F2D4091630061E060
:101830008D2F0E947607B8018F2D0E940F0BD816AE
:1018400010F00C941D1BD093610091E09093600008
:10185000D82E0C941D1B2CEE30E04F2D61E08D2F07
:101860000E9407020CEE10E02F2D4091630061E012
:101870008D2F0E947607B8018F2D0E940F0BD8166E
:1018800010F00C94211BD093610091E090936000C4
:10189000D82E0C94211B24E930E04F2D61E08D2FD0
:1018A0000E94070204E910E02F2D4091630061E0DF
:1018B0008D2F0E947607B8018F2D0E940F0BD8162E
:1018C00010F00C94251BD093610091E09093600080
:1018D000D82E0C94251B24E331E04F2D61E08D2F91
:1018E0000E94070204E311E02F2D4091630061E0A4
:1018F0008D2F0E947607B8018F2D0E940F0BD816EE
:1019000010F00C94291BD093610091E0909360003B
:10191000D82E0C94291B2CE731E04F2D61E08D2F40
:101920000E9407020CE711E02F2D4091630061E057
:101930008D2F0E947607B8018F2D0E940F0BD816AD
:1019400010F00C942D1BD093610091E090936000F7
:10195000D82E0C942D1B24E231E04F2D61E08D2F09
:101960000E94070204E211E02F2D4091630061E024
:101970008D2F0E947607B8018F2D0E940F0BD8166D
:1019800010F00C94311BD093610091E090936000B3
:10199000D82E0C94311B2CEA30E04F2D61E08D2FB6
:1019A0000E9407020CEA10E02F2D4091630061E0D5
:1019B0008D2F0E947607B8018F2D0E940F0BD8162D
:1019C00010F00C94351BD093610091E0909360006F
:1019D000D82E0C94351B2CEC30E04F2D61E08D2F70
:1019E0000E9407020CEC10E02F2D4091630061E093
:1019F0008D2F0E947607B8018F2D0E940F0BD816ED
:101A000010F00C94011BD093610091E09093600062
:101A1000D82E0C94011B24E131E04F2D61E08D2F75
:101A20000E94070204E111E02F2D4091630061E064
:101A30008D2F0E947607B8018F2D0E940F0BD816AC
:101A400010F00C94051BD093610091E0909360001E
:101A5000D82E0C94051B24E331E04F2D61E08D2F2F
:101A60000E94070204E311E02F2D4091630061E022
:101A70008D2F0E947607B8018F2D0E940F0BD8166C
:101A800030F4D093610091E090936000D82EC1FFB4
:101A9000EDC1E3948E2D90E0FC013197EE30F1051D
:101AA00008F0C8C1E65BFF4F0C9478212CED30E0C4
:101AB0004F2D62E08D2F0E9407020CED10E02F2DBC
:101AC0004091630062E08D2F0E947607B8018F2D50
:101AD0000E940F0BD81610F00C94451BD093610098
:101AE00092E090936000D82E0C94451B2CE631E0D8
:101AF0004F2D62E08D2F0E9407020CE611E02F2D82
:101B00004091630062E08D2F0E947607B8018F2D0F
:101B10000E940F0BD81610F00C94491BD093610053
:101B200092E090936000D82E0C94491B2CE630E094
:101B30004F2D62E08D2F0E9407020CE610E02F2D42
:101B40004091630062E08D2F0E947607B8018F2DCF
:101B50000E940F0BD81610F00C944D1BD09361000F
:101B600092E090936000D82E0C944D1B24E431E059
:101B70004F2D62E08D2F0E94070204E411E02F2D0B
:101B80004091630062E08D2F0E947607B8018F2D8F
:101B90000E940F0BD81610F00C94511BD0936100CB
:101BA00092E090936000D82E0C94511B24E531E014
:101BB0004F2D62E08D2F0E94070204E511E02F2DCA
:101BC0004091630062E08D2F0E947607B8018F2D4F
:101BD0000E940F0BD81610F00C94551BD093610087
:101BE00092E090936000D82E0C94551B24E830E0CE
:101BF0004F2D62E08D2F0E94070204E810E02F2D88
:101C00004091630062E08D2F0E947607B8018F2D0E
:101C10000E940F0BD81610F00C94591BD093610042
:101C200092E090936000D82E0C94591B2CEE30E07B
:101C30004F2D62E08D2F0E9407020CEE10E02F2D39
:101C40004091630062E08D2F0E947607B8018F2DCE
:101C50000E940F0BD81610F00C945D1BD0936100FE
:101C600092E090936000D82E0C945D1B24E930E044
:101C70004F2D62E08D2F0E94070204E910E02F2D06
:101C80004091630062E08D2F0E947607B8018F2D8E
:101C90000E940F0BD81610F00C94611BD0936100BA
:101CA00092E090936000D82E0C94611B24E331E005
:101CB0004F2D62E08D2F0E94070204E311E02F2DCB
:101CC0004091630062E08D2F0E947607B8018F2D4E
:101CD0000E940F0BD81610F00C94651BD093610076
:101CE00092E090936000D82E0C94651B2CE731E0B5
:101CF0004F2D62E08D2F0E9407020CE711E02F2D7F
:101D00004091630062E08D2F0E947607B8018F2D0D
:101D10000E940F0BD81610F00C94691BD093610031
:101D200092E090936000D82E0C94691B24E231E07D
:101D30004F2D62E08D2F0E94070204E211E02F2D4B
:101D40004091630062E08D2F0E947607B8018F2DCD
:101D50000E940F0BD81610F00C946D1BD0936100ED
:101D600092E090936000D82E0C946D1B2CEA30E02A
:101D70004F2D62E08D2F0E9407020CEA10E02F2DFC
:101D80004091630062E08D2F0E947607B8018F2D8D
:101D90000E940F0BD81610F00C94391BD0936100E1
:101DA00092E090936000D82E0C94391B2CEC30E01C
:101DB0004F2D62E08D2F0E9407020CEC10E02F2DBA
:101DC0004091630062E08D2F0E947607B8018F2D4D
:101DD0000E940F0BD81610F00C943D1BD09361009D
:101DE00092E090936000D82E0C943D1B24E131E0EA
:101DF0004F2D62E08D2F0E94070204E111E02F2D8C
:101E00004091630062E08D2F0E947607B8018F2D0C
:101E10000E940F0BD81610F00C94411BD093610058
:101E200092E090936000D82E0C94411B0F2EFFE09F
:101E3000EF2EF02D24E331E04F2D62E08D2F0E9434
:101E4000070204E311E02F2D4091630062E08D2F23
:101E50000E947607B8018F2D0E940F0BD81630F420
:101E6000D093610092E090936000D82EC2FFF2C13F
:101E7000E3948E2D90E0FC013197EE30F10508F0EF
:101E8000CDC1E85AFF4F0C9478212CED30E04F2D56
:101E900063E08D2F0E9407020CED10E02F2D409182
:101EA000630063E08D2F0E947607B8018F2D0E949A
:101EB0000F0BD81610F00C947D1BD093610093E0AB
:101EC00090936000D82E0C947D1B2CE631E04F2DB2
:101ED00063E08D2F0E9407020CE611E02F2D409148
:101EE000630063E08D2F0E947607B8018F2D0E945A
:101EF0000F0BD81610F00C94811BD093610093E067
:101F000090936000D82E0C94811B2CE630E04F2D6E
:101F100063E08D2F0E9407020CE610E02F2D409108
:101F2000630063E08D2F0E947607B8018F2D0E9419
:101F30000F0BD81610F00C94851BD093610093E022
:101F400090936000D82E0C94851B24E431E04F2D33
:101F500063E08D2F0E94070204E411E02F2D4091D1
:101F6000630063E08D2F0E947607B8018F2D0E94D9
:101F70000F0BD81610F00C94891BD093610093E0DE
:101F800090936000D82E0C94891B24E531E04F2DEE
:101F900063E08D2F0E94070204E511E02F2D409190
:101FA000630063E08D2F0E947607B8018F2D0E9499
:101FB0000F0BD81610F00C948D1BD093610093E09A
:101FC00090936000D82E0C948D1B24E830E04F2DA8
:101FD00063E08D2F0E94070204E810E02F2D40914E
:101FE000630063E08D2F0E947607B8018F2D0E9459
:101FF0000F0BD81610F00C94911BD093610093E056
:1020000090936000D82E0C94911B2CEE30E04F2D55
:1020100063E08D2F0E9407020CEE10E02F2D4091FF
:10202000630063E08D2F0E947607B8018F2D0E9418
:102030000F0BD81610F00C94951BD093610093E011
:1020400090936000D82E0C94951B24E930E04F2D1E
:1020500063E08D2F0E94070204E910E02F2D4091CC
:10206000630063E08D2F0E947607B8018F2D0E94D8
:102070000F0BD81610F00C94991BD093610093E0CD
:1020800090936000D82E0C94991B24E331E04F2DDF
:1020900063E08D2F0E94070204E311E02F2D409191
:1020A000630063E08D2F0E947607B8018F2D0E9498
:1020B0000F0BD81610F00C949D1BD093610093E089
:1020C00090936000D82E0C949D1B2CE731E04F2D8F
:1020D00063E08D2F0E9407020CE711E02F2D409145
:1020E000630063E08D2F0E947607B8018F2D0E9458
:1020F0000F0BD81610F00C94A11BD093610093E045
:1021000090936000D82E0C94A11B24E231E04F2D57
:1021100063E08D2F0E94070204E211E02F2D409111
:10212000630063E08D2F0E947607B8018F2D0E9417
:102130000F0BD81610F00C94A51BD093610093E000
:1021400090936000D82E0C94A51B2CEA30E04F2D04
:1021500063E08D2F0E9407020CEA10E02F2D4091C2
:10216000630063E08D2F0E947607B8018F2D0E94D7
:102170000F0BD81610F00C94711BD093610093E0F4
:1021800090936000D82E0C94711B2CEC30E04F2DF6
:1021900063E08D2F0E9407020CEC10E02F2D409180
:1021A000630063E08D2F0E947607B8018F2D0E9497
:1021B0000F0BD81610F00C94751BD093610093E0B0
:1021C00090936000D82E0C94751B24E131E04F2DC4
:1021D00063E08D2F0E94070204E111E02F2D409152
:1021E000630063E08D2F0E947607B8018F2D0E9457
:1021F0000F0BD81610F00C94791BD093610093E06C
:1022000090936000D82E0C94791B0F2EFFE0EF2ED8
:10221000F02D04C00F2EFFE0EF2EF02D24E331E06F
:102220004F2D63E08D2F0E94070204E311E02F2D54
:102230004091630063E08D2F0E947607B8018F2DD7
:102240000E940F0BD81630F4D093610093E0909366
:102250006000D82EC3FFF2C1E3948E2D90E0FC0104
:102260003197EE30F10508F0CDC1EA59FF4F0C94DB
:1022700078212CED30E04F2D64E08D2F0E94070275
:102280000CED10E02F2D4091630064E08D2F0E9433
:102290007607B8018F2D0E940F0BD81610F00C9402
:1022A000B51BD093610094E090936000D82E0C94FD
:1022B000B51B2CE631E04F2D64E08D2F0E94070204
:1022C0000CE611E02F2D4091630064E08D2F0E94F9
:1022D0007607B8018F2D0E940F0BD81610F00C94C2
:1022E000B91BD093610094E090936000D82E0C94B9
:1022F000B91B2CE630E04F2D64E08D2F0E940702C1
:102300000CE610E02F2D4091630064E08D2F0E94B9
:102310007607B8018F2D0E940F0BD81610F00C9481
:10232000BD1BD093610094E090936000D82E0C9474
:10233000BD1B24E431E04F2D64E08D2F0E94070285
:1023400004E411E02F2D4091630064E08D2F0E9482
:102350007607B8018F2D0E940F0BD81610F00C9441
:10236000C11BD093610094E090936000D82E0C9430
:10237000C11B24E531E04F2D64E08D2F0E94070240
:1023800004E511E02F2D4091630064E08D2F0E9441
:102390007607B8018F2D0E940F0BD81610F00C9401
:1023A000C51BD093610094E090936000D82E0C94EC
:1023B000C51B24E830E04F2D64E08D2F0E940702FA
:1023C00004E810E02F2D4091630064E08D2F0E94FF
:1023D0007607B8018F2D0E940F0BD81610F00C94C1
:1023E000C81BD093610094E090936000D82E0C94A9
:1023F000C81B2CEE30E04F2D64E08D2F0E940702A9
:102400000CEE10E02F2D4091630064E08D2F0E94B0
:102410007607B8018F2D0E940F0BD81610F00C9480
:10242000CB1BD093610094E090936000D82E0C9465
:10243000CB1B24E930E04F2D64E08D2F0E94070272
:1024400004E910E02F2D4091630064E08D2F0E947D
:102450007607B8018F2D0E940F0BD81610F00C9440
:10246000CE1BD093610094E090936000D82E0C9422
:10247000CE1B24E331E04F2D64E08D2F0E94070234
:1024800004E311E02F2D4091630064E08D2F0E9442
:102490007607B8018F2D0E940F0BD81610F00C9400
:1024A000D11BD093610094E090936000D82E0C94DF
:1024B000D11B2CE731E04F2D64E08D2F0E940702E5
:1024C0000CE711E02F2D4091630064E08D2F0E94F6
:1024D0007607B8018F2D0E940F0BD81610F00C94C0
:1024E000D41BD093610094E090936000D82E0C949C
:1024F000D41B24E231E04F2D64E08D2F0E940702AF
:1025000004E211E02F2D4091630064E08D2F0E94C2
:102510007607B8018F2D0E940F0BD81610F00C947F
:10252000A91BD093610094E090936000D82E0C9486
:10253000A91B2CEA30E04F2D64E08D2F0E9407028A
:102540000CEA10E02F2D4091630064E08D2F0E9473
:102550007607B8018F2D0E940F0BD81610F00C943F
:10256000AC1BD093610094E090936000D82E0C9443
:10257000AC1B2CEC30E04F2D64E08D2F0E94070245
:102580000CEC10E02F2D4091630064E08D2F0E9431
:102590007607B8018F2D0E940F0BD81610F00C94FF
:1025A000AF1BD093610094E090936000D82E0C9400
:1025B000AF1B24E131E04F2D64E08D2F0E94070214
:1025C00004E111E02F2D4091630064E08D2F0E9403
:1025D0007607B8018F2D0E940F0BD81610F00C94BF
:1025E000B21BD093610094E090936000D82E0C94BD
:1025F000B21B0F2EFFE0EF2EF02D04C00F2EFFE0D8
:10260000EF2EF02D24E331E04F2D64E08D2F0E945A
:10261000070204E311E02F2D4091630064E08D2F49
:102620000E947607B8018F2D0E940F0BD81630F448
:10263000D093610094E090936000D82EC4FFE2C173
:10264000E3948E2D90E0FC013197EE30F10508F017
:10265000BDC1EC58FF4F0C9478212CED30E04F2D8C
:1026600065E08D2F0E9407020CED10E02F2D4091A8
:10267000630065E08D2F0E947607B8018F2D0E94C0
:102680000F0BD81610F00C94E31BD093610095E06B
:1026900090936000D82E0C94E31B2CE631E04F2D74
:1026A00065E08D2F0E9407020CE611E02F2D40916E
:1026B000630065E08D2F0E947607B8018F2D0E9480
:1026C0000F0BD81610F00C94E61BD093610095E028
:1026D00090936000D82E0C94E61B2CE630E04F2D32
:1026E00065E08D2F0E9407020CE610E02F2D40912F
:1026F000630065E08D2F0E947607B8018F2D0E9440
:102700000F0BD81610F00C94E91BD093610095E0E4
:1027100090936000D82E0C94E91B24E431E04F2DF7
:1027200065E08D2F0E94070204E411E02F2D4091F7
:10273000630065E08D2F0E947607B8018F2D0E94FF
:102740000F0BD81610F00C94EC1BD093610095E0A1
:1027500090936000D82E0C94EC1B24E531E04F2DB3
:1027600065E08D2F0E94070204E511E02F2D4091B6
:10277000630065E08D2F0E947607B8018F2D0E94BF
:102780000F0BD81610F00C94EF1BD093610095E05E
:1027900090936000D82E0C94EF1B24E830E04F2D6E
:1027A00065E08D2F0E94070204E810E02F2D409174
:1027B000630065E08D2F0E947607B8018F2D0E947F
:1027C0000F0BD81610F00C94F21BD093610095E01B
:1027D00090936000D82E0C94F21B2CEE30E04F2D1D
:1027E00065E08D2F0E9407020CEE10E02F2D409126
:1027F000630065E08D2F0E947607B8018F2D0E943F
:102800000F0BD81608F0F1C7D093610095E09093B4
:102810006000D82EEAC724E930E04F2D65E08D2F07
:102820000E94070204E910E02F2D4091630065E04B
:102830008D2F0E947607B8018F2D0E940F0BD8169E
:1028400008F0D6C7D093610095E090936000D82E31
:10285000CFC724E331E04F2D65E08D2F0E940702A2
:1028600004E311E02F2D4091630065E08D2F0E945D
:102870007607B8018F2D0E940F0BD81608F0BBC742
:10288000D093610095E090936000D82EB4C72CE7F8
:1028900031E04F2D65E08D2F0E9407020CE711E01B
:1028A0002F2D4091630065E08D2F0E947607B801BF
:1028B0008F2D0E940F0BD81608F0A0C7D09361008F
:1028C00095E090936000D82E99C724E231E04F2D17
:1028D00065E08D2F0E94070204E211E02F2D409148
:1028E000630065E08D2F0E947607B8018F2D0E944E
:1028F0000F0BD81608F05BC7D093610095E090935A
:102900006000D82E54C72CEA30E04F2D65E08D2FA3
:102910000E9407020CEA10E02F2D4091630065E051
:102920008D2F0E947607B8018F2D0E940F0BD816AD
:1029300008F040C7D093610095E090936000D82ED6
:1029400039C72CEC30E04F2D65E08D2F0E94070237
:102950000CEC10E02F2D4091630065E08D2F0E945C
:102960007607B8018F2D0E940F0BD81608F025C7E7
:10297000D093610095E090936000D82E1EC724E1AB
:1029800031E04F2D65E08D2F0E94070204E111E038
:102990002F2D4091630065E08D2F0E947607B801CE
:1029A0008F2D0E940F0BD81608F00AC7D093610034
:1029B00095E090936000D82E03C70F2EFFE0EF2E16
:1029C000F02D04C00F2EFFE0EF2EF02D24E331E0B8
:1029D0004F2D65E08D2F0E94070204E311E02F2D9B
:1029E0004091630065E08D2F0E947607B8018F2D1E
:1029F0000E940F0BD81630F4D093610095E09093AD
:102A00006000D82EC5FFD6C1E3948E2D90E0FC0166
:102A10003197EE30F10508F0B1C1EE57FF4F0C943D
:102A200078212CED30E04F2D66E08D2F0E940702BB
:102A30000CED10E02F2D4091630066E08D2F0E9479
:102A40007607B8018F2D0E940F0BD81608F0E8C644
:102A5000D093610096E090936000D82EE1C62CE6FA
:102A600031E04F2D66E08D2F0E9407020CE611E049
:102A70002F2D4091630066E08D2F0E947607B801EC
:102A80008F2D0E940F0BD81608F0CDC6D093610091
:102A900096E090936000D82EC6C62CE630E04F2D0D
:102AA00066E08D2F0E9407020CE610E02F2D40916A
:102AB000630066E08D2F0E947607B8018F2D0E947B
:102AC0000F0BD81608F0B2C6D093610096E0909331
:102AD0006000D82EABC624E431E04F2D66E08D2F88
:102AE0000E94070204E411E02F2D4091630066E08C
:102AF0008D2F0E947607B8018F2D0E940F0BD816DC
:102B000008F097C6D093610096E090936000D82EAD
:102B100090C624E531E04F2D66E08D2F0E9407021C
:102B200004E511E02F2D4091630066E08D2F0E9497
:102B30007607B8018F2D0E940F0BD81608F07CC6BF
:102B4000D093610096E090936000D82E75C624E87B
:102B500030E04F2D66E08D2F0E94070204E810E060
:102B60002F2D4091630066E08D2F0E947607B801FB
:102B70008F2D0E940F0BD81608F061C6D09361000C
:102B800096E090936000D82E5AC62CEE30E04F2D80
:102B900066E08D2F0E9407020CEE10E02F2D409171
:102BA000630066E08D2F0E947607B8018F2D0E948A
:102BB0000F0BD81608F046C6D093610096E09093AC
:102BC0006000D82E3FC624E930E04F2D66E08D2FFF
:102BD0000E94070204E910E02F2D4091630066E097
:102BE0008D2F0E947607B8018F2D0E940F0BD816EB
:102BF00008F02BC6D093610096E090936000D82E29
:102C000024C624E331E04F2D66E08D2F0E94070299
:102C100004E311E02F2D4091630066E08D2F0E94A8
:102C20007607B8018F2D0E940F0BD81608F010C63A
:102C3000D093610096E090936000D82E09C62CE7EF
:102C400031E04F2D66E08D2F0E9407020CE711E066
:102C50002F2D4091630066E08D2F0E947607B8010A
:102C60008F2D0E940F0BD81608F0CBC5D0936100B2
:102C700096E090936000D82EC4C524E231E04F2D39
:102C800066E08D2F0E94070204E211E02F2D409193
:102C9000630066E08D2F0E947607B8018F2D0E9499
:102CA0000F0BD81608F0B0C5D093610096E0909352
:102CB0006000D82EA9C52CEA30E04F2D66E08D2F9C
:102CC0000E9407020CEA10E02F2D4091630066E09D
:102CD0008D2F0E947607B8018F2D0E940F0BD816FA
:102CE00008F095C5D093610096E090936000D82ECF
:102CF0008EC52CEC30E04F2D66E08D2F0E94070230
:102D00000CEC10E02F2D4091630066E08D2F0E94A7
:102D10007607B8018F2D0E940F0BD81608F07AC5E0
:102D2000D093610096E090936000D82E73C524E1A3
:102D300031E04F2D66E08D2F0E94070204E111E083
:102D40002F2D4091630066E08D2F0E947607B80119
:102D50008F2D0E940F0BD81608F05FC5D09361002D
:102D600096E090936000D82E58C50F2EFFE0EF2E0E
:102D7000F02D04C00F2EFFE0EF2EF02D24E331E004
:102D80004F2D66E08D2F0E94070204E311E02F2DE6
:102D90004091630066E08D2F0E947607B8018F2D69
:102DA0000E940F0BD81630F4D093610096E09093F8
:102DB0006000D82EC6FFD6C1E3948E2D90E0FC01B2
:102DC0003197EE30F10508F0B1C1E057FF4F0C9498
:102DD00078212CED30E04F2D67E08D2F0E94070207
:102DE0000CED10E02F2D4091630067E08D2F0E94C5
:102DF0007607B8018F2D0E940F0BD81608F053C527
:102E0000D093610097E090936000D82E4CC52CE6DB
:102E100031E04F2D67E08D2F0E9407020CE611E094
:102E20002F2D4091630067E08D2F0E947607B80137
:102E30008F2D0E940F0BD81608F039C5D093610072
:102E400097E090936000D82E32C52CE630E04F2DED
:102E500067E08D2F0E9407020CE610E02F2D4091B5
:102E6000630067E08D2F0E947607B8018F2D0E94C6
:102E70000F0BD81608F022C5D093610097E090930D
:102E80006000D82E1BC524E431E04F2D67E08D2F64
:102E90000E94070204E411E02F2D4091630067E0D7
:102EA0008D2F0E947607B8018F2D0E940F0BD81628
:102EB00008F00CC5D093610097E090936000D82E85
:102EC00005C524E531E04F2D67E08D2F0E940702F4
:102ED00004E511E02F2D4091630067E08D2F0E94E3
:102EE0007607B8018F2D0E940F0BD81608F0F5C495
:102EF000D093610097E090936000D82EEEC424E850
:102F000030E04F2D67E08D2F0E94070204E810E0AB
:102F10002F2D4091630067E08D2F0E947607B80146
:102F20008F2D0E940F0BD81608F0DFC4D0936100DC
:102F300097E090936000D82ED8C42CEE30E04F2D4F
:102F400067E08D2F0E9407020CEE10E02F2D4091BC
:102F5000630067E08D2F0E947607B8018F2D0E94D5
:102F60000F0BD81608F0C9C4D093610097E0909376
:102F70006000D82EC2C424E930E04F2D67E08D2FC9
:102F80000E94070204E910E02F2D4091630067E0E2
:102F90008D2F0E947607B8018F2D0E940F0BD81637
:102FA00008F0B3C4D093610097E090936000D82EEE
:102FB000ACC424E331E04F2D67E08D2F0E9407025F
:102FC00004E311E02F2D4091630067E08D2F0E94F4
:102FD0007607B8018F2D0E940F0BD81608F09CC4FD
:102FE000D093610097E090936000D82E95C42CE7B1
:102FF00031E04F2D67E08D2F0E9407020CE711E0B2
:103000002F2D4091630067E08D2F0E947607B80155
:103010008F2D0E940F0BD81608F01DC4D0936100AD
:1030200097E090936000D82E16C424E231E04F2D33
:1030300067E08D2F0E94070204E211E02F2D4091DE
:10304000630067E08D2F0E947607B8018F2D0E94E4
:103050000F0BD81608F007C4D093610097E0909347
:103060006000D82E00C42CEA30E04F2D67E08D2F91
:103070000E9407020CEA10E02F2D4091630067E0E8
:103080008D2F0E947607B8018F2D0E940F0BD81646
:1030900008F0F1C3D093610097E090936000D82EC0
:1030A000EAC32CEC30E04F2D67E08D2F0E94070221
:1030B0000CEC10E02F2D4091630067E08D2F0E94F3
:1030C0007607B8018F2D0E940F0BD81608F0DBC3CE
:1030D000D093610097E090936000D82ED4C324E190
:1030E00031E04F2D67E08D2F0E94070204E111E0CF
:1030F0002F2D4091630067E08D2F0E947607B80165
:103100008F2D0E940F0BD81608F0C5C3D093610015
:1031100097E090936000D82EBEC30F2EFFE0EF2EF5
:10312000F02D04C00F2EFFE0EF2EF02D24E331E050
:103130004F2D67E08D2F0E94070204E311E02F2D31
:103140004091630067E08D2F0E947607B8018F2DB4
:103150000E940F0BD81630F4D093610097E0909343
:103160006000D82ECC230CF046C2E3948E2D90E064
:10317000FC013197EE30F10508F0E2C1E256FF4F55
:103180000C9478212CED30E04F2D68E08D2F0E94BB
:1031900007020CED10E02F2D4091630068E08D2FA9
:1031A0000E947607B8018F2D0E940F0BD81608F0E9
:1031B00022C2D093610098E090936000D82E1BC289
:1031C0002CE631E04F2D68E08D2F0E9407020CE6BF
:1031D00011E02F2D4091630068E08D2F0E9476074B
:1031E000B8018F2D0E940F0BD81608F0C7C1D093DD
:1031F000610098E090936000D82E6894EE24E1F886
:10320000FAC12CE630E04F2D68E08D2F0E940702B6
:103210000CE610E02F2D4091630068E08D2F0E9496
:103220007607B8018F2D0E940F0BD81608F0AAC19F
:10323000D093610098E090936000D82E0F2EF3E0B9
:10324000EF2EF02DD8C124E431E04F2D68E08D2F12
:103250000E94070204E411E02F2D4091630068E012
:103260008D2F0E947607B8018F2D0E940F0BD81664
:1032700008F08DC1D093610098E090936000D82E43
:103280006894EE24E2F8B7C124E531E04F2D68E000
:103290008D2F0E94070204E511E02F2D409163005D
:1032A00068E08D2F0E947607B8018F2D0E940F0BCA
:1032B000D81608F070C1D093610098E09093600038
:1032C000D82E0F2EF5E0EF2EF02D95C124E830E03A
:1032D0004F2D68E08D2F0E94070204E810E02F2D8B
:1032E0004091630068E08D2F0E947607B8018F2D12
:1032F0000E940F0BD81608F053C1D093610098E0DC
:1033000090936000D82E0F2EF6E0EF2EF02D73C1B3
:103310002CEE30E04F2D68E08D2F0E9407020CEE5E
:1033200010E02F2D4091630068E08D2F0E947607FA
:10333000B8018F2D0E940F0BD81608F036C1D0931C
:10334000610098E090936000D82E0F2EF7E0EF2EEA
:10335000F02D51C124E930E04F2D68E08D2F0E94FF
:10336000070204E910E02F2D4091630068E08D2FE3
:103370000E947607B8018F2D0E940F0BD81608F017
:1033800019C1D093610098E090936000D82E6894A2
:10339000EE24E3F830C124E331E04F2D68E08D2FB7
:1033A0000E94070204E311E02F2D4091630068E0C2
:1033B0008D2F0E947607B8018F2D0E940F0BD81613
:1033C00008F0FCC0D093610098E090936000D82E84
:1033D0000F2EF9E0EF2EF02D0EC12CE731E04F2D2E
:1033E00068E08D2F0E9407020CE711E02F2D40911D
:1033F000630068E08D2F0E947607B8018F2D0E9430
:103400000F0BD81608F0DFC0D093610098E09093BE
:103410006000D82E0F2EFAE0EF2EF02DECC024E243
:1034200031E04F2D68E08D2F0E94070204E211E089
:103430002F2D4091630068E08D2F0E947607B80120
:103440008F2D0E940F0BD81608F0C2C0D0936100D8
:1034500098E090936000D82E0F2EFBE0EF2EF02D19
:10346000CAC02CEA30E04F2D68E08D2F0E94070281
:103470000CEA10E02F2D4091630068E08D2F0E9430
:103480007607B8018F2D0E940F0BD81608F0A5C043
:10349000D093610098E090936000D82E0F2EFCE04E
:1034A000EF2EF02DA8C02CEC30E04F2D68E08D2FD2
:1034B0000E9407020CEC10E02F2D4091630068E0A1
:1034C0008D2F0E947607B8018F2D0E940F0BD81602
:1034D00008F088C0D093610098E090936000D82EE7
:1034E0000F2EFDE0EF2EF02D86C024E131E04F2DB0
:1034F00068E08D2F0E94070204E111E02F2D40911A
:10350000630068E08D2F0E947607B8018F2D0E941E
:103510000F0BD81608F06BC0D093610098E0909321
:103520006000D82E0F2EFEE0EF2EF02D64C00F2E7F
:10353000FFE0EF2EF02D04C00F2EFFE0EF2EF02D58
:1035400024E331E04F2D68E08D2F0E94070204E351
:1035500011E02F2D4091630068E08D2F0E947607C7
:10356000B8018F2D0E940F0BD81608F044C0D093DD
:10357000610098E090936000D82E3DC06894EE24DE
:10358000E1F839C00F2EF3E0EF2EF02D34C068942F
:10359000EE24E2F830C00F2EF5E0EF2EF02D2BC018
:1035A0000F2EF6E0EF2EF02D26C00F2EF7E0EF2EB7
:1035B000F02D21C06894EE24E3F81DC00F2EF9E031
:1035C000EF2EF02D18C00F2EFAE0EF2EF02D13C0C5
:1035D0000F2EFBE0EF2EF02D0EC00F2EFCE0EF2E95
:1035E000F02D09C00F2EFDE0EF2EF02D04C00F2EA0
:1035F000FEE0EF2EF02DDF5FD93411F00C94590B63
:1036000023C4C1FF97C10C94F60EC1FF99C10C945D
:10361000160FC1FF9BC10C94760DC1FF9DC10C9488
:10362000960DC1FF9FC10C94B60DC1FFA1C10C94B2
:10363000D60DC1FFA3C10C94F60DC1FFA5C10C941A
:10364000160EC1FFA7C10C94360EC1FFA9C10C9480
:10365000560EC1FFABC10C94760EC1FFADC10C94E8
:10366000960EC1FFAFC10C94B60EC1FF5DC10C94A4
:10367000D60EC2FFADC10C94C510C2FFB3C10C94ED
:10368000E510C2FFB9C10C940511C2FFBFC10C9473
:10369000650FC2FFC1C10C94850FC2FFC6C10C9457
:1036A000A50FC2FFCCC10C94C50FC2FFD1C10C94B1
:1036B000E50FC2FFD7C10C940510C2FFDDC10C9409
:1036C0002510C2FFE3C10C944510C2FFE8C10C9461
:1036D0006510C2FFEEC10C948510C2FFF4C10C94BA
:1036E000A510C3FF04C20C94B912C3FF0AC20C9404
:1036F000D912C3FF10C20C94F912C3FF16C20C9466
:103700005911C3FF18C20C947911C3FF1DC20C9448
:103710009911C3FF23C20C94B911C3FF28C20C94A2
:10372000D911C3FF2EC20C94F911C3FF34C20C94FB
:103730001912C3FF3AC20C943912C3FF3FC20C9452
:103740005912C3FF45C20C947912C3FFC6C10C9431
:103750009912C4FF47C2D7C8C4FF4BC2F2C8C4FF06
:103760004FC20DC9C4FF53C228C9C4FF57C20C942D
:103770004D13C4FF57C20C946D13C4FF5BC20C946D
:103780008D13C4FF60C20C94AD13C4FF64C205C89E
:10379000C4FF6AC222C8C4FF70C23DC8C4FF76C25B
:1037A00058C8C4FF7BC273C8C4FF81C28EC8C5FF9E
:1037B0008EC281CAC5FF92C29CCAC5FF96C2B7CA53
:1037C000C5FF9AC2D2CAC5FF9EC249C9C5FF9EC2E3
:1037D00064C9C5FFA1C27FC9C5FFA5C29AC9C5FFFB
:1037E000A8C2B5C9C5FFACC2D0C9C5FFB0C2EBC93C
:1037F000C5FFB4C206CAC5FFB7C221CAC5FF60C2B1
:103800003CCAC6FFB8C211CCC6FFBDC22CCCC6FF95
:10381000C2C247CCC6FFC7C262CCC6FFCCC27DCCF9
:10382000C6FFD1C2F4CAC6FFD2C20FCBC6FFD6C2F2
:103830002ACBC6FFDBC245CBC6FFDFC260CBC6FFCB
:10384000E4C27BCBC6FFE9C296CBC6FFEEC2B1CBCA
:10385000C6FFF2C2CCCBCC230CF4E1CD0F2EFAE0A4
:10386000EF2EF02DC8CECC230CF4FBCD0F2EFBE0B9
:10387000EF2EF02DC0CECC230CF415CE0F2EFCE095
:10388000EF2EF02DB8CECC230CF42FCE0F2EFDE072
:10389000EF2EF02DB0CECC230CF449CE0F2EFEE04F
:1038A000EF2EF02DA8CECC230CF0A5CE89CCCC23C6
:1038B0000CF4A7CC6894EE24E1F89DCECC230CF454
:1038C000C2CC0F2EF3E0EF2EF02D95CECC230CF4CE
:1038D000DBCC6894EE24E2F88ECECC230CF4F6CC4C
:1038E0000F2EF5E0EF2EF02D86CECC230CF410CD6C
:1038F0000F2EF6E0EF2EF02D7ECECC230CF42ACD49
:103900000F2EF7E0EF2EF02D76CECC230CF443CD26
:103910006894EE24E3F86FCECC230CF45ECD0F2E2A
:10392000F9E0EF2EF02D67CEC2FD02C00C942A11F3
:103930000C94C510C2FD02C00C942A110C94E51021
:10394000C2FD02C00C942A110C940A11C2FD02C0DF
:103950000C942A110C94650FC2FD02C00C942A111C
:103960000C94850FC2FD02C00C942A110C94A50F73
:10397000C2FD02C00C942A110C94C50FC2FD02C0F6
:103980000C942A110C94E50FC2FD02C00C942A116C
:103990000C940510C2FD02C00C942A110C94251041
:1039A000C2FD02C00C942A110C944510C2FD02C045
:1039B0000C942A110C946510C2FD02C00C942A11BB
:1039C0000C948510C2FD02C00C942A110C94A51011
:1039D000C3FF02C00C94B9120F2EFCE0EF2EF02DA5
:1039E0000C941E13C3FF02C00C94D9120F2EFDE0DD
:1039F000EF2EF02D0C941E13C3FF02C00C94FE1288
:103A00000F2EFEE0EF2EF02D0C941E13C3FD02C00E
:103A10000C941E130C945911C3FF02C00C9479111D
:103A20006894EE24E1F80C941E13C3FF02C00C94BA
:103A300099110F2EF3E0EF2EF02D0C941E13C3FFFF
:103A400002C00C94B9116894EE24E2F80C941E1391
:103A5000C3FF02C00C94D9110F2EF5E0EF2EF02D0C
:103A60000C941E13C3FF02C00C94F9110F2EF6E044
:103A7000EF2EF02D0C941E13C3FF02C00C941912EC
:103A80000F2EF7E0EF2EF02D0C941E13C3FF02C093
:103A90000C9439126894EE24E3F80C941E13C3FFBF
:103AA00002C00C9459120F2EF9E0EF2EF02D0C9459
:103AB0001E13C3FF02C00C9479120F2EFAE0EF2EF2
:103AC000F02D0C941E13C3FF02C00C9499120F2EFC
:103AD000FBE0EF2EF02D0C941E13C4FF02C00C94DB
:103AE00083140F2EFBE0EF2EF02D0C940215C4FF73
:103AF00002C00C94A1140F2EFCE0EF2EF02D0C94BC
:103B00000215C4FF02C00C94BF140F2EFDE0EF2E6F
:103B1000F02D0C940215C4FF02C00C94E2140F2E79
:103B2000FEE0EF2EF02D0C940215C4FD02C00C94A3
:103B300002150C944D13C4FF02C00C946D136894CD
:103B4000EE24E1F80C940215C4FF02C00C948D130E
:103B50000F2EF3E0EF2EF02D0C940215C4FF02C0DF
:103B60000C94AD136894EE24E2F80C940215C4FF93
:103B700002C00C94CD130F2EF5E0EF2EF02D0C9417
:103B80000215C4FF02C00C94ED130F2EF6E0EF2EC9
:103B9000F02D0C940215C4FF02C00C940B140F2ED0
:103BA000F7E0EF2EF02D0C940215C4FF02C00C9428
:103BB00029146894EE24E3F80C940215C4FF02C0A3
:103BC0000C9447140F2EF9E0EF2EF02D0C940215F3
:103BD000C4FF02C00C9465140F2EFAE0EF2EF02DF6
:103BE0000C940215C5FD67C80F2EFBE0EF2EF02DDB
:103BF000E1C8C5FD7EC80F2EFCE0EF2EF02DDAC81F
:103C0000C5FD95C80F2EFDE0EF2EF02DD3C8C5FDE4
:103C1000B1C80F2EFEE0EF2EF02DCCC8C5FFCAC8EC
:103C20000C942F15C5FF02C00C944D156894EE241A
:103C3000E1F8C0C8C5FF02C00C946B150F2EF3E06D
:103C4000EF2EF02DB7C8C5FF02C00C9489156894FB
:103C5000EE24E2F8AFC8C5FF02C00C94A7150F2EE2
:103C6000F5E0EF2EF02DA6C8C5FF02C00C94C515D7
:103C70000F2EF6E0EF2EF02D9DC8C5FF02C00C946C
:103C8000E3150F2EF7E0EF2EF02D94C8C5FF02C00C
:103C90000C9401166894EE24E3F88CC8C5FF02C0AA
:103CA0000C941F160F2EF9E0EF2EF02D83C8C5FFE0
:103CB00002C00C943D160F2EFAE0EF2EF02D7AC8BC
:103CC000C6FDB3C90F2EFAE0EF2EF02D4BCAC6FD8C
:103CD000CAC90F2EFBE0EF2EF02D44CAC6FDE1C984
:103CE0000F2EFCE0EF2EF02D3DCAC6FDF8C90F2EB9
:103CF000FDE0EF2EF02D36CAC6FD14CA0F2EFEE0F1
:103D0000EF2EF02D2FCAC6FF2DCA81C8C6FD9DC853
:103D10006894EE24E1F826CAC6FDB5C80F2EF3E07C
:103D2000EF2EF02D1FCAC6FDCCC86894EE24E2F831
:103D300019CAC6FDE4C80F2EF5E0EF2EF02D12CA09
:103D4000C6FDFBC80F2EF6E0EF2EF02D0BCAC6FD08
:103D500012C90F2EF7E0EF2EF02D04CAC6FD29C9B7
:103D60006894EE24E3F8FEC9C6FD41C90F2EF9E0C0
:103D7000EF2EF02DF7C9CC230CF451CB0F2EFAE027
:103D8000EF2EF02D38CCCC230CF46BCB0F2EFBE0B8
:103D9000EF2EF02D30CCCC230CF485CB0F2EFCE095
:103DA000EF2EF02D28CCCC230CF49FCB0F2EFDE072
:103DB000EF2EF02D20CCCC230CF4BECB0F2EFEE04A
:103DC000EF2EF02D18CCCC230CF015CCF9C9CC2358
:103DD0000CF417CA6894EE24E1F80DCCCC230CF453
:103DE00032CA0F2EF3E0EF2EF02D05CCCC230CF4CD
:103DF0004BCA6894EE24E2F8FECBCC230CF466CADE
:103E00000F2EF5E0EF2EF02DF6CBCC230CF480CA6C
:103E10000F2EF6E0EF2EF02DEECBCC230CF49ACA49
:103E20000F2EF7E0EF2EF02DE6CBCC230CF4B3CA27
:103E30006894EE24E3F8DFCBCC230CF4CECA0F2E2B
:103E4000F9E0EF2EF02DD7CBDF91CF911F910F919D
:103E5000FF90EF90DF90BF90AF900895EF92FF92A8
:103E60000F931F93CF93DF93EC01FC01019000208F
:103E7000E9F73197E81BF90BE230F10591F48881FD
:103E8000813409F05EC08981843509F0F0C18FE486
:103E90000E9417018BE40E9417018DE00E94170118
:103EA000F0C1E330F105B1F48881823509F0D5C164
:103EB0008981833509F0D1C18A81843509F0CDC16A
:103EC0008FE40E9417018BE40E9417018DE00E948D
:103ED0001701D7C1E430F10509F0DAC088818335D4
:103EE00009F0BBC18981803509F0C3C18A81803264
:103EF00009F0BFC18B81823421F0873509F0B9C147
:103F000010C082E48093630087E5809362008FE4B1
:103F10000E9417018BE40E9417018DE00E94170197
:103F2000B0C187E58093630082E4809362008FE4F0
:103F30000E9417018BE40E9417018DE00E94170177
:103F4000A0C188818E34A1F48981873409F065C0CD
:103F50000E94E009809162000E9492068FE40E9414
:103F600017018BE40E9417018DE00E94170189C19F
:103F7000853409F052C08981873409F0E9C08EB5D3
:103F80008B7F8EBD1DBC1CBC90916600809164002F
:103F9000891710F40E94FD01109266000E94070A22
:103FA00081110EC00E94240A81110AC08FE40E9470
:103FB00017018BE40E9417018DE00E94170109C0D0
:103FC00080E50E9417018CE40E9417018DE00E9499
:103FD00017018EB584608EBD54C18A81803209F08C
:103FE0003CC18B810E945F018150893008F035C14E
:103FF0008EB58B7F8EBD8B810E945F0180936400A4
:104000008FE40E9417018BE40E9417018DE00E944B
:1040100017018EB584608EBD34C188818F3409F05C
:1040200097C089818B3409F028C10E94070A882330
:1040300049F10E945D0A809162000E94460B2CEBC0
:1040400030E04091620060916000809161000E94C8
:1040500007020CEB10E02091620040916300609138
:104060006000809161000E9476070E94D0098091D3
:1040700062000E94920660916000809161000E943F
:10408000AD0102C00E94C8018EB584608EBDF9C02A
:10409000359709F0E2C088818D3409F0DEC089814E
:1040A000863509F0DAC08A81803209F0D6C08B816A
:1040B0008154883008F0D1C08C818153883008F059
:1040C000CCC08EB58B7F8EBD1DBC1CBC9091660094
:1040D00080916400891720F4C2980E94FD0101C0FC
:1040E000C59A109266008C810E945F01082F1B8187
:1040F000682F812F0E946002813039F52CEB30E06F
:1041000040916300602F812F0E940702E0906300BE
:10411000F09062008C810E945F010CEB10E02E2D6C
:104120004F2D682F8B810E9476070E94D0098091C5
:1041300062000E9492068FE40E9417018BE40E94A5
:1041400017018DE00E9417019CC00E94F30199C0E5
:104150008881803509F072C08981833509F06AC091
:104160008EB58B7F8EBD1DBC1CBC9091660080916E
:104170006400891720F4C2980E94FD0101C0C59A0D
:10418000109266008FE40E9417018BE40E941701D1
:104190008DE00E9417010E94240A811148C00E94EC
:1041A000070A811112C085E40E94170187E40E946A
:1041B00017018DE00E94170140916A0060916B0029
:1041C000809162000E94410A5CC00E94D0098091E7
:1041D00062000E9492060E945D0A809162000E9425
:1041E000460B2CEB30E040916200609160008091C2
:1041F00061000E9407020CEB10E0209162004091E8
:10420000630060916000809161000E9476070E94C7
:10421000D009809162000E949206609160008091B6
:1042200061000E94AD018EB584608EBD2AC00E94DF
:10423000F30127C089818C3481F423C0873569F468
:1042400089818E3451F48FE40E9417018BE40E941F
:1042500017018DE00E94170114C080E50E9417012C
:104260008CE40E9417018DE00E9417010AC088812A
:104270007FCE8981843589F7B0CE88818035F1F68B
:10428000D9CFDF91CF911F910F91FF90EF900895BB
:104290001F920F920FB60F9211242F933F934F93BB
:1042A0005F936F937F938F939F93AF93BF93EF939E
:1042B000FF938CB18D3019F00E94350108C084E65F
:1042C00091E00E947D0184E691E00E942E1FFF9103
:1042D000EF91BF91AF919F918F917F916F915F917E
:1042E0004F913F912F910F900FBE0F901F901895F7
:1042F000EE0FFF1F0590F491E02D0994F894FFCF85
:0643000001412020020033
:00000001FF
