:100000000C949A000C94B7000C94B7000C94B700B1
:100010000C94B7000C94B7000C94E7000C94B70054
:100020000C94B7000C94B7000C94B7000C94A91072
:100030000C94B7000C94B9000C94B7000C94B70062
:100040000C94B7000C94B7000C94B7000C94B70054
:100050000C94B70091099B09A509AF09B909C30917
:10006000CD09D709E109EB09F509FF09090A130AC6
:10007000590A630A6D0A770A810A8B0A950A9F0A50
:10008000DB0AA90AB30ABD0AC70AD10A060B100B7C
:100090001A0B240B2E0B380B420B4C0B880B560BF8
:1000A000600B6A0B740B7E0BB30BBD0BC70BD10B34
:1000B000DB0BE50BEF0BF90B350C030C0D0C170CE0
:1000C000210C2B0C600C6A0C740C7E0C880C920CAE
:1000D0009C0CA60CE20CB00CBA0CC40CCE0CD80CC8
:1000E0000D0D170D210D2B0D350D3F0D490D530D28
:1000F0008F0D5D0D670D710D7B0D850DBA0DC40D56
:10010000CE0DD80DE20DEC0DF60D000E3C0E0A0ED4
:10011000140E1E0E280E320E670E710E7B0E850E0B
:100120008F0E990EA30EAD0EE90EB70EC10ECB0EBB
:10013000D50EDF0E11241FBECFE5D4E0DEBFCDBF4C
:1001400010E0A0E6B0E0E2ECF1E202C005900D9212
:10015000A837B107D9F721E0A8E7B0E001C01D92A8
:10016000AE3AB207E1F70E943D010C94DF100C9407
:1001700000001F920F920FB60F9211248F939F933E
:10018000EF93FF935D9B1AC0E0917B0080917A0012
:10019000E81750F4F0E0E25EFE4F80818CB9809168
:1001A0007B008F5F80937B0090917B0080917A0031
:1001B000981304C010927B0010927A00FF91EF9187
:1001C0009F918F910F900FBE0F901F9018951F92C7
:1001D0000F920FB60F9211248F93809178008F5F4A
:1001E000809378008F910F900FBE0F901F901895FD
:1001F00090BD89B980E28BB988E48AB986E880BD70
:1002000008958AB180698AB9089590917A00E92F9A
:10021000F0E0E25EFE4F80839F5F903119F0909393
:100220007A0002C010927A005D9B0CC0E0917B00C6
:10023000F0E0E25EFE4F80818CB980917B008F5FA1
:1002400080937B00089590917900913140F4E92FDB
:10025000F0E0E258FE4F80839F5F9093790008950D
:100260001DBC1CBC8EB588608EBD86E998E99BBD1F
:100270008ABD89B7806189BF089580E490E00E94BB
:10028000F8000E94010187B38F6287BB88B38F6239
:1002900088BB0E9430017894FFCF8053893030F4BE
:1002A000E82FF0E0E259FF4F8081089589E008953A
:1002B000E0917900F0E0E258FE4FCF018E57914077
:1002C000409714F41192F9CF109279000895CF93CA
:1002D000DF93D82FC62F8DE40E9405018DE40E9484
:1002E000050180E20E9405018D2F0E940501C930A1
:1002F00030F4EC2FF0E0EB59FF4F808101C089E32F
:100300000E9405018DE0DF91CF910C94050181548D
:10031000880F653010F4615002C08F5F6550D901BD
:10032000A80FB11D2C91E62FF0E0423471F4349601
:1003300041E050E0CA0101C0880FEA95EAF7822B3C
:1003400001C0440F6A95EAF70EC081E090E0AC016D
:1003500001C0440F6A95EAF7349601C0880FEA9508
:10036000EAF740954223842B8C9308958154880F9B
:10037000653010F4615002C08F5F6550FA01E80FDC
:10038000F11D808190E024E0260FAC0102C055955C
:1003900047952A95E2F740FF09C002C095958795D9
:1003A0006A95E2F780FD04C087E5089585E4089525
:1003B00082E408958154E82FF0E0E257FF4F8081F6
:1003C00090E0615002C0959587956A95E2F781703B
:1003D00008958154E82FF0E0615081E090E001C081
:1003E000880F6A95EAF7EA54FF4F9081892B808342
:1003F00008958154E82FF0E0615081E090E001C061
:10040000880F6A95EAF7E257FF4F9081892B808326
:1004100008959F92AF92BF92CF92DF92EF92FF9298
:100420000F931F93CF93DF93C82FD62FC42E022F85
:1004300011E0160F82E4F12E90E04813A9C188E084
:100440008F1580F0911110C04EEC50E06F2D8C2F65
:100450000E94B601853401F191E0823409F090E008
:10046000F394EDCF9130C1F48D2F90E00297A4F07A
:10047000FF24FA94FD0E4EEC50E06F2D8C2F0E945D
:10048000B601853449F46F2D8C2F023419F40E9483
:10049000E90102C00E94F901DD24DA94DD0EFD2C91
:1004A00090E081E08F1580F4911110C04EEC50E087
:1004B0006F2D8C2F0E94B6018534E9F091E08234D3
:1004C00009F090E0FA94EDCF9130A9F48D2F90E0EF
:1004D00008978CF44EEC50E0612F8C2F0E94B601EF
:1004E000853449F4612F8C2F023419F40E94E901FC
:1004F00002C00E94F901EE24EA94EC0EFE2C90E07A
:1005000080E48F1580F4911110C04EEC50E06D2FF7
:100510008F2D0E94B601853409F191E0823409F0F3
:1005200090E0FA94EDCF9130C9F48C2F90E08834AC
:100530009105A4F4FF24F394FC0E4EEC50E06D2FD3
:100540008F2D0E94B601853449F46D2F8F2D023412
:1005500019F40E94E90102C00E94F901FF24F394FA
:10056000FC0ECF2C90E088E48C1580F0911110C027
:100570004EEC50E06D2F8C2D0E94B6018534D9F0E1
:1005800091E0823409F090E0C394EDCF913099F47A
:100590008C2F90E08234910574F04EEC50E06D2F7A
:1005A0008E2D0E94B601853431F46D2F8E2D0234CC
:1005B00031F40E94E901A12EBE2CC12C17C00E946B
:1005C000F901F9CF88E08A15A0F04EEC50E06A2DD1
:1005D0008B2D0E94B601853461F0C1100DC0CC2472
:1005E000C394823409F0C12CBA94A39480E48B158F
:1005F00048F381E0C81217C08C2F90E08834910531
:1006000094F48D2F90E0029774F04EEC50E06D2D35
:100610008F2D0E94B601853431F46D2D8F2D02345B
:1006200031F40E94E901BD2CCF2C90E015C00E944E
:10063000F901F9CFBB2099F0911113C04EEC50E0B5
:100640006B2D8C2D0E94B601853411F191E082341E
:1006500009F090E0C394BA9488E48C1558F791306F
:10066000B9F48C2F90E08234910594F08D2F90E0B6
:10067000089774F44EEC50E0612F8E2D0E94B60165
:10068000853431F4612F8E2D023439F40E94E90152
:10069000CD2CB12CAC2EAD1A14C00E94F901F8CFAC
:1006A000CC2099F04EEC50E06C2D0E94B6018534C0
:1006B00061F0B1100DC0BB24B394823409F0B12CA9
:1006C000CA948A2D8C0D813458F781E0B81217C076
:1006D0008C2F90E08834910594F48D2F90E008974A
:1006E00074F44EEC50E0612F8F2D0E94B6018534DA
:1006F00031F4612F8F2D023431F40E94E90110E0B2
:10070000CD2ECC1A13C00E94F901F9CF693098F4AC
:100710004EEC50E08F2D0E94B601853461F011112E
:100720000DC011E0823409F010E0F3946C2D6F0DD0
:1007300088E48F1558F7113009F0C8C18C2F90E06C
:10074000823491050CF4C2C16D2F70E062307105E6
:100750000CF4BCC14EEC50E06D2D8E2D0E94B60104
:10076000853409F0B3C16D2D8E2D023409F0A1C17D
:1007700093C1911112C04EEC50E06F2D8C2F0E944E
:10078000B601853411F191E0873509F090E0F394DA
:1007900088E08F1570F79130C1F48D2F90E00297AB
:1007A000A4F0FF24FA94FD0E4EEC50E06F2D8C2F38
:1007B0000E94B601853449F46F2D8C2FC01203C0FE
:1007C0000E94E90102C00E94F901DD24DA94DD0EE5
:1007D000FD2C90E081E08F1580F4911110C04EEC5B
:1007E00050E06F2D8C2F0E94B6018534E9F091E026
:1007F000873509F090E0FA94EDCF9130A9F48D2F70
:1008000090E008978CF44EEC50E0612F8C2F0E9402
:10081000B601853449F4612F8C2FC01203C00E94A9
:10082000E90102C00E94F901EE24EA94EC0EFE2CCC
:1008300090E080E48F1580F4911110C04EEC50E0F0
:100840006D2F8F2D0E94B601853409F191E0873517
:1008500009F090E0FA94EDCF9130C9F48C2F90E03C
:1008600088349105A4F4FF24F394FC0E4EEC50E080
:100870006D2F8F2D0E94B601853449F46D2F8F2D79
:10088000C01203C00E94E90102C00E94F901FF24C6
:10089000F394FC0EBF2C90E088E48B1580F091114E
:1008A00010C04EEC50E06D2F8B2D0E94B6018534A8
:1008B000D9F091E0873509F090E0B394EDCF913015
:1008C00099F48C2F90E08234910574F04EEC50E056
:1008D0006D2F8E2D0E94B601853431F46D2F8E2D33
:1008E000C01206C00E94E901912EAE2CB12C17C097
:1008F0000E94F901F9CF88E08915A0F04EEC50E094
:10090000692D8A2D0E94B601853461F0B1100DC0A9
:10091000BB24B394873509F0B12CAA94939480E456
:100920008A1548F381E0B81217C08C2F90E0883404
:10093000910594F48D2F90E0029774F04EEC50E006
:100940006D2D8F2D0E94B601853431F46D2D8F2DC4
:10095000C01206C00E94E901AD2CBF2C90E015C06A
:100960000E94F901F9CFAA2099F0911113C04EEC21
:1009700050E06A2D8B2D0E94B601853411F191E073
:10098000873509F090E0B394AA9488E48B1558F762
:100990009130B9F48C2F90E08234910594F08D2F32
:1009A00090E0089774F44EEC50E0612F8E2D0E9479
:1009B000B601853431F4612F8E2DC01207C00E941C
:1009C000E901BD2CA12C9C2E9D1A14C00E94F90196
:1009D000F8CFBB2099F04EEC50E06B2D0E94B60191
:1009E000853461F0A1100DC0AA24A394873509F0C5
:1009F000A12CBA94892D8B0D813458F781E0A8126F
:100A000017C08C2F90E08834910594F48D2F90E0DE
:100A1000089774F44EEC50E0612F8F2D0E94B601C0
:100A2000853431F4612F8F2DC01206C00E94E90178
:100A300010E0BD2EBC1A13C00E94F901F9CF693035
:100A400098F44EEC50E08F2D0E94B601853461F091
:100A500011110CC011E0873509F010E0F3946B2DF3
:100A60006F0D88E48F1558F7113081F58C2F90E0C9
:100A7000823491055CF16D2F70E06230710534F1C4
:100A80004EEC50E06D2D8E2D0E94B6018534F1F4B0
:100A90006D2D8E2DC0120DC0DF91CF911F910F9142
:100AA000FF90EF90DF90CF90BF90AF909F900C940D
:100AB000E901DF91CF911F910F91FF90EF90DF90AF
:100AC000CF90BF90AF909F900C94F901DF91CF91A0
:100AD0001F910F91FF90EF90DF90CF90BF90AF905C
:100AE0009F900895CF92DF92FF920F931F93CF9321
:100AF000DF93182F5EECC52E50E0D52ED0E0CD2F21
:100B0000C695CF5BF60101916F0104FF22C0D0FFB3
:100B100003C045E0F42E02C0FF24F3944EEC50E0F5
:100B20006F2D8C2F0E94B601873541F480917C0097
:100B30008F5F80937C00212F42E407C080917D006D
:100B40008F5F80937D00212F47E56F2D8C2F0E94B2
:100B5000090205FF22C0D0FF03C036E0F32E02C019
:100B600022E0F22E4EEC50E06F2D8C2F0E94B60149
:100B7000873541F480917C008F5F80937C00212F2A
:100B800042E407C080917D008F5F80937D00212F1C
:100B900047E56F2D8C2F0E94090206FF22C0D0FF6F
:100BA00003C097E0F92E02C083E0F82E4EEC50E02F
:100BB0006F2D8C2F0E94B601873541F480917C0007
:100BC0008F5F80937C00212F42E407C080917D00DD
:100BD0008F5F80937D00212F47E56F2D8C2F0E9422
:100BE000090207FF20C0D0FF02C008E001C004E0F6
:100BF0004EEC50E0602F8C2F0E94B601873541F4F7
:100C000080917C008F5F80937C00212F42E407C09D
:100C100080917D008F5F80937D00212F47E5602FBD
:100C20008C2F0E940902DF5FD03109F068CFDF917D
:100C3000CF911F910F91FF90DF90CF9008955F9219
:100C40006F927F928F929F92AF92BF92CF92DF92DC
:100C5000EF92FF920F931F93CF93DF93C82EF62E40
:100C6000942EC22FAA24A394A60EDA2DE12CD930FB
:100C700028F0DFEFDF0DED2ED12C37C0A8016D2F4E
:100C80008C2D0E94B601891112C0E11013C0DD2421
:100C9000D394DD0ED83049F0A8016D2D8C2D0E9423
:100CA000B601EE24E3948C13E12CDD2DE0CF81E03E
:100CB000E812DFCFEA2CED16E0F698014C2F6E2DEE
:100CC0008C2D0E948701E394F6CFA8016E2D8C2D08
:100CD0000E94B601981217C0D1101EC0BB24BA944E
:100CE000BE0C81E0E81204C0EB2CE110EECF0BC08B
:100CF000A8016B2D8C2D0E94B601DD24D394C8175A
:100D000099F3D12CF1CF81E0D81631F0DD24DA94BB
:100D1000DC0CED2CB12C1FC08F2D90E00297B4F3AA
:100D2000DD2EED1498F798014C2F6D2D8C2D0E941F
:100D30008701DA94F6CFA8016F2D8E2D0E94B6019F
:100D400098121DC0B1101EC088248A948E0C81E4B4
:100D5000E8120AC0E82C80E48E1568F3EE24E394D0
:100D6000EC0CBE2C812C29C0A8016F2D882D0E946F
:100D7000B601BB24B394C81769F3B12CEBCF81E063
:100D8000B812ECCFBD2CEB1448F798014C2F6F2D07
:100D90008B2D0E948701BA94F6CFA8016F2D8B2D61
:100DA0000E94B601981218C0811019C0772473945C
:100DB0007B0C88E4B81205C0B72C88E48B1568F763
:100DC00010C0A8016F2D872D0E94B601882483943E
:100DD000C81791F3812CF0CF81E0881202C08E2CCD
:100DE00004C07A2CBD2C812C2EC08B14D0F7980116
:100DF0004C2F6F2D882D0E9487018394F6CF88E0B9
:100E0000871538F1A801672D8B2D0E94B601981225
:100E100020C081E0881621F166246394670C552474
:100E20005A945B0C81E4B81691F088E0781679F05A
:100E3000A801662D852D0E94B60188248394C813CD
:100E400006C0B52C762C80E48B15C8F205C0812C29
:100E5000F8CF81E0881621F07D2E8E2CB12C33C086
:100E600088E08A15C8F38D2C7A2CB814A8F798015D
:100E70004C2F672D882D0E94870173948A94F5CF9B
:100E8000772071F1A801672D882D0E94B601981274
:100E900027C081E0B81639F166246A94670C55249E
:100EA0005394580C88E4881691F081E0781679F014
:100EB000A801662D852D0E94B601BB24B394C813EA
:100EC00006C0852C762C88E48815D0F606C0B12C97
:100ED000F8CF7E2CBD2E781450F0BD2E812C35C05D
:100EE00081E0B812FACFD111F4CFB12CF7CFBB20EB
:100EF000A1F398014C2F6B2D872D0E948701BA9486
:100F00007394E9CFBB2039F1A8016B2D8D2D0E9480
:100F1000B601981220C081E0881601F177247A94F6
:100F20007B0C66246A946D0C81E4D81691F081E004
:100F3000B81679F0A801672D862D0E94B601882485
:100F40008394C81306C0D62CB72C80E48D15D0F23C
:100F50000DC0812CF8CF81E0881208C0DD2331F06C
:100F6000BC2CBF188B2D8D0FD81620F0BA2CDE2C80
:100F7000D0E02BC0DD23D1F398014C2F6D2F0E94C0
:100F80008701D150EFCF88E08B1528F1A8016B2D98
:100F90008D2D0E94B60198121EC0D130F1F0882428
:100FA00083948B0C772473947D0C88E4D81689F095
:100FB00088E0B81671F0A801682D872D0E94B6014F
:100FC000D1E0C81306C0D72CB82C88E48D15D8F60C
:100FD00015C0D0E0F8CFD13089F488E08A1570F0E0
:100FE000FC186F2D6E0DED1448F4693039F098013E
:100FF0004C2F8E2D0E948701E394F3CFDF91CF9188
:101000001F910F91FF90EF90DF90CF90BF90AF9026
:101010009F908F907F906F905F90089510927D00C9
:1010200010927C00E6EBF0E0AEE8B0E011921D9289
:1010300080E0EE3BF807D1F70895EEECF0E0119276
:1010400080E0EE3DF807D9F70E940E088091D400A9
:10105000877F80688093D4008091D50081618093E0
:10106000D5008091D60088688093D6008091D70003
:101070008E7F80618093D7000895E6EBF0E02EEB41
:1010800030E09191892F817091FD8F5F92FD8F5F8C
:1010900093FD8F5F94FD8F5F95FD8F5F96FD8F5F52
:1010A00097FF02C08F5F08952E173F0711F0882326
:1010B00041F30895EEE8F0E026E930E09191892FC0
:1010C000817091FD8F5F92FD8F5F93FD8F5F94FD27
:1010D0008F5F95FD8F5F96FD8F5F97FF02C08F5FDB
:1010E00008952E173F0711F0882341F308958234A5
:1010F00071F4461728F487E50E9405018EE40FC0BD
:10110000641748F48CE40E94050183E508C0641765
:1011100090F34617B8F384E50E94050185E40E9428
:1011200005018DE00C9405012F923F924F925F9242
:101130006F927F928F929F92AF92BF92CF92DF92E7
:10114000EF92FF920F931F93CF93DF93CDB7DEB74C
:1011500028970FB6F894DEBF0FBECDBF8EEC90E09F
:101160009A838983AEEEB0E0BC83AB838EE8482ED1
:1011700081E0582E9EE7692E90E0792E2EE5822E92
:1011800021E0922E3EE6A32E31E0B32E46E9C42E96
:1011900040E0D42E5EEFE52E50E0F52E06EA10E09A
:1011A0006EE471E04EE951E02EE331E08EEB90E029
:1011B000EEEDF0E0FE83ED83AEE2B1E0B887AF8301
:1011C000EEE0F1E0A0E13A2EA981BA812D90BA8338
:1011D000A983AB81BC812D92BC83AB83D2012D92BC
:1011E0002D01D3012D923D01D4012D924D01D50148
:1011F0002D925D01D6012D926D01D7012D927D01B9
:10120000D8012D928D01DB012D92BD01DA012D92C5
:10121000AD01D9012D929D01DC012D92CD01AD8151
:10122000BE812D92BE83AD83AF81B8852D92B887E4
:10123000AF8321923A943110C7CF28960FB6F89415
:10124000DEBF0FBECDBFDF91CF911F910F91FF90F9
:10125000EF90DF90CF90BF90AF909F908F907F9056
:101260006F905F904F903F902F900895982FAB0113
:10127000405F5F4F80E0FB012191BF0124FF08C068
:1012800020FF03C0923421F402C0973509F48F5F28
:1012900025FF08C021FF03C0923421F402C0973516
:1012A00009F48F5F26FF08C022FF03C0923421F4A7
:1012B00002C0973509F48F5F27FF08C023FF03C0E2
:1012C000923421F402C0973509F48F5F461757070F
:1012D00091F60895AF92BF92CF92DF92EF92FF9274
:1012E0000F931F93CF93DF93D82F86EBA82E80E028
:1012F000B82EC1E4F12CE12CF501D1905F01FD2D58
:10130000F170CF2ED0FEC6C0E3948E2D90E0FC018C
:101310003197EE30F10508F0A2C0E65DFF4F0C9466
:10132000D9102EEE30E04D2F61E08C2F0E94870106
:101330000EEE10E081C02EE831E04D2F61E08C2FE1
:101340000E9487010EE811E077C02EE730E04D2FB4
:1013500061E08C2F0E9487010EE710E06DC02EE542
:1013600031E04D2F61E08C2F0E9487010EE511E0E6
:1013700063C02EE631E04D2F61E08C2F0E94870183
:101380000EE611E059C026E930E04D2F61E08C2FC8
:101390000E94870106E910E04FC02EEF30E04D2F8C
:1013A00061E08C2F0E9487010EEF10E045C026EA15
:1013B00030E04D2F61E08C2F0E94870106EA10E09B
:1013C0003BC02EE431E04D2F61E08C2F0E9487015D
:1013D0000EE411E031C02EE931E04D2F61E08C2F99
:1013E0000E9487010EE911E027C02EE331E04D2F66
:1013F00061E08C2F0E9487010EE311E01DC02EEBEF
:1014000030E04D2F61E08C2F0E9487010EEB10E041
:1014100013C02EED30E04D2F61E08C2F0E9487012C
:101420000EED10E009C02EE231E04D2F61E08C2F6F
:101430000E9487010EE211E02D2F4091630061E0D0
:101440008C2F0E941F06B8018D2F0E943609F816B6
:1014500008F5C093610091E0909360001AC02EE4FB
:1014600031E04D2F61E08C2F0E9487010EE411E0E6
:101470002D2F4091630061E08C2F0E941F06B80160
:101480008D2F0E943609F81628F4C0936100C0928F
:101490006000F82ED1FEABC0E3948E2D90E0FC01ED
:1014A0003197EE30F10508F086C0E85CFF4F0C94F0
:1014B000D9102EEE30E04D2F62E08C2F0E94870174
:1014C0000EEE10E081C02EE831E04D2F62E08C2F4F
:1014D0000E9487010EE811E077C02EE730E04D2F23
:1014E00062E08C2F0E9487010EE710E06DC02EE5B0
:1014F00031E04D2F62E08C2F0E9487010EE511E054
:1015000063C02EE631E04D2F62E08C2F0E948701F0
:101510000EE611E059C026E930E04D2F62E08C2F35
:101520000E94870106E910E04FC02EEF30E04D2FFA
:1015300062E08C2F0E9487010EEF10E045C026EA82
:1015400030E04D2F62E08C2F0E94870106EA10E008
:101550003BC02EE931E04D2F62E08C2F0E948701C5
:101560000EE911E031C02EE331E04D2F62E08C2F07
:101570000E9487010EE311E027C02EEB30E04D2FD3
:1015800062E08C2F0E9487010EEB10E01DC02EED53
:1015900030E04D2F62E08C2F0E9487010EED10E0AD
:1015A00013C02EE231E04D2F62E08C2F0E948701A4
:1015B0000EE211E009C02EE431E04D2F62E08C2FE5
:1015C0000E9487010EE411E02D2F4091630062E03C
:1015D0008C2F0E941F06B8018D2F0E943609F81625
:1015E00030F4C093610092E090936000F82ED2FE38
:1015F000ABC0E3948E2D90E0FC013197EE30F10505
:1016000008F086C0EA5BFF4F0C94D9102EEE30E054
:101610004D2F63E08C2F0E9487010EEE10E081C0F9
:101620002EE831E04D2F63E08C2F0E9487010EE8F9
:1016300011E077C02EE730E04D2F63E08C2F0E9441
:1016400087010EE710E06DC02EE531E04D2F63E01D
:101650008C2F0E9487010EE511E063C02EE631E079
:101660004D2F63E08C2F0E9487010EE611E059C0D8
:1016700026E930E04D2F63E08C2F0E94870106E9B8
:1016800010E04FC02EEF30E04D2F63E08C2F0E9412
:1016900087010EEF10E045C026EA30E04D2F63E0F1
:1016A0008C2F0E94870106EA10E03BC02EE931E052
:1016B0004D2F63E08C2F0E9487010EE911E031C0AD
:1016C0002EE331E04D2F63E08C2F0E9487010EE363
:1016D00011E027C02EEB30E04D2F63E08C2F0E94ED
:1016E00087010EEB10E01DC02EED30E04D2F63E0C2
:1016F0008C2F0E9487010EED10E013C02EE231E026
:101700004D2F63E08C2F0E9487010EE211E009C08B
:101710002EE431E04D2F63E08C2F0E9487010EE410
:1017200011E02D2F4091630063E08C2F0E941F0673
:10173000B8018D2F0E943609F81630F4C09361006D
:1017400093E090936000F82ED3FEABC0E3948E2D0F
:1017500090E0FC013197EE30F10508F086C0EC5ABC
:10176000FF4F0C94D9102EEE30E04D2F64E08C2FFB
:101770000E9487010EEE10E081C02EE831E04D2F6F
:1017800064E08C2F0E9487010EE811E077C02EE7FD
:1017900030E04D2F64E08C2F0E9487010EE710E0AF
:1017A0006DC02EE531E04D2F64E08C2F0E94870143
:1017B0000EE511E063C02EE631E04D2F64E08C2F82
:1017C0000E9487010EE611E059C026E930E04D2F56
:1017D00064E08C2F0E94870106E910E04FC02EEFD5
:1017E00030E04D2F64E08C2F0E9487010EEF10E057
:1017F00045C026EA30E04D2F64E08C2F0E9487011F
:1018000006EA10E03BC02EE931E04D2F64E08C2F5A
:101810000E9487010EE911E031C02EE331E04D2F27
:1018200064E08C2F0E9487010EE311E027C02EEBAD
:1018300030E04D2F64E08C2F0E9487010EEB10E00A
:101840001DC02EED30E04D2F64E08C2F0E948701EB
:101850000EED10E013C02EE231E04D2F64E08C2F2E
:101860000E9487010EE211E009C02EE431E04D2F05
:1018700064E08C2F0E9487010EE411E02D2F40912F
:10188000630064E08C2F0E941F06B8018D2F0E9418
:101890003609F81630F4C093610094E0909360002C
:1018A000F82ED4FEABC0E3948E2D90E0FC0131976E
:1018B000EE30F10508F086C0EE59FF4F0C94D910B8
:1018C0002EEE30E04D2F65E08C2F0E9487010EEE4A
:1018D00010E081C02EE831E04D2F65E08C2F0E9492
:1018E00087010EE811E077C02EE730E04D2F65E06C
:1018F0008C2F0E9487010EE710E06DC02EE531E0CD
:101900004D2F65E08C2F0E9487010EE511E063C02A
:101910002EE631E04D2F65E08C2F0E9487010EE608
:1019200011E059C026E930E04D2F65E08C2F0E9470
:10193000870106E910E04FC02EEF30E04D2F65E043
:101940008C2F0E9487010EEF10E045C026EA30E0A0
:101950004D2F65E08C2F0E94870106EA10E03BC006
:101960002EE931E04D2F65E08C2F0E9487010EE9B2
:1019700011E031C02EE331E04D2F65E08C2F0E9445
:1019800087010EE311E027C02EEB30E04D2F65E01C
:101990008C2F0E9487010EEB10E01DC02EED30E071
:1019A0004D2F65E08C2F0E9487010EED10E013C0D3
:1019B0002EE231E04D2F65E08C2F0E9487010EE270
:1019C00011E009C02EE431E04D2F65E08C2F0E941C
:1019D00087010EE411E02D2F4091630065E08C2F0C
:1019E0000E941F06B8018D2F0E943609F81630F4A8
:1019F000C093610095E090936000F82ED5FEABC0D7
:101A0000E3948E2D90E0FC013197EE30F10508F063
:101A100086C0E059FF4F0C94D9102EEE30E04D2FC8
:101A200066E08C2F0E9487010EEE10E081C02EE848
:101A300031E04D2F66E08C2F0E9487010EE811E007
:101A400077C02EE730E04D2F66E08C2F0E94870193
:101A50000EE710E06DC02EE531E04D2F66E08C2FD3
:101A60000E9487010EE511E063C02EE631E04D2FA4
:101A700066E08C2F0E9487010EE611E059C026E92E
:101A800030E04D2F66E08C2F0E94870106E910E0C0
:101A90004FC02EEF30E04D2F66E08C2F0E94870163
:101AA0000EEF10E045C026EA30E04D2F66E08C2FA7
:101AB0000E94870106EA10E03BC02EE931E04D2F7D
:101AC00066E08C2F0E9487010EE911E031C02EE301
:101AD00031E04D2F66E08C2F0E9487010EE311E06C
:101AE00027C02EEB30E04D2F66E08C2F0E9487013F
:101AF0000EEB10E01DC02EED30E04D2F66E08C2F78
:101B00000E9487010EED10E013C02EE231E04D2F50
:101B100066E08C2F0E9487010EE211E009C02EE4DE
:101B200031E04D2F66E08C2F0E9487010EE411E01A
:101B30002D2F4091630066E08C2F0E941F06B80194
:101B40008D2F0E943609F81630F4C093610096E09C
:101B500090936000F82ED6FEABC0E3948E2D90E0FB
:101B6000FC013197EE30F10508F086C0E258FF4FD6
:101B70000C94D9102EEE30E04D2F67E08C2F0E9490
:101B800087010EEE10E081C02EE831E04D2F67E0B6
:101B90008C2F0E9487010EE811E077C02EE730E01D
:101BA0004D2F67E08C2F0E9487010EE710E06DC07B
:101BB0002EE531E04D2F67E08C2F0E9487010EE566
:101BC00011E063C02EE631E04D2F67E08C2F0E94BC
:101BD00087010EE611E059C026E930E04D2F67E09D
:101BE0008C2F0E94870106E910E04FC02EEF30E0F5
:101BF0004D2F67E08C2F0E9487010EEF10E045C04B
:101C000026EA30E04D2F67E08C2F0E94870106EA1C
:101C100010E03BC02EE931E04D2F67E08C2F0E9491
:101C200087010EE911E031C02EE331E04D2F67E06E
:101C30008C2F0E9487010EE311E027C02EEB30E0CD
:101C40004D2F67E08C2F0E9487010EEB10E01DC026
:101C50002EED30E04D2F67E08C2F0E9487010EEDB6
:101C600010E013C02EE231E04D2F67E08C2F0E9470
:101C700087010EE211E009C02EE431E04D2F67E04C
:101C80008C2F0E9487010EE411E02D2F40916300FC
:101C900067E08C2F0E941F06B8018D2F0E94360925
:101CA000F81630F4C093610097E090936000F82E2E
:101CB000D7FEABC0E3948E2D90E0FC013197EE305F
:101CC000F10508F086C0E457FF4F0C94D9102EEEB2
:101CD00030E04D2F68E08C2F0E9487010EEE10E05F
:101CE00081C02EE831E04D2F68E08C2F0E948701E3
:101CF0000EE811E077C02EE730E04D2F68E08C2F22
:101D00000E9487010EE710E06DC02EE531E04D2FF7
:101D100068E08C2F0E9487010EE511E063C02EE67B
:101D200031E04D2F68E08C2F0E9487010EE611E014
:101D300059C026E930E04D2F68E08C2F0E948701C2
:101D400006E910E04FC02EEF30E04D2F68E08C2FF9
:101D50000E9487010EEF10E045C026EA30E04D2FCB
:101D600068E08C2F0E94870106EA10E03BC02EE954
:101D700031E04D2F68E08C2F0E9487010EE911E0C1
:101D800031C02EE331E04D2F68E08C2F0E94870197
:101D90000EE311E027C02EEB30E04D2F68E08C2FD2
:101DA0000E9487010EEB10E01DC02EED30E04D2F9C
:101DB00068E08C2F0E9487010EED10E013C02EE228
:101DC00031E04D2F68E08C2F0E9487010EE211E078
:101DD00009C02EE431E04D2F68E08C2F0E9487016E
:101DE0000EE411E02D2F4091630068E08C2F0E94DB
:101DF0001F06B8018D2F0E943609F81630F4C093E3
:101E0000610098E090936000F82ECF5FC93409F02C
:101E100073CADF91CF911F910F91FF90EF90DF90E8
:101E2000CF90BF90AF900895EF92FF920F931F93C2
:101E3000CF93DF93EC01FC0101900020E9F731978B
:101E4000CF018C1B9D0B8230910541F48881813438
:101E5000B1F58981843509F064C12CC083309105C6
:101E600051F48881823509F05CC18981833509F09C
:101E700058C18A81EFCF8430910509F084C08881F0
:101E8000833509F04EC18981803509F050C08A81BF
:101E9000803209F04CC08B81823439F0873509F0EB
:101EA00046C08093630082E403C08093630087E5AB
:101EB000809362008FE40E9405018BE436C18E346A
:101EC00039F48981873409F02CC10E941D08A8C00B
:101ED000853409F048C08981873409F022C18EB564
:101EE0008B7F8EBD1DBC1CBC9091780080916400DE
:101EF000891748F489E40E94050184E50E940501E0
:101F00008DE00E940501109278000E943D08811129
:101F100004C00E945A08882309F180E50E94050147
:101F20008CE40E9405018DE00E940501EDC08981CD
:101F3000843509F0F6C08A81803209F0F2C08B81C5
:101F40000E944D018150893008F0EBC08EB58B7F27
:101F50008EBD8B810E944D01809364008FE40E94AE
:101F600005018BE4DECF8F3409F05FC089818B34AB
:101F700009F0D7C00E943D0881119EC080E50E94F3
:101F8000050183E5CECF059709F0CBC088818D345C
:101F900009F0C7C08981863509F0C3C08A818032C3
:101FA00009F0BFC08B818154883008F0BAC08C81A1
:101FB0008153883008F0B5C08EB58B7F8EBD1DBCB7
:101FC0001CBC9091780080916400891708F0B8C01B
:101FD000C298109278008C810E944D01082F1B81BD
:101FE000682F812F0E94DA01813009F042C02EEC67
:101FF00030E040916300602F812F0E948701E090C4
:102000006300F09062008C810E944D010EEC10E0A4
:102010002E2D4F2D682F8B810E941F060E940E08C7
:10202000809162000E94720545CF803509F073C02F
:102030008981833509F06CC08EB58B7F8EBD1DBC48
:102040001CBC9091780080916400891710F4C298AC
:1020500001C0C59A109278008FE40E9405018BE4BC
:102060000E9405018DE00E9405010E945A08882304
:1020700011F089E457C00E943D08811117C085E422
:102080000E94050187E40E9405018DE00E94050180
:1020900040917C0060917D0080916200DF91CF9142
:1020A0001F910F91FF90EF900C9477080E940E08FB
:1020B000809162000E9472050E94940880916200E3
:1020C0000E946A092EEC30E040916200609160004D
:1020D000809161000E9487010EEC10E02091620067
:1020E0004091630060916000809161000E941F0632
:1020F0000E940E08809162000E947205609160004B
:10210000809161000E9467018EB584608EBD1AC007
:102110008C3439F417C0873521F489818E3409F461
:10212000C9CE80E50E9405018CE40E9405018DE086
:10213000DF91CF911F910F91FF90EF900C940501CB
:10214000C59A47CFDF91CF911F910F91FF90EF90EC
:1021500008951F920F920FB60F9211242F933F9361
:102160004F935F936F937F938F939F93AF93BF939F
:10217000EF93FF938CB18D3019F00E94230108C0BA
:102180008EE791E00E9458018EE791E00E94140FC3
:10219000FF91EF91BF91AF919F918F917F916F913F
:1021A0005F914F913F912F910F900FBE0F901F9015
:1021B0001895EE0FFF1F0590F491E02D0994F89407
:0221C000FFCF4F
:1021C20001412020023031323334353637380001B4
:0821D2000203040506070800E2
:00000001FF
