S014000050726F6A656374335F73696D2E737265635E
S11300000C946B000C9488000C9488000C94880069
S11300100C9488000C9488000C9488000C9488003C
S11300200C9488000C9488000C9488000C9488002C
S11300300C9488000C9488000C9488000C9488001C
S11300400C9488000C9488000C9488000C9488000C
S11300500C948800E60806092609460966098609FB
S1130060A609C609110A310A510A710A8F0AAD0A92
S1130070CB0AE90A360B540B720B900BAE0BCC0B6C
S1130080EA0B080C5A0C780C960CB40CD20CF00C3D
S11300900E0D2C0D7E0D9C0DBA0DD80DF60D140E03
S11300A0320E500EA20EC00EDE0EFC0E1A0F380FCA
S11300B0560F740FC60FE40F021020103E105C1090
S11300C07A109810B9100711251146116811891179
S11300D0AB11CD11EF1111241FBECFE5D4E0DEBF6B
S11300E0CDBF10E0A0E6B0E0E2E5F9E202C0059081
S11300F00D92A436B107D9F721E0A4E6B0E001C01F
S11301001D92A631B207E1F70E9447140C94A7147C
S11301100C9400008154880F653010F4615002C0C3
S11301208F5F6550F901E80FF11D2081423499F485
S113013084E0860F41E050E0DA0102C0AA0FBB1F41
S11301408A95E2F7CD01822B02C0440F551F6A95B0
S1130150E2F7842B12C081E090E0AC01062E02C0CD
S1130160440F551F0A94E2F76C5F02C0880F991F71
S11301706A95E2F740954223842B80830895815445
S1130180880F653010F4615002C08F5F6550FA012A
S1130190E80FF11D808190E024E0260FAC0102C03D
S11301A0559547952A95E2F740FF09C002C09595F9
S11301B087956A95E2F780FD04C087E5089585E494
S11301C0089582E408958154E82FF0E0615081E0BD
S11301D090E002C0880F991F6A95E2F7E256FF4F3C
S11301E09081892B808308958154E82FF0E0615039
S11301F081E090E002C0880F991F6A95E2F7EA58FF
S1130200FF4F9081892B808308957F928F929F92D4
S1130210AF92BF92CF92DF92EF92FF920F931F9310
S1130220CF93DF93C82FD62FC42ED22E82E4481347
S1130230C4C101E0060F093040F027C0823409F43C
S113024078C31F5F193011F420C0102F46EA50E024
S1130250612F8C2F0E94BF00853481F716C01FEFD9
S11302601D0F46EA50E0612F8C2F0E94BF00853499
S113027061F492E4D91205C0612F8C2F0E94E3002F
S113028004C0612F8C2F0E94F400CC24CA94CD0E9C
S113029081E08C1540F025C0823409F452C311501A
S11302A0113011F41EC01C2D46EA50E0612F8C2F32
S11302B00E94BF00853481F714C046EA50E0602FE5
S11302C08C2F0E94BF00853461F492E4D91205C0DA
S11302D0602F8C2F0E94E30004C0602F8C2F0E949B
S11302E0F400BB24BA94BC0E80E48B1540F038C3F0
S11302F0823409F42DC31150103411F420C01B2D85
S113030046EA50E06D2F812F0E94BF00853481F7AB
S113031016C011E01C0F46EA50E06D2F812F0E9499
S1130320BF00853461F492E4D91205C06D2F812F8A
S11303300E94E30004C06D2F812F0E94F40011E09D
S11303401C0F193448F021C0823409F40FC3F3940C
S113035089E4F81202C019C0F12E46EA50E06D2F6C
S11303608F2D0E94BF00853479F70FC046EA50E014
S11303706D2F8B2D0E94BF00853439F492E4D9127D
S11303800BC06D2F8B2D0E94E30080E48B1508F0C9
S113039043C0093098F040C06D2F8B2D0E94F400AB
S11303A0F4CFA92C823409F0A82CFA94E39490E4B5
S11303B0F916A1F089E0E81207C010C0E02EFB2C6A
S11303C0A12C99249394812C46EA50E06E2D8F2D14
S11303D00E94BF00853411F0AA2019F391E0A912FC
S11303E01BC08C2F90E0019689349105ACF48D2FBD
S11303F090E00197181619067CF446EA50E06C2D3B
S1130400812F0E94BF00853439F482E4D8120AC0D7
S11304106C2D812F0E94E300193408F0AFC2C11083
S113042010C080C06C2D812F0E94F400F5CFF3948E
S1130430EA9499E4F91681F0EE2071F0823419F40B
S11304400BC0EC2CF12E46EA50E06E2D8F2D0E944D
S1130450BF00853461F721C0823409F094C28C2F27
S113046090E00197813491050CF48DC28D2F90E0BA
S1130470019609970CF087C246EA50E0602F8B2D55
S11304800E94BF00853409F07EC282E4D8120CC0F9
S1130490602F8B2D0E94E30076C290E49B1508F038
S11304A041C0C11012C03EC0602F8B2D0E94F400C9
S11304B06AC2A92C823409F0A82CFA94EA9480E444
S11304C0F81699F0E11007C010C0EC2CFB2CA12CFD
S11304D099249394812C46EA50E06E2D8F2D0E942E
S11304E0BF00853411F0AA2021F391E0A9121AC0AB
S11304F08C2F90E0019689349105A4F48D2F90E01F
S1130500019609977CF446EA50E0602F812F0E94FF
S1130510BF00853439F482E4D8120AC0602F812FD9
S11305200E94E300193408F061C2093088F05EC209
S1130530602F812F0E94F400F5CFFE2C823409F045
S1130540FA2C1F5F0F5F193489F0093029F40EC0AB
S1130550F12CEE24E394A12C46EA50E0602F812F85
S11305600E94BF00853411F0FF2039F391E0F912A5
S11305703DC28C2F90E00197813491050CF436C272
S11305808D2F90E00197181619060CF02FC246EA39
S113059050E06C2D8B2D0E94BF00853409F026C2DB
S11305A082E4D81205C06C2D8B2D0E94E3001EC27C
S11305B06C2D8B2D0E94F40019C201E0060F093046
S11305C040F026C0873509F4E3C11F5F193011F4E8
S11305D01FC0102F46EA50E0612F8C2F0E94BF00ED
S11305E0853481F715C01FEF1D0F46EA50E0612FD7
S11305F08C2F0E94BF00853459F4CD1005C0612FA3
S11306008C2F0E94E30004C0612F8C2F0E94F40001
S1130610BB24BA94BD0E91E09B1540F024C08735ED
S113062009F4BEC11150113011F41DC01B2D46EA4E
S113063050E0612F8C2F0E94BF00853481F713C0D6
S113064046EA50E0602F8C2F0E94BF00853459F495
S1130650CD1005C0602F8C2F0E94E30004C0602FD2
S11306608C2F0E94F400AA24AA94AC0E80E48A156C
S113067040F0A5C1873509F49AC11150103411F422
S11306801FC01A2D46EA50E06D2F812F0E94BF0033
S1130690853481F715C011E01C0F46EA50E06D2F38
S11306A0812F0E94BF00853459F4CD1005C06D2FF1
S11306B0812F0E94E30004C06D2F812F0E94F4005B
S11306C011E01C0F193448F020C0873509F47DC1AE
S11306D0F39499E4F91202C018C0F12E46EA50E0EE
S11306E06D2F8F2D0E94BF00853479F70EC046EA26
S11306F050E06D2F8A2D0E94BF00853431F4CD1057
S11307000BC06D2F8A2D0E94E30080E48A1508F047
S113071042C0093098F03FC06D2F8A2D0E94F4002A
S1130720F4CF982C873509F0972CFA94E39490E44D
S1130730F916A1F089E0E81207C010C0E02EFA2CE7
S1130740912C88248394712C46EA50E06E2D8F2DD1
S11307500E94BF00853411F0992019F391E0991299
S11307601AC08C2F90E0019689349105A4F48D2F42
S113077090E001971816190674F446EA50E06B2DC0
S1130780812F0E94BF00853431F4CD100AC06B2D37
S1130790812F0E94E300193408F024C1B11010C065
S11307A07EC06B2D812F0E94F400F5CFF394EA9460
S11307B099E4F91681F0EE2071F0873519F40BC035
S11307C0EB2CF12E46EA50E06E2D8F2D0E94BF00D7
S11307D0853461F720C0873509F0FFC08C2F90E085
S11307E00197813491050CF4F8C08D2F90E00196A7
S11307F009970CF0F2C046EA50E0602F8A2D0E945F
S1130800BF00853409F0E9C0CD100CC0602F8A2DDB
S11308100E94E300E2C080E48A1508F040C0B110F1
S113082012C03DC0602F8A2D0E94F400D6C0982CBF
S1130830873509F0972CFA94EA9490E4F91699F024
S1130840E11007C010C0EB2CFA2C912C882483945F
S1130850712C46EA50E06E2D8F2D0E94BF00853426
S113086011F0992021F381E0981219C08C2F90E0A7
S11308700196893491059CF48D2F90E00196099797
S113088074F446EA50E0602F812F0E94BF00853443
S113089031F4CD100AC0602F812F0E94E300193477
S11308A008F0A4C0093088F0A1C0602F812F0E94F5
S11308B0F400F5CFFE2C873509F0F92C1F5F0F5F8C
S11308C0193489F0093029F40EC0F12CEE24E39494
S11308D0912C46EA50E0602F812F0E94BF0085349E
S11308E011F0FF2039F391E0F91280C08C2F90E0D1
S11308F00197813491050CF479C08D2F90E0019714
S1130900181619060CF072C046EA50E06B2D8A2DB9
S11309100E94BF00853409F069C0CD1005C06B2D5D
S11309208A2D0E94E30062C06B2D8A2D0E94F40080
S11309305DC08D2F90E00197181619060CF48FCC2A
S1130940A4CC8D2F90E0019609970CF4B6CCC9CCB9
S11309508C2F90E00196893491050CF4DACCEFCC1D
S113096011E01C0F193408F4F7CC56CD8C2F90E00D
S11309700197813491050CF0F9CC07CD80E48B15F7
S113098008F48FCD33C090E49B1508F49ECDCACDF6
S11309908D2F90E00197181619060CF424CE38CE4A
S11309A08D2F90E0019609970CF44ACE5CCE8C2FE3
S11309B090E00196893491050CF46DCE81CE11E05E
S11309C01C0F193408F489CEE6CE8C2F90E00197E1
S11309D0813491050CF08BCE98CE80E48A1508F40E
S11309E032CF5DCF90E49A1508F419CFDF91CF91FF
S11309F01F910F91FF90EF90DF90CF90BF90AF9039
S1130A009F908F907F9008955F926F927F928F92C4
S1130A109F92AF92BF92CF92DF92EF92FF920F9389
S1130A201F93CF93DF93082F0F2EF6EAEF2EF0E0FB
S1130A30FF2EF02D10E0552453940F2EF5E06F2E69
S1130A40F02D6894772471F80F2EF6E08F2EF02D98
S1130A500F2EF3E09F2EF02D0F2EF7E0AF2EF02D8A
S1130A606894BB24B2F86894CC24C3F8C12FC6950B
S1130A70CF5BF701D1917F01D4FF24C010FF02C0E6
S1130A80D62C01C0D52C46EA50E06D2D8C2F0E9447
S1130A90BF00873561F4809164008F5F80936400A8
S1130AA0202F42E46D2D8C2F0E9405010BC08091F4
S1130AB065008F5F80936500202F47E56D2D8C2F97
S1130AC00E940501D5FF24C010FF02C0D82C01C02C
S1130AD0D72C46EA50E06D2D8C2F0E94BF0087353D
S1130AE061F4809164008F5F80936400202F42E45E
S1130AF06D2D8C2F0E9405010BC0809165008F5FC6
S1130B0080936500202F47E56D2D8C2F0E940501F1
S1130B10D6FF24C010FF02C0DA2C01C0D92C46EA4B
S1130B2050E06D2D8C2F0E94BF00873561F48091B9
S1130B3064008F5F80936400202F42E46D2D8C2F1E
S1130B400E9405010BC0809165008F5F8093650052
S1130B50202F47E56D2D8C2F0E940501DD2324F500
S1130B6010FF02C0DC2D01C0DB2D46EA50E06D2FE2
S1130B708C2F0E94BF00873561F4809164008F5FE1
S1130B8080936400202F42E46D2F8C2F0E94050176
S1130B900BC0809165008F5F80936500202F47E52F
S1130BA06D2F8C2F0E9405011F5F103109F05ECF5D
S1130BB0DF91CF911F910F91FF90EF90DF90CF9035
S1130BC0BF90AF909F908F907F906F905F900895AB
S1130BD08154E82FF0E0EA58FF4F208130E0615063
S1130BE002C0359527956A95E2F781E020FF80E001
S1130BF008957F928F929F92AF92BF92CF92DF928D
S1130C00EF92FF920F931F93CF93DF93F82EE62E6C
S1130C10C42FD22ECC24C394C60E88E08C1598F42D
S1130C2031C08D2F90E0019609974CF4A80161E042
S1130C306D0F8F2D0E94BF00BA2C8D11B92CDF5F70
S1130C40D93031F41FC0DC2DB12CAA24A394912CEB
S1130C50A8016D2F8F2D0E94BF008C1302C0BB20F2
S1130C6001F381E0B8120EC0D93060F4CD1650F40F
S1130C70BC2C98014D2D6B2D8F2D0E948A00B394AE
S1130C80BD16B8F3BB24BA94BE0C99F435C08D2FAD
S1130C9090E00197181619064CF4A8016FEF6D0F38
S1130CA08F2D0E94BF00A92CD812A82CD15031F44A
S1130CB00EC0DB2DA12C99249394812CA8016D2FB7
S1130CC08F2D0E94BF00C81302C0AA2001F381E047
S1130CD0A81212C08E2D90E001971816190664F41C
S1130CE0DB1550F4AB2C98014D2D6A2D8F2D0E94ED
S1130CF08A00AA94DA15B8F3AA24AA94AF0C80E463
S1130D008A15A0F0A7C18D2F90E001978134910539
S1130D104CF0A8016E2D8FEF8D0F0E94BF00982C10
S1130D20D812972CD150D03431F40EC0DA2D912C36
S1130D3088248394712CA8016E2D8D2F0E94BF00EE
S1130D40C81302C09920F9F281E098120EC0D13480
S1130D5060F0DA1550F49A2C98014D2D6E2D892DE2
S1130D600E948A009A94D915B8F3F39488E48F15F5
S1130D70A0F428C08D2F90E00196893491054CF49D
S1130D80A8016E2D81E08D0F0E94BF00982CD8120F
S1130D90972CDF5FD93431F40EC0DF2D912C8824D9
S1130DA08394712CA8016E2D8D2F0E94BF00C8134F
S1130DB002C09920F9F281E0981204C0D93410F4E9
S1130DC0FD1640F080E48A1508F040C088E08C15D8
S1130DD048F53CC09F2C98014D2D6E2D892D0E9405
S1130DE08A0093949D16B8F3EDCF8D2F90E0019770
S1130DF0813491057CF08E2D90E00196099754F48E
S1130E00A80161E06E0D8FEF8D0F0E94BF00D81214
S1130E1001C0982CD150E394D034A1F089E0E812B9
S1130E2006C003C1EC2CDA2D912C88248394A801EC
S1130E306E2D8D2F0E94BF00C81304C081E098124C
S1130E40D4CF0EC181E0981609F40AC188E48F1545
S1130E5008F413C1B1102DC08CC0DA15B8F7EA2C10
S1130E609C2C98014D2D692D8E2D0E948A009394FF
S1130E70EA94DE15B0F3EACF8D2F90E00196893421
S1130E80910584F48E2D90E001971816190654F4F8
S1130E90A8016FEF6E0D81E08D0F0E94BF00D81284
S1130EA001C0982CDF5FEA94D93499F0E11006C0B0
S1130EB0C0C0EB2CDF2D912C88248394A8016E2DC7
S1130EC08D2F0E94BF00C81304C081E09812D4CFB4
S1130ED0CBC081E09812CCC0C7C080E48A1508F06A
S1130EE048C0B11031C045C0FD1608F0A6C0EF2CB3
S1130EF09B2C98014D2D692D8E2D0E948A009A9469
S1130F00E394ED1608F099C09110F3CF96C08D2F9D
S1130F1090E001978134910584F08E2D90E0019743
S1130F201816190654F4A8016FEF6E0D8FEF8D0F8C
S1130F300E94BF00D81201C0982CD150EA94D13439
S1130F4098F0E11006C07EC0EB2CDA2D912C882499
S1130F508394A8016E2D8D2F0E94BF00C81304C076
S1130F6081E09812D4CF03C081E0981202C0D1343A
S1130F7040F488E48F1508F488C088E08C1580F567
S1130F8084C0BB20B1F3DA15A0F798014D2D6B2D69
S1130F908A2D0E948A00BA94AA94DA1550F7B110E7
S1130FA0F4CFE7CF8D2F90E00196893491057CF43E
S1130FB08E2D90E00196099754F4A80161E06E0D1E
S1130FC081E08D0F0E94BF00D81201C0BA2CDF5FF0
S1130FD0E394D93409F459C089E0E81206C036C054
S1130FE0EC2CDF2DB12CAA24A394A8016E2D8D2FF7
S1130FF00E94BF00C81304C081E0B812D3CF42C01E
S113100081E0B81242C03EC0FD1608F03EC098010F
S11310104D2D6C2D8F2D0E948A00C394F394FD16E0
S1131020A0F589E0C812F3CF30C081E098120ECF4A
S113103014CF81E098121CC057CF80E48A1508F4BD
S113104083CF97CF81E0981294CF9BCF81E0B812E1
S11310501CC0DACFF39488E48F1508F09ECEF6CE48
S1131060D13408F4F3CEF9CED93408F036CF3CCFDE
S113107080E48A1508F468CF7CCF80E48A1508F4EC
S113108030CF03C0D93408F4BFCFDF91CF911F9183
S11310900F91FF90EF90DF90CF90BF90AF909F9013
S11310A08F907F9008951092650010926400EEE98D
S11310B0F0E0A6E7B0E086EA90E011921D92E8170E
S11310C0F907D9F70895E6EAF0E086EB90E011928B
S11310D0E817F907E1F70E94530826EA30E047E5EC
S11310E064E084E40E948A0026EA30E042E465E099
S11310F084E40E948A0026EA30E042E464E085E465
S11311000E948A0026EA30E047E565E085E40E9413
S11311108A000895FB019B01205F3F4F40E09191BD
S113112094FF09C090FF04C0823429F44F5F03C0C8
S1131130873509F44F5F95FF09C091FF04C08234DD
S113114029F44F5F03C0873509F44F5F96FF09C048
S113115092FF04C0823429F44F5F03C0873509F439
S11311604F5F99234CF493FF04C0823429F44F5FFA
S113117003C0873509F44F5FE217F30781F6842F24
S11311800895AF92BF92DF92EF92FF920F931F9355
S1131190CF93DF93F82E0F2EFEE9AF2EF0E0BF2E93
S11311A0F02DD1E4D12CE12CF501C1915F01C0FFF8
S11311B029C1E3948E2D90E0FC013197E830F105CC
S11311C008F004C1E65DFF4F0C94A11426EB30E057
S11311D04F2D61E08D2F0E948A0006EB10E02F2D29
S11311E04091620061E08D2F0E94F905B8018F2DB6
S11311F00E948A08D81610F00C945912D0936100FA
S113120091E090936000D82E0C94591226E031E0BE
S11312104F2D61E08D2F0E948A0006E011E02F2DF2
S11312204091620061E08D2F0E94F905B8018F2D75
S11312300E948A08D81610F00C946012D0936100B2
S113124091E090936000D82E0C94601226E630E072
S11312504F2D61E08D2F0E948A0006E610E02F2DAD
S11312604091620061E08D2F0E94F905B8018F2D35
S11312700E948A08D81610F00C946412D09361006E
S113128091E090936000D82E0C94641226EE30E026
S11312904F2D61E08D2F0E948A0006EE10E02F2D65
S11312A04091620061E08D2F0E94F905B8018F2DF5
S11312B00E948A08D81610F00C946712D09361002B
S11312C091E090936000D82E0C94671226EF30E0E2
S11312D04F2D61E08D2F0E948A0006EF10E02F2D24
S11312E04091620061E08D2F0E94F905B8018F2DB5
S11312F00E948A08D81610F00C946A12D0936100E8
S113130091E090936000D82E0C946A122EE730E09E
S11313104F2D61E08D2F0E948A000EE710E02F2DE3
S11313204091620061E08D2F0E94F905B8018F2D74
S11313300E948A08D81610F00C946D12D0936100A4
S113134091E090936000D82E0C946D1226EC30E05E
S11313504F2D61E08D2F0E948A0006EC10E02F2DA6
S11313604091620061E08D2F0E94F905B8018F2D34
S11313700E948A08D81610F00C945612D09361007B
S113138091E090936000D82E0C9456122EE830E031
S11313904F2D61E08D2F0E948A000EE810E02F2D62
S11313A04091620061E08D2F0E94F905B8018F2DF4
S11313B00E948A08D81610F00C945D12D093610034
S11313C091E090936000D82E0C945D1226ED30E0ED
S11313D04F2D61E08D2F0E948A0006ED10E02F2D25
S11313E04091620061E08D2F0E94F905B8018F2DB4
S11313F00E948A08D81630F4D093610091E090934B
S11314006000D82EC1FF23C1E3948E2D90E0FC012F
S11314103197E830F10508F0FEC0EE5CFF4F0C9404
S1131420A11426EB30E04F2D62E08D2F0E948A003C
S113143006EB10E02F2D4091620062E08D2F0E9498
S1131440F905B8018F2D0E948A08D81610F00C9463
S11314507C12D093610092E090936000D82E0C949B
S11314607C1226E031E04F2D62E08D2F0E948A002D
S113147006E011E02F2D4091620062E08D2F0E9462
S1131480F905B8018F2D0E948A08D81610F00C9423
S11314908212D093610092E090936000D82E0C9455
S11314A0821226E630E04F2D62E08D2F0E948A00E2
S11314B006E610E02F2D4091620062E08D2F0E941D
S11314C0F905B8018F2D0E948A08D81610F00C94E3
S11314D08512D093610092E090936000D82E0C9412
S11314E0851226EE30E04F2D62E08D2F0E948A0097
S11314F006EE10E02F2D4091620062E08D2F0E94D5
S1131500F905B8018F2D0E948A08D81608F0E8C79B
S1131510D093610092E090936000D82EE1C726EF4B
S113152030E04F2D62E08D2F0E948A0006EF10E01C
S11315302F2D4091620062E08D2F0E94F905B801C1
S11315408F2D0E948A08D81608F0CDC7D093610069
S113155092E090936000D82EC6C72EE730E04F2D5E
S113156062E08D2F0E948A000EE710E02F2D40913B
S1131570620062E08D2F0E94F905B8018F2D0E9450
S11315808A08D81608F0B2C7D093610092E090930D
S11315906000D82EABC726EC30E04F2D62E08D2FD3
S11315A00E948A0006EC10E02F2D4091620062E058
S11315B08D2F0E94F905B8018F2D0E948A08D81634
S11315C008F097C7D093610092E090936000D82E02
S11315D090C72EE830E04F2D62E08D2F0E948A00E4
S11315E00EE810E02F2D4091620062E08D2F0E94E2
S11315F0F905B8018F2D0E948A08D81608F07FC714
S1131600D093610092E090936000D82E78C70F2E9B
S1131610F9E0EF2EF02D26ED30E04F2D62E08D2F16
S11316200E948A0006ED10E02F2D4091620062E0D6
S11316308D2F0E94F905B8018F2D0E948A08D816B3
S113164030F4D093610092E090936000D82EC2FFF2
S113165022C1E3948E2D90E0FC013197E830F1052E
S113166008F0FDC0E65CFF4F0C94A11426EB30E0BB
S11316704F2D63E08D2F0E948A0006EB10E02F2D82
S11316804091620063E08D2F0E94F905B8018F2D0F
S11316900E948A08D81608F03EC7D093610093E0F0
S11316A090936000D82E37C726E031E04F2D63E0D9
S11316B08D2F0E948A0006E011E02F2D40916200D8
S11316C063E08D2F0E94F905B8018F2D0E948A08CE
S11316D0D81608F026C7D093610093E09093600079
S11316E0D82E1FC726E630E04F2D63E08D2F0E94D1
S11316F08A0006E610E02F2D4091620063E08D2FF2
S11317000E94F905B8018F2D0E948A08D81608F0A6
S11317100BC7D093610093E090936000D82E04C768
S113172026EE30E04F2D63E08D2F0E948A0006EEF6
S113173010E02F2D4091620063E08D2F0E94F90587
S1131740B8018F2D0E948A08D81608F0F0C6D093ED
S1131750610093E090936000D82EE9C626EF30E054
S11317604F2D63E08D2F0E948A0006EF10E02F2D8D
S11317704091620063E08D2F0E94F905B8018F2D1E
S11317800E948A08D81608F0D5C6D093610093E069
S113179090936000D82ECEC62EE730E04F2D63E044
S11317A08D2F0E948A000EE710E02F2D40916200D9
S11317B063E08D2F0E94F905B8018F2D0E948A08DD
S11317C0D81608F0BAC6D093610093E090936000F5
S11317D0D82EB3C626EC30E04F2D63E08D2F0E9447
S11317E08A0006EC10E02F2D4091620063E08D2FFB
S11317F00E94F905B8018F2D0E948A08D81608F0B6
S113180087C6D093610093E090936000D82E80C681
S11318102EE830E04F2D63E08D2F0E948A000EE801
S113182010E02F2D4091620063E08D2F0E94F90596
S1131830B8018F2D0E948A08D81608F06FC6D0937D
S1131840610093E090936000D82E68C60F2EF9E0F3
S1131850EF2EF02D04C00F2EF9E0EF2EF02D26ED23
S113186030E04F2D63E08D2F0E948A0006ED10E0DA
S11318702F2D4091620063E08D2F0E94F905B8017D
S11318808F2D0E948A08D81630F4D093610093E01B
S113189090936000D82EC3FF22C1E3948E2D90E074
S11318A0FC013197E830F10508F0FDC0EE5BFF4F15
S11318B00C94A11426EB30E04F2D64E08D2F0E9490
S11318C08A0006EB10E02F2D4091620064E08D2F1A
S11318D00E94F905B8018F2D0E948A08D81608F0D5
S11318E03EC6D093610094E090936000D82E37C632
S11318F026E031E04F2D64E08D2F0E948A0006E03F
S113190011E02F2D4091620064E08D2F0E94F905B3
S1131910B8018F2D0E948A08D81608F026C6D093E5
S1131920610094E090936000D82E1FC626E630E054
S11319304F2D64E08D2F0E948A0006E610E02F2DC3
S11319404091620064E08D2F0E94F905B8018F2D4B
S11319500E948A08D81608F0F3C5D093610094E079
S113196090936000D82EECC526EE30E04F2D64E055
S11319708D2F0E948A0006EE10E02F2D4091620008
S113198064E08D2F0E94F905B8018F2D0E948A080A
S1131990D81608F0D8C5D093610094E09093600005
S11319A0D82ED1C526EF30E04F2D64E08D2F0E9454
S11319B08A0006EF10E02F2D4091620064E08D2F25
S11319C00E94F905B8018F2D0E948A08D81608F0E4
S11319D0BDC5D093610094E090936000D82EB6C545
S11319E02EE730E04F2D64E08D2F0E948A000EE731
S11319F010E02F2D4091620064E08D2F0E94F905C4
S1131A00B8018F2D0E948A08D81608F0A2C5D09379
S1131A10610094E090936000D82E9BC526EC30E0E2
S1131A204F2D64E08D2F0E948A0006EC10E02F2DCC
S1131A304091620064E08D2F0E94F905B8018F2D5A
S1131A400E948A08D81608F087C5D093610094E0F4
S1131A5090936000D82E80C52EE830E04F2D64E0CE
S1131A608D2F0E948A000EE810E02F2D4091620015
S1131A7064E08D2F0E94F905B8018F2D0E948A0819
S1131A80D81608F06FC5D093610094E0909360007D
S1131A90D82E68C50F2EF9E0EF2EF02D04C00F2EBE
S1131AA0F9E0EF2EF02D26ED30E04F2D64E08D2F80
S1131AB00E948A0006ED10E02F2D4091620064E040
S1131AC08D2F0E94F905B8018F2D0E948A08D8161F
S1131AD030F4D093610094E090936000D82EC4FF5A
S1131AE022C1E3948E2D90E0FC013197E830F1059A
S1131AF008F0FDC0E65BFF4F0C94A11426EB30E028
S1131B004F2D65E08D2F0E948A0006EB10E02F2DEB
S1131B104091620065E08D2F0E94F905B8018F2D78
S1131B200E948A08D81608F029C5D093610095E070
S1131B3090936000D82E22C526E031E04F2D65E059
S1131B408D2F0E948A0006E011E02F2D4091620043
S1131B5065E08D2F0E94F905B8018F2D0E948A0837
S1131B60D81608F011C5D093610095E090936000F9
S1131B70D82E0AC526E630E04F2D65E08D2F0E9451
S1131B808A0006E610E02F2D4091620065E08D2F5B
S1131B900E94F905B8018F2D0E948A08D81608F012
S1131BA0F6C4D093610095E090936000D82EEFC402
S1131BB026EE30E04F2D65E08D2F0E948A0006EE60
S1131BC010E02F2D4091620065E08D2F0E94F905F1
S1131BD0B8018F2D0E948A08D81608F0DBC4D09370
S1131BE0610095E090936000D82ED4C426EF30E0D5
S1131BF04F2D65E08D2F0E948A0006EF10E02F2DF7
S1131C004091620065E08D2F0E94F905B8018F2D87
S1131C100E948A08D81608F0C0C4D093610095E0E9
S1131C2090936000D82EB9C42EE730E04F2D65E0C4
S1131C308D2F0E948A000EE710E02F2D4091620044
S1131C4065E08D2F0E94F905B8018F2D0E948A0846
S1131C50D81608F08DC4D093610095E0909360008D
S1131C60D82E86C426EC30E04F2D65E08D2F0E94DF
S1131C708A0006EC10E02F2D4091620065E08D2F64
S1131C800E94F905B8018F2D0E948A08D81608F021
S1131C9072C4D093610095E090936000D82E6BC419
S1131CA02EE830E04F2D65E08D2F0E948A000EE86B
S1131CB010E02F2D4091620065E08D2F0E94F90500
S1131CC0B8018F2D0E948A08D81608F05AC4D09300
S1131CD0610095E090936000D82E53C40F2EF9E074
S1131CE0EF2EF02D04C00F2EF9E0EF2EF02D26ED8F
S1131CF030E04F2D65E08D2F0E948A0006ED10E044
S1131D002F2D4091620065E08D2F0E94F905B801E6
S1131D108F2D0E948A08D81630F4D093610095E084
S1131D2090936000D82EC5FF22C1E3948E2D90E0DD
S1131D30FC013197E830F10508F0FDC0EE5AFF4F81
S1131D400C94A11426EB30E04F2D66E08D2F0E94F9
S1131D508A0006EB10E02F2D4091620066E08D2F83
S1131D600E94F905B8018F2D0E948A08D81608F040
S1131D7026C4D093610096E090936000D82E1FC4CF
S1131D8026E031E04F2D66E08D2F0E948A0006E0A8
S1131D9011E02F2D4091620066E08D2F0E94F9051D
S1131DA0B8018F2D0E948A08D81608F00EC4D0936B
S1131DB0610096E090936000D82E07C426E630E0D8
S1131DC04F2D66E08D2F0E948A0006E610E02F2D2D
S1131DD04091620066E08D2F0E94F905B8018F2DB5
S1131DE00E948A08D81608F0DBC3D093610096E0FD
S1131DF090936000D82ED4C326EE30E04F2D66E0D9
S1131E008D2F0E948A0006EE10E02F2D4091620073
S1131E1066E08D2F0E94F905B8018F2D0E948A0873
S1131E20D81608F0C0C3D093610096E09093600088
S1131E30D82EB9C326EF30E04F2D66E08D2F0E94D7
S1131E408A0006EF10E02F2D4091620066E08D2F8E
S1131E500E94F905B8018F2D0E948A08D81608F04F
S1131E60A5C3D093610096E090936000D82E9EC3E2
S1131E702EE730E04F2D66E08D2F0E948A000EE79A
S1131E8010E02F2D4091620066E08D2F0E94F9052D
S1131E90B8018F2D0E948A08D81608F08AC3D093FF
S1131EA0610096E090936000D82E83C326EC30E066
S1131EB04F2D66E08D2F0E948A0006EC10E02F2D36
S1131EC04091620066E08D2F0E94F905B8018F2DC4
S1131ED00E948A08D81608F06FC3D093610096E078
S1131EE090936000D82E68C32EE830E04F2D66E052
S1131EF08D2F0E948A000EE810E02F2D4091620081
S1131F0066E08D2F0E94F905B8018F2D0E948A0882
S1131F10D81608F057C3D093610096E09093600000
S1131F20D82E50C30F2EF9E0EF2EF02D04C00F2E43
S1131F30F9E0EF2EF02D26ED30E04F2D66E08D2FE9
S1131F400E948A0006ED10E02F2D4091620066E0A9
S1131F508D2F0E94F905B8018F2D0E948A08D8168A
S1131F6030F4D093610096E090936000D82EC6FFC1
S1131F703EC1E3948E2D90E0FC013197E930F105E8
S1131F8008F019C1E65AFF4F0C94A11426EB30E077
S1131F904F2D67E08D2F0E948A0006EB10E02F2D55
S1131FA04091620067E08D2F0E94F905B8018F2DE2
S1131FB00E948A08D81608F023C3D093610097E0E2
S1131FC090936000D82E1CC326E031E04F2D67E0CB
S1131FD08D2F0E948A0006E011E02F2D40916200AF
S1131FE067E08D2F0E94F905B8018F2D0E948A08A1
S1131FF0D81608F017C3D093610097E0909360005F
S1132000D82E10C326E630E04F2D67E08D2F0E94B6
S11320108A0006E610E02F2D4091620067E08D2FC4
S11320200E94F905B8018F2D0E948A08D81608F07D
S113203000C3D093610097E090936000D82EF9C25A
S113204026EE30E04F2D67E08D2F0E948A0006EEC9
S113205010E02F2D4091620067E08D2F0E94F9055A
S1132060B8018F2D0E948A08D81608F0EAC2D093CE
S1132070610097E090936000D82EE3C226EF30E031
S11320804F2D67E08D2F0E948A0006EF10E02F2D60
S11320904091620067E08D2F0E94F905B8018F2DF1
S11320A00E948A08D81608F093C2D093610097E082
S11320B090936000D82E8CC22EE730E04F2D67E05D
S11320C08D2F0E948A000EE710E02F2D40916200B0
S11320D067E08D2F0E94F905B8018F2D0E948A08B0
S11320E0D81608F07DC2D093610097E09093600009
S11320F0D82E76C226EC30E04F2D67E08D2F0E945B
S11321008A0006EC10E02F2D4091620067E08D2FCD
S11321100E94F905B8018F2D0E948A08D81608F08C
S113212067C2D093610097E090936000D82E60C29C
S11321302EE830E04F2D67E08D2F0E948A000EE8D4
S113214010E02F2D4091620067E08D2F0E94F90569
S1132150B8018F2D0E948A08D81608F057C2D09370
S1132160610097E090936000D82E6894EE24E3F821
S113217055C226ED30E04F2D67E08D2F0E948A0076
S113218006ED10E02F2D4091620067E08D2F0E9434
S1132190F905B8018F2D0E948A08D81608F03AC2B2
S11321A0D093610097E090936000D82E0F2EF9E051
S11321B0EF2EF02D33C226ED30E04F2D67E08D2F4A
S11321C00E948A0006ED10E02F2D4091620067E026
S11321D08D2F0E94F905B8018F2D0E948A08D81608
S11321E030F4D093610097E090936000D82ECC2314
S11321F00CF056C1E3948E2D90E0FC013197E83049
S1132200F10508F011C1ED59FF4F0C94A11426EB10
S113221030E04F2D68E08D2F0E948A0006EB10E01D
S11322202F2D4091620068E08D2F0E94F905B801BE
S11322308F2D0E948A08D81608F032C1D09361000D
S113224098E090936000D82E2BC126E031E04F2D0A
S113225068E08D2F0E948A0006E011E02F2D409146
S1132260620068E08D2F0E94F905B8018F2D0E944D
S11322708A08D81608F0F5C0D093610098E09093CE
S11322806000D82E6894EE24E1F80AC126E630E016
S11322904F2D68E08D2F0E948A0006E610E02F2D56
S11322A04091620068E08D2F0E94F905B8018F2DDE
S11322B00E948A08D81608F0D8C0D093610098E02C
S11322C090936000D82E0F2EF3E0EF2EF02DE8C08F
S11322D026EE30E04F2D68E08D2F0E948A0006EE36
S11322E010E02F2D4091620068E08D2F0E94F905C7
S11322F0B8018F2D0E948A08D81608F0BBC0D0936D
S1132300610098E090936000D82E6894EE24E2F87F
S1132310C7C026EF30E04F2D68E08D2F0E948A0061
S113232006EF10E02F2D4091620068E08D2F0E948F
S1132330F905B8018F2D0E948A08D81608F09EC0AE
S1132340D093610098E090936000D82E0F2EF5E0B2
S1132350EF2EF02DA5C02EE730E04F2D68E08D2F35
S11323600E948A000EE710E02F2D4091620068E081
S11323708D2F0E94F905B8018F2D0E948A08D81666
S113238008F081C0D093610098E090936000D82E4B
S11323900F2EF6E0EF2EF02D83C026EC30E04F2D0B
S11323A068E08D2F0E948A0006EC10E02F2D4091EA
S11323B0620068E08D2F0E94F905B8018F2D0E94FC
S11323C08A08D81608F064C0D093610098E090930E
S11323D06000D82E0F2EF7E0EF2EF02D61C02EE80E
S11323E030E04F2D68E08D2F0E948A000EE810E047
S11323F02F2D4091620068E08D2F0E94F905B801ED
S11324008F2D0E948A08D81608F047C0D093610027
S113241098E090936000D82E6894EE24E3F840C0CE
S11324200F2EF9E0EF2EF02D26ED30E04F2D68E071
S11324308D2F0E948A0006ED10E02F2D409162003E
S113244068E08D2F0E94F905B8018F2D0E948A083B
S1132450D81630F5D093610098E090936000D82EA0
S11324601FC06894EE24E1F81BC00F2EF3E0EF2E9A
S1132470F02D16C06894EE24E2F812C00F2EF5E099
S1132480EF2EF02D0DC00F2EF6E0EF2EF02D08C02C
S11324900F2EF7E0EF2EF02D03C06894EE24E3F83E
S11324A0DF5FD93411F00C94D408E7C1C1FFD9C05F
S11324B090C8C1FFD9C00C94310AC1FFD8C0A7C8C5
S11324C0C1FFD8C00C94510AC1FFD7C00AC8C1FFCC
S11324D0BFC025C8C1FFBFC040C8C1FFBFC05BC8E3
S11324E0C2FFEBC03BC9C2FFEEC056C9C2FFF2C077
S11324F071C9C2FFC5C08CC9C2FFC9C0D5C8C2FF5B
S1132500C9C0A4C9C2FFCCC0EDC8C2FFCFC008C9AE
S1132510C3FF02C1A1CAC3FF06C1EAC9C3FF06C102
S1132520B9CAC3FF09C102CAC3FFDBC01DCAC3FFC6
S1132530DFC038CAC3FFE2C053CAC3FFE6C06ECAD5
S1132540C4FF1DC135CBC4FF21C150CBC4FF24C17E
S11325506BCBC4FFF7C086CBC4FFFBC0A1CBC4FFC9
S1132560FFC0EACAC4FFFFC0B9CBC4FF02C102CB9B
S1132570C5FF2DC19BCCC5FF31C1B6CCC5FF35C14C
S1132580FFCBC5FF35C1CECCC5FF38C117CCC5FFC5
S11325900AC132CCC5FF0EC14DCCC5FF11C168CCF8
S11325A0C6FF5CC14DCDC6FF61C168CDC6FF2CC15D
S11325B083CDC6FF31C19ECDC6FF36C1B9CDC6FF9E
S11325C03BC102CDC6FF3CC1D4CDC6FF40C11ACD2C
S11325D0CC230CF4C0CE0F2EF5E0EF2EF02D60CFFF
S11325E0CC230CF4DACE0F2EF6E0EF2EF02D58CFDC
S11325F0CC230CF4F4CE0F2EF7E0EF2EF02D50CFB9
S1132600CC230CF04DCF21CEE3940ECF6894EE246E
S1132610E3F804C00F2EF9E0EF2EF02DCC230CF0DC
S11326203FCFF2CFCC230CF431CE6894EE24E1F802
S113263037CFCC230CF44CCE0F2EF3E0EF2EF02D3D
S11326402FCFCC230CF465CE6894EE24E2F828CF87
S1132650C2FF21C983C8C2FF1EC99EC8C2FF1BC9CD
S1132660B9C8C2FF18C9D4C8C2FF15C91DC8C2FF62
S113267012C9F1C8C2FF0FC935C8C2FF0CC950C87E
S1132680C3FDEAC90F2EF7E0EF2EF02D28CAC3FFD1
S113269026CA2EC9C3FD03CA6894EE24E3F81FCAF0
S11326A0C3FD44C96894EE24E1F819CAC3FD5CC9AA
S11326B00F2EF3E0EF2EF02D12CAC3FD73C96894F8
S11326C0EE24E2F80CCAC3FD8BC90F2EF5E0EF2E01
S11326D0F02D05CAC3FDA2C90F2EF6E0EF2EF02D92
S11326E0FEC9C4FD65CA0F2EF3E0EF2EF02D1BCBFF
S11326F0C4FD7CCA6894EE24E2F815CBC4FD94CAE8
S11327000F2EF5E0EF2EF02D0ECBC4FDABCA0F2E2D
S1132710F6E0EF2EF02D07CBC4FDC2CA0F2EF7E072
S1132720EF2EF02D00CBC4FFFECA06CAC4FDDBCADF
S11327306894EE24E3F8F7CAC4FD1CCA6894EE2436
S1132740E1F8F1CAC5FDB2CB0F2EF6E0EF2EF02D65
S11327500ECCC5FDC9CB0F2EF7E0EF2EF02D07CC24
S1132760C5FF05CC0DCBC5FDE2CB6894EE24E3F8A0
S1132770FECBC5FD23CB6894EE24E1F8F8CBC5FD70
S11327803BCB0F2EF3E0EF2EF02DF1CBC5FD52CB5A
S11327906894EE24E2F8EBCBC5FD6ACB0F2EF5E08E
S11327A0EF2EF02DE4CBC6FD4BCC0F2EF3E0EF2E35
S11327B0F02D1DCDC6FD62CC6894EE24E2F817CD51
S11327C0C6FD7ACC0F2EF5E0EF2EF02D10CDC6FD10
S11327D091CC0F2EF6E0EF2EF02D09CDC6FDA8CC3E
S11327E00F2EF7E0EF2EF02D02CDC6FF00CDECCB7F
S11327F0C6FDBFCC6894EE24E3F8F9CCC6FD02CC48
S11328006894EE24E1F8F3CCCC230CF4A4CD0F2E81
S1132810F5E0EF2EF02D44CECC230CF4BECD0F2EDC
S1132820F6E0EF2EF02D3CCECC230CF4D8CD0F2EB9
S1132830F7E0EF2EF02D34CECC230CF031CE05CDC5
S1132840CC230CF4EDCD6894EE24E3F829CECC230C
S11328500CF41CCD6894EE24E1F822CECC230CF4C5
S113286037CD0F2EF3E0EF2EF02D1ACECC230CF43F
S113287050CD6894EE24E2F813CEDF91CF911F91EE
S11328800F91FF90EF90DF90BF90AF9008950E945A
S1132890630887E58093630082E4809362008FEF8E
S11328A087BB18BA809163000E94040566E085E442
S11328B00E94E805813091F426EA30E040916200FC
S11328C066E085E40E948A0006EA10E02091620036
S11328D04091630066E085E40E94F9050E94530874
S11328E0809163000E940405809163000E94C108E6
S11328F080916100863471F480916000843021F409
S113290088B38FEF88BB1CC08630C1F488B38FEFC7
S113291088BB16C0843441F480916000863071F421
S113292088B38FEF88BB0CC0883441F48091600079
S1132930853021F488B38FEF88BB02C088B388BB8D
S1132940FFCFEE0FFF1F0590F491E02D0994F8944A
S1052950FFCFB3
S107295201412020FB
S9030000FC
