:100000000C943C000C9459000C9459000C94590029
:100010000C9459000C9459000C9489000C945900CC
:100020000C9459000C9459000C9459000C94A50A96
:100030000C9459000C945B000C9459000C945900DA
:100040000C9459000C9459000C9459000C945900CC
:100050000C9459000B01F900FB00FD00FF000101A9
:100060000301050107013B0129012B012D012F018E
:10007000310133013501370111241FBECFE5D4E032
:10008000DEBFCDBF10E0A0E6B0E0EAEBF5E102C0D4
:1000900005900D92A636B107D9F720E0A6E6B0E0AC
:1000A00001C01D92AA3EB207E1F70E94DF000C9446
:1000B000DB0A0C9400001F920F920FB60F921124CE
:1000C0008F939F93EF93FF935D9B1AC0E09169001C
:1000D00080916800E81750F4F0E0E653FF4F80810C
:1000E0008CB9809169008F5F80936900909169005D
:1000F00080916800981304C0109269001092680003
:10010000FF91EF919F918F910F900FBE0F901F90D5
:1001100018951F920F920FB60F9211248F93809112
:1001200066008F5F809366008F910F900FBE0F90D7
:100130001F90189590BD89B980E28BB988E48AB97F
:1001400086E880BD08958AB180698AB90895909142
:100150006800E92FF0E0E653FF4F80839F5F903106
:1001600019F09093680002C0109268005D9B0CC06B
:10017000E0916900F0E0E653FF4F80818CB98091F7
:1001800069008F5F809369000895909167009131B5
:1001900040F4E92FF0E0E652FF4F80839F5F909399
:1001A000670008951DBC1CBC8EB588608EBD86E9B5
:1001B00098E99BBD8ABD89B7806189BF089580E4B5
:1001C00090E00E949A000E94A30087B38F6287BBD1
:1001D00088B38F6288BB0E94D2007894FFCF90E0F2
:1001E000FC01F097E930F105A0F4E65DFF4F0C94B7
:1001F000D50A81E0089582E0089583E0089584E0BF
:10020000089585E0089586E0089587E0089588E0E0
:10021000089589E0089580E00895E09167008E2FA9
:1002200090E0803191054CF4FC01E652FF4F8AEEDC
:1002300090E01192E817F907E1F71092670008952E
:1002400090E089309105A8F4FC01ED5CFF4F0C941F
:10025000D50A81E3089582E3089583E3089584E352
:10026000089585E3089586E3089587E3089588E374
:10027000089589E3089580E30895CF93DF93D82FFD
:10028000C62F8DE40E94A7008DE40E94A70080E2A3
:100290000E94A7008D2F0E94A7008C2F0E94200192
:1002A0000E94A7008DE00E94A700DF91CF910895E2
:1002B000C29884E50E94A70085E40E94A7008DE013
:1002C0000E94A700089589E40E94A7008CE40E9480
:1002D000A7008DE00E94A700089589E40E94A7006E
:1002E00084E50E94A7008DE00E94A7000895815434
:1002F000880F653010F4615002C08F5F655090E048
:10030000FC01E654FF4F7081423491F444E0460F03
:1003100021E030E0F90102C0EE0FFF1F4A95E2F73D
:1003200002C0220F331F6A95E2F7272B2E2B12C033
:1003300021E030E0A901062E02C0440F551F0A94A7
:10034000E2F76C5F02C0220F331F6A95E2F7409517
:100350004723242BFC01E654FF4F2083089581544A
:10036000880F653010F4615002C08F5F6550E82F30
:10037000F0E0E654FF4F808190E024E0260FAC01CE
:1003800002C0559547952A95E2F740FF09C002C083
:10039000959587956A95E2F780FD04C087E50895F5
:1003A00085E4089582E408958154E82FF0E0E65949
:1003B000FF4F208130E0615002C0359527956A9546
:1003C000E2F781E020FF80E008958154E82FF0E01B
:1003D000615081E090E002C0880F991F6A95E2F7B2
:1003E000EE54FF4F9081892B808308958154E82F2C
:1003F000F0E0615081E090E002C0880F991F6A959B
:10040000E2F7E659FF4F9081892B808308957F9210
:100410008F929F92AF92BF92CF92DF92EF92FF9214
:100420000F931F93CF93DF93C82FD62FC42ED22EB6
:1004300082E44813A3C101E0060F093040F023C055
:10044000823409F435C31F5F193011F41CC0102F1A
:10045000612F8C2F0E94AF01853491F714C01FEFDC
:100460001D0F612F8C2F0E94AF01853461F492E43F
:10047000D91205C0612F8C2F0E94E50104C0612FA5
:100480008C2F0E94F601CC24CA94CD0E81E08C15ED
:1004900040F021C0823409F413C31150113011F41B
:1004A0001AC01C2D612F8C2F0E94AF01853491F74B
:1004B00012C0602F8C2F0E94AF01853461F492E44A
:1004C000D91205C0602F8C2F0E94E50104C0602F57
:1004D0008C2F0E94F601BB24BA94BC0E80E48B15CD
:1004E00040F0FDC2823409F4F2C21150103411F40C
:1004F0001CC01B2D6D2F812F0E94AF01853491F7F9
:1005000014C011E01C0F6D2F812F0E94AF018534A4
:1005100061F492E4D91205C06D2F812F0E94E5018C
:1005200004C06D2F812F0E94F60111E01C0F1934B9
:1005300048F01DC0823409F4D8C2F39489E4F8125B
:1005400002C015C0F12E6D2F8F2D0E94AF01853492
:1005500089F70DC06D2F8B2D0E94AF01853439F4C2
:1005600092E4D9120BC06D2F8B2D0E94E50180E41F
:100570008B1508F03FC0093098F03CC06D2F8B2DD3
:100580000E94F601F4CFA92C823409F0A82CFA9429
:10059000E39490E4F91691F089E0E81207C00EC0E8
:1005A000E02EFB2CA12C99249394812C6E2D8F2D61
:1005B0000E94AF01853411F0AA2029F391E0A9121D
:1005C00019C08C2F90E00196893491059CF48D2FF1
:1005D00090E00197181619066CF46C2D812F0E947B
:1005E000AF01853439F482E4D8120AC06C2D812F12
:1005F0000E94E501193408F080C2C11010C077C014
:100600006C2D812F0E94F601F5CFF394EA9499E4C2
:10061000F91671F0EE2061F0823419F409C0EC2C67
:10062000F12E6E2D8F2D0E94AF01853471F71FC002
:10063000823409F067C28C2F90E0019781349105D4
:100640000CF460C28D2F90E0019609970CF05AC20D
:10065000602F8B2D0E94AF01853409F053C282E4D4
:10066000D8120BC0602F8B2D0E94E5014BC290E485
:100670009B15E8F5C11012C03AC0602F8B2D0E9467
:10068000F60140C2A92C823409F0A82CFA94EA940D
:1006900080E4F81689F0E11007C00EC0EC2CFB2CAA
:1006A000A12C99249394812C6E2D8F2D0E94AF0143
:1006B000853411F0AA2031F391E0A91218C08C2FD3
:1006C00090E001968934910594F48D2F90E0019685
:1006D00009976CF4602F812F0E94AF01853439F4A3
:1006E00082E4D8120AC0602F812F0E94E5011934DC
:1006F00008F03BC2093088F038C2602F812F0E9479
:10070000F601F5CFFE2C823409F0FA2C1F5F0F5F43
:10071000193479F0093029F40CC0F12CEE24E3945B
:10072000A12C602F812F0E94AF01853411F0FF2092
:1007300049F391E0F91219C28C2F90E001978134AE
:1007400091050CF412C28D2F90E00197181619062E
:100750000CF00BC26C2D8B2D0E94AF01853409F07B
:1007600004C282E4D81205C06C2D8B2D0E94E501D5
:10077000FCC16C2D8B2D0E94F601F7C101E0060F24
:10078000093040F022C0873509F4C1C11F5F19301C
:1007900011F41BC0102F612F8C2F0E94AF018534E4
:1007A00091F713C01FEF1D0F612F8C2F0E94AF0117
:1007B000853459F4CD1005C0612F8C2F0E94E501BE
:1007C00004C0612F8C2F0E94F601BB24BA94BD0E89
:1007D00091E09B1540F020C0873509F4A0C111506D
:1007E000113011F419C01B2D612F8C2F0E94AF0105
:1007F000853491F711C0602F8C2F0E94AF01853492
:1008000059F4CD1005C0602F8C2F0E94E50104C063
:10081000602F8C2F0E94F601AA24AA94AC0E80E4CB
:100820008A1540F08BC1873509F480C1115010340E
:1008300011F41BC01A2D6D2F812F0E94AF0185343A
:1008400091F713C011E01C0F6D2F812F0E94AF0193
:10085000853459F4CD1005C06D2F812F0E94E5011C
:1008600004C06D2F812F0E94F60111E01C0F193476
:1008700048F01CC0873509F467C1F39499E4F91274
:1008800002C014C0F12E6D2F8F2D0E94AF01853450
:1008900089F70CC06D2F8A2D0E94AF01853431F489
:1008A000CD100AC06D2F8A2D0E94E50180E48A15C3
:1008B000F0F5093098F03BC06D2F8A2D0E94F601AB
:1008C000F5CF982C873509F0972CFA94E39490E4AF
:1008D000F91691F089E0E81207C00EC0E02EFA2C5C
:1008E000912C88248394712C6E2D8F2D0E94AF0142
:1008F000853411F0992029F391E0991218C08C2FBA
:1009000090E001968934910594F48D2F90E0019741
:100910001816190664F46B2D812F0E94AF018534DF
:1009200031F4CD100AC06B2D812F0E94E5011934DE
:1009300008F017C1B11010C075C06B2D812F0E9437
:10094000F601F5CFF394EA9499E4F91671F0EE20EC
:1009500061F0873519F409C0EB2CF12E6E2D8F2D27
:100960000E94AF01853471F71EC0873509F0F4C0CD
:100970008C2F90E00197813491050CF4EDC08D2F00
:1009800090E0019609970CF0E7C0602F8A2D0E9435
:10099000AF01853409F0E0C0CD100BC0602F8A2D67
:1009A0000E94E501D9C080E48A15E0F5B11012C0BB
:1009B00039C0602F8A2D0E94F601CEC0982C873551
:1009C00009F0972CFA94EA9490E4F91689F0E11072
:1009D00007C00EC0EB2CFA2C912C88248394712C28
:1009E0006E2D8F2D0E94AF01853411F0992031F3C7
:1009F00081E0981217C08C2F90E001968934910500
:100A00008CF48D2F90E00196099764F4602F812F6C
:100A10000E94AF01853431F4CD100AC0602F812FC0
:100A20000E94E501193408F0A0C0093088F09DC08B
:100A3000602F812F0E94F601F5CFFE2C873509F03B
:100A4000F92C1F5F0F5F193479F0093029F40CC0BD
:100A5000F12CEE24E394912C602F812F0E94AF01A2
:100A6000853411F0FF2049F391E0F9127EC08C2FFC
:100A700090E00197813491050CF477C08D2F90E0C0
:100A80000197181619060CF070C06B2D8A2D0E9464
:100A9000AF01853409F069C0CD1005C06B2D8A2DDA
:100AA0000E94E50162C06B2D8A2D0E94F6015DC097
:100AB0008D2F90E00197181619060CF4D0CCE3CCDA
:100AC0008D2F90E0019609970CF4F3CC04CD8C2F78
:100AD00090E00196893491050CF413CD26CD11E0F8
:100AE0001C0F193408F42ECD85CD8C2F90E0019782
:100AF000813491050CF02ECD3ACD80E48B1508F4AD
:100B0000B9CD33C090E49B1508F4C8CDF0CD8D2F3E
:100B100090E00197181619060CF444CE56CE8D2F8E
:100B200090E0019609970CF466CE76CE8C2F90E07B
:100B30000196893491050CF485CE97CE11E01C0FF7
:100B4000193408F49FCEF3CE8C2F90E001978134B6
:100B500091050CF09FCEAACE80E48A1508F43ACF16
:100B600061CF90E49A1508F421CFDF91CF911F91C6
:100B70000F91FF90EF90DF90CF90BF90AF909F903C
:100B80008F907F9008954F925F926F927F928F9295
:100B90009F92AF92BF92CF92DF92EF92FF920F930C
:100BA0001F93CF93DF93082F0F2EFAEBEF2EF0E079
:100BB000FF2EF02D10E0C12C442443940F2EF5E0BD
:100BC0005F2EF02D6894662461F80F2EF6E07F2EDC
:100BD000F02D0F2EF3E08F2EF02D0F2EF7E09F2E2D
:100BE000F02D6894AA24A2F86894BB24B3F8C12F0E
:100BF000C695CF5BF701D1917F01D4FF19C010FFDB
:100C000002C0D52C01C0D42C6D2D8C2F0E94AF01B9
:100C1000873541F4C394202F42E46D2D8C2F0E9420
:100C2000070206C0202F47E56D2D8C2F0E9407027A
:100C3000D5FF19C010FF02C0D72C01C0D62C6D2DD6
:100C40008C2F0E94AF01873541F4C394202F42E4DA
:100C50006D2D8C2F0E94070206C0202F47E56D2DB9
:100C60008C2F0E940702D6FF19C010FF02C0D92C9A
:100C700001C0D82C6D2D8C2F0E94AF01873541F417
:100C8000C394202F42E46D2D8C2F0E94070206C0D2
:100C9000202F47E56D2D8C2F0E940702DD23CCF419
:100CA00010FF02C0DB2D01C0DA2D6D2F8C2F0E94AA
:100CB000AF01873541F4C394202F42E46D2F8C2F70
:100CC0000E94070206C0202F47E56D2F8C2F0E943F
:100CD00007021F5F103109F08ACF8C2DDF91CF9171
:100CE0001F910F91FF90EF90DF90CF90BF90AF904A
:100CF0009F908F907F906F905F904F9008951F937B
:100D0000CF93DF93E2EBF0E030E0D0E051E072E02F
:100D100060E013E0C4E0B5E0A6E047E001C0392F91
:100D2000919190FD04C091FD05C0262F05C0252F8F
:100D3000D52F02C0252FD72F92FF04C0211102C04A
:100D4000252FD12F93FF04C0211102C0252FDC2FA6
:100D500094FF04C0211102C0252FDB2F95FF04C092
:100D6000211102C0252FDA2F96FF04C0211102C0E5
:100D7000252FD42F992324F4211108C0D8E006C0D0
:100D800091E0930F983011F0222349F2C1E4C30F90
:100D9000482F6D2F8C2F0E947701C0936100D09354
:100DA0006000DF91CF911F9108958F929F92AF9233
:100DB000BF92CF92DF92EF92FF920F931F93CF9348
:100DC000DF93182F062FC42FF22EEE24E394E60EA5
:100DD00088E08E1590F42EC08D2F90E00196099733
:100DE00044F461E06D0F812F0E94AF01DC2C8F1164
:100DF000DB2CDF5FD93031F41DC0DE2DD12CCC24AB
:100E0000C394B12C6D2F812F0E94AF018C1302C0AF
:100E1000DD2011F381E0D8120DC0D93058F4ED1661
:100E200048F4DE2C4F2D6D2D812F0E947701D39435
:100E3000DD16C0F3DD24DA94D00E91F432C08D2F8C
:100E400090E001971816190644F46FEF6D0F812F8B
:100E50000E94AF01CB2CF812CA2CD15031F40DC036
:100E6000DD2DC12CBB24B394A12C6D2F812F0E94AA
:100E7000AF01C81302C0CC2011F381E0C81211C029
:100E8000802F90E00197181619065CF4DD1548F4E0
:100E9000CD2C4F2D6C2D812F0E947701CA94DC152B
:100EA000C0F3CC24CA94C10E80E48C1598F08AC19A
:100EB0008D2F90E001978134910544F0602F8FEFE2
:100EC0008D0F0E94AF01BA2CF812B92CD150D0343A
:100ED00031F40DC0DC2DB12CAA24A394912C602FE9
:100EE0008D2F0E94AF01C81302C0BB2009F381E01F
:100EF000B8120DC0D13458F0DC1548F4BC2C4F2D7D
:100F0000602F8B2D0E947701BA94DB15C0F38824E3
:100F10008394810E88E4881598F425C08D2F90E085
:100F200001968934910544F4602F81E08D0F0E9471
:100F3000AF011A2DF812192DDF5FD93431F40DC02D
:100F4000D82D10E0AA24A394912C602F8D2F0E94FD
:100F5000AF01C81302C0112309F3113021F4D934B1
:100F600010F48D1638F080E48C15D0F588E08E15DD
:100F700030F536C0B82C4F2D602F8B2D0E94770195
:100F8000B394BD16C0F3EFCF8D2F90E0019781345D
:100F9000910574F0802F90E0019609974CF461E080
:100FA000600F8FEF8D0F0E94AF01F81201C01A2D54
:100FB000D1500F5FD03489F0093031F4F0C00E2DDC
:100FC000DC2D10E0AA24A394602F8D2F0E94AF0186
:100FD000C81303C01130C1F6FDC0113009F4FAC0C6
:100FE00088E4881508F403C1D1102BC083C0DC1538
:100FF000B8F70C2DBE2C4F2D6B2D802F0E94770142
:10100000B3940150D017B8F3EBCF8D2F90E0019639
:10101000893491057CF4802F90E001971816190609
:101020004CF46FEF600F81E08D0F0E94AF01F8125A
:1010300001C01A2DDF5F0150D93489F0011106C0BB
:10104000B2C00D2DD82D10E0AA24A394602F8D2FAF
:101050000E94AF01C81303C01130B9F6BFC01130F0
:1010600009F0C0C0BBC080E48C1508F043C0D110AB
:101070002FC040C08D1608F099C0082DBD2C4F2DF3
:101080006B2D802F0E947701BA940F5F0D1708F027
:101090008DC0B110F4CF8AC08D2F90E001978134BC
:1010A00091057CF0802F90E00197181619064CF4FA
:1010B0006FEF600F8FEF8D0F0E94AF01F81201C02C
:1010C0001A2DD1500150D13488F0011106C073C0DF
:1010D0000D2DDC2D10E0AA24A394602F8D2F0E94EB
:1010E000AF01C81303C01130B9F602C0113011F4BA
:1010F000D13440F488E4881508F480C088E08E1567
:1011000068F57CC0DD20B1F3DC15A0F74F2D6D2D07
:101110008C2D0E947701DA94CA94DC1558F7D1100F
:10112000F5CFE8CF8D2F90E001968934910574F4C6
:10113000802F90E0019609974CF461E0600F81E008
:101140008D0F0E94AF01F81201C01C2DDF5F0F5FF1
:10115000D93409F453C0093031F431C00E2DD82DE3
:1011600010E0CC24C394602F8D2F0E94AF01C813D0
:1011700003C01130B9F640C0113009F03FC03CC087
:101180008D16E0F54F2D6E2D882D0E947701E3948A
:1011900083948D1698F589E0E812F4CF2FC01130B2
:1011A00009F01ECF24CF1130E9F464CF80E48C1510
:1011B00008F48ECF9FCF113009F09CCFA3CF113010
:1011C000E9F4DECF88248394810E88E4881508F042
:1011D000B7CE06CFD13408F403CF09CFD93408F005
:1011E00042CF48CF80E48C1508F472CF83CF80E4DF
:1011F0008C1508F43CCF02C0D93410F2DF91CF91A6
:101200001F910F91FF90EF90DF90CF90BF90AF9024
:101210009F908F900895E2EBF0E0AAE6B0E08AEBB1
:1012200090E011921D92E817F907D9F70895EAEBBB
:10123000F0E08AEC90E01192E817F907E1F70E94DC
:101240000B0947E564E084E40E94770142E465E02D
:1012500084E40E94770142E464E085E40E9477011F
:1012600047E565E085E40E94770108950F931F9399
:10127000CF93DF93EC01FC0101900020E9F7319757
:10128000E81BF90BE230F10591F48881813409F013
:101290005EC08981843509F049C18FE40E94A700AE
:1012A0008BE40E94A7008DE00E94A70049C1E330B3
:1012B000F105B1F48881823509F035C18981833522
:1012C00009F031C18A81843509F02DC18FE40E9473
:1012D000A7008BE40E94A7008DE00E94A70030C108
:1012E000E430F10509F0A0C08881833509F01BC105
:1012F0008981803509F01CC18A81803209F018C1CA
:101300008B81823421F0873509F012C110C082E44C
:101310008093630087E5809362008FE40E94A700BA
:101320008BE40E94A7008DE00E94A70009C187E519
:101330008093630082E4809362008FE40E94A700A0
:101340008BE40E94A7008DE00E94A700F9C088816D
:101350008E34A1F48981873409F040C00E941709B6
:10136000809162000E94C3058FE40E94A7008BE475
:101370000E94A7008DE00E94A700E2C0853471F5AD
:101380008981873409F0ACC08FE40E94A7008BE408
:101390000E94A7008DE00E94A700D2C08A818032FF
:1013A00009F0C1C08B810E94EF008150893008F0A4
:1013B000BAC08EB58B7F8EBD8B810E94EF0080936B
:1013C00064008FE40E94A7008BE40E94A7008DE0D8
:1013D0000E94A7008EB584608EBDB2C088818F3414
:1013E00009F07EC089818B3409F0A6C0809162002B
:1013F0000E947F062091620040916300609160002E
:10140000809161000E94D5060E940B0980916200C4
:101410000E94C30560916000809161000E943D01BF
:101420008EB584608EBD8CC0359709F07CC08881F4
:101430008D3409F078C08981863509F074C08A81BD
:10144000803209F070C08B818154883008F06BC005
:101450008C818153883008F066C08EB58B7F8EBD3D
:101460001DBC1CBC9091660080916400891720F41B
:10147000C2980E946D0101C0C59A109266008C81CD
:101480000E94EF00082F1B81682F812F0E94D4013A
:10149000813019F540916300602F812F0E94770100
:1014A00000916300109162008C810E94EF00202F58
:1014B000412F682F8B810E94D5060E940B098091D5
:1014C00062000E94C3058FE40E94A7008BE40E9483
:1014D000A7008DE00E94A70033C00E94630130C0C6
:1014E0008881803589F48981833551F48FE40E94A5
:1014F000A7008BE40E94A7008DE00E94A70020C0F7
:1015000089818C3481F41CC0873569F489818E34DB
:1015100051F48FE40E94A7008BE40E94A7008DE0A5
:101520000E94A7000DC00E9458010AC0888126CFE2
:1015300089818435C1F732CF8881803529F7E0CFA2
:10154000DF91CF911F910F9108951F920F920FB6C7
:101550000F9211242F933F934F935F936F937F9339
:101560008F939F93AF93BF93EF93FF938CB18D3085
:1015700019F00E94C50008C08AED90E00E940D019C
:101580008AED90E00E943609FF91EF91BF91AF91F3
:101590009F918F917F916F915F914F913F912F918B
:1015A0000F900FBE0F901F901895EE0FFF1F059024
:0A15B000F491E02D0994F894FFCFA8
:0615BA00014120200200A7
:00000001FF
