:100000000C94AC000C94C9000C94C9000C94C90069
:100010000C94C9000C94C9000C94F9000C94C9000C
:100020000C94C9000C94C9000C94C9000C94C81A13
:100030000C94C9000C94CB000C94C9000C94C9001A
:100040000C94C9000C94C9000C94C9000C94C9000C
:100050000C94C90068017A016A016C016E0170019B
:100060007201740176019401A601960198019A012A
:100070009C019E01A001A2011B0A390A570A750AB8
:10008000930AB10ACF0AED0A0B0B290B470B650B3C
:10009000830BA10BE90B070C250C430C610C7F0CA7
:1000A0009D0CBB0CD90CF70C150D330D510D6F0DBC
:1000B000B70DD50DF30D110E2F0E4D0E6B0E890ED3
:1000C000A70EC50EE30E010F1F0F3D0F850FA30FE7
:1000D000C10FDF0FFD0F1B10391057107510931053
:1000E000B110CF10ED100B1151116F118D11AB111B
:1000F000C911E7110512231241125F127D129B12E2
:10010000B912D7121F133D135B1379139713B5134D
:10011000D313F1130F142D144B1469148714A51461
:10012000ED140B152915471565158315A115BF1578
:10013000DD15FB151916371655167316BC16DA168B
:10014000F81616173417521770178E17AC17CA17F0
:10015000E81706182418421811241FBECFE5D4E072
:10016000DEBFCDBF10E0A0E6B0E0E0E0F6E302C005
:1001700005900D92A636B107D9F721E0A6E6B0E0CA
:1001800001C01D92AB3AB207E1F70E944E010C94F8
:10019000FE1A0C9400001F920F920FB60F921124BA
:1001A0008F939F93EF93FF935D9B1AC0E09169003B
:1001B00080916800E81750F4F0E0E55EFE4F808122
:1001C0008CB9809169008F5F80936900909169007C
:1001D00080916800981304C0109269001092680022
:1001E000FF91EF919F918F910F900FBE0F901F90F5
:1001F00018951F920F920FB60F9211248F93809132
:1002000066008F5F809366008F910F900FBE0F90F6
:100210001F90189590BD89B980E28BB988E48AB99E
:1002200086E880BD08958AB180698AB90895909161
:100230006800E92FF0E0E55EFE4F80839F5F9093BA
:100240006800903111F4109268005D9B0CC0E09141
:100250006900F0E0E55EFE4F80818CB98091690015
:100260008F5F80936900089590916700913140F409
:10027000E92FF0E0E558FE4F80839F5F9093670081
:1002800008951DBC1CBC8EB588608EBD86E998E9BA
:100290009BBD8ABD89B7806189BF089580E490E0E5
:1002A0000E940A010E94130187B38F6287BB88B343
:1002B0008F6288BB0E9441017894FFCF90E0FC01DF
:1002C000F097E930F105A0F4E65DFF4F0C94F81AC1
:1002D00080E0089582E0089583E0089584E0089521
:1002E00085E0089586E0089587E0089588E0089500
:1002F00089E0089581E008958091670090E005C04D
:10030000FC01E558FE4F1082019680319105C4F33F
:1003100010926700089590E089309105A8F4FC01DF
:10032000ED5CFF4F0C94F81A80E3089582E3089582
:1003300083E3089584E3089585E3089586E30895AB
:1003400087E3089588E3089589E3089581E3089594
:10035000CF93DF93D82FC62F8DE40E9417018DE431
:100360000E94170180E20E9417018D2F0E94170141
:100370008C2F0E948B010E9417018DE00E941701B3
:10038000DF91CF9108958DE40E94170180E50E94CE
:1003900017018DE00E941701089588B38D7F88BBF7
:1003A00087E50E9417018EE40E9417018DE00E94EC
:1003B0001701089588B38B7F88BB8CE40E941701D6
:1003C00083E50E9417018DE00E941701089588B30C
:1003D000877F88BB84E50E94170185E40E9417018E
:1003E0008DE00E941701089589E40E9417018CE4B2
:1003F0000E9417018DE00E941701089589E40E9470
:10040000170184E50E9417018DE00E9417010895ED
:10041000F9018154880F3FEF360F653018F08F5F78
:100420003BEF360FE80FF11DA0814234B1F4632F8A
:1004300070E041E050E0CA0102C0880F991F3A9570
:10044000E2F79B012C5F3F4F02C0440F551F2A95D6
:10045000E2F7482B842F8A2B17C0632F70E081E0CE
:1004600090E0AC0102C0440F551F3A95E2F79A01A3
:1004700020954A2F42239B012C5F3F4F02C0880FDB
:10048000991F2A95E2F7842B808308958154880F61
:100490007FEF760F653018F08F5F7BEF760FFA01F4
:1004A000E80FF11D808190E0272F30E02C5F3F4F57
:1004B000AC0102C0559547952A95E2F740FF09C067
:1004C00002C0959587957A95E2F780FF04C082E493
:1004D000089585E4089587E5089581546150E82FD3
:1004E000F0E0E458FF4F808190E002C09595879539
:1004F0006A95E2F780FF02C081E0089580E00895E8
:1005000081546150E82FF0E0EC55FF4F208181E0ED
:1005100090E002C0880F991F6A95E2F7822B8083D2
:10052000089581546150E82FF0E0E458FF4F208196
:1005300081E090E002C0880F991F6A95E2F7822B54
:10054000808308959F92AF92BF92CF92DF92EF92F5
:10055000FF920F931F93CF93DF93C82FD62FE42ED4
:10056000D22E82E44813BAC101E0060F102FF12CFD
:1005700005C0823411F4FF24F3941F5F193050F446
:10058000F11008C04CEB50E0612F8C2F0E94460206
:10059000853479F781E0F8121BC08D2F90E0019728
:1005A00018161906ACF41FEF1D0F4CEB50E0612F2D
:1005B0008C2F0E944602853459F4ED1005C0612F3E
:1005C0008C2F0E94800204C0612F8C2F0E94910208
:1005D000BB24BA94BD0E1B2DF12C05C0823411F43E
:1005E000FF24F3941150123050F0F11008C04CEB7E
:1005F00050E0612F8C2F0E944602853479F781E00C
:10060000F81218C08D2F90E0019609979CF44CEBDE
:1006100050E0602F8C2F0E944602853459F4ED1073
:1006200005C0602F8C2F0E94800204C0602F8C2F89
:100630000E949102AA24AA94AC0E1A2DF12C05C096
:10064000823411F4FF24F3941150113450F0F1105E
:1006500008C04CEB50E06D2F812F0E94460285347C
:1006600079F781E0F8121BC08C2F90E00196893455
:100670009105ACF411E01C0F4CEB50E06D2F812F75
:100680000E944602853459F4ED1005C06D2F812F6C
:100690000E94800204C06D2F812F0E94910211E000
:1006A0001C0FF12EC12C05C0823411F4CC24C3944C
:1006B000F39488E48F1550F0C11008C04CEB50E063
:1006C0006D2F8F2D0E944602853471F781E0C8128C
:1006D00019C08C2F90E00197813491059CF04CEB70
:1006E00050E06D2F8A2D0E944602853459F4ED109A
:1006F00005C06D2F8A2D0E94800204C06D2F8A2DA7
:100700000E949102C02EFA2C912C06C0823411F462
:1007100099249394FA94C39480E48F1568F488E044
:100720008C1550F04CEB50E06C2D8F2D0E94460242
:10073000853411F0992051F381E098121FC08C2F5D
:1007400090E0019689349105CCF48D2F90E00197CB
:10075000181619069CF44CEB50E06B2D812F0E946B
:100760004602853459F4ED1005C06B2D812F0E948F
:10077000800204C06B2D812F0E949102CB2CF12EA0
:10078000912C06C0823411F499249394F394CA9462
:1007900088E48F1560F0CC2051F0911008C04CEB2C
:1007A00050E06C2D8F2D0E944602853459F781E070
:1007B00098121EC08C2F90E0019781349105C4F0EF
:1007C0008D2F90E0019609979CF44CEB50E0602F40
:1007D0008A2D0E944602853459F4ED1005C0602F21
:1007E0008A2D0E94800204C0602F8A2D0E949102EF
:1007F000CB2CFA2C912C06C0823411F499249394BA
:10080000FA94CA9480E48F1560F4CC2051F04CEB3C
:1008100050E06C2D8F2D0E944602853411F09920F6
:1008200059F381E098121EC08C2F90E00196893414
:100830009105C4F48D2F90E0019609979CF44CEB40
:1008400050E0602F812F0E944602853459F4ED104C
:1008500005C0602F812F0E94800204C0602F812F6D
:100860000E949102F12C06C0823411F4FF24F3940B
:100870001F5F0F5F193460F4093050F44CEB50E007
:10088000602F812F0E944602853411F0FF2061F312
:1008900081E0F812D9C18C2F90E001978134910545
:1008A0000CF4D2C18D2F90E00197181619060CF0A8
:1008B000CBC14CEB50E06B2D8A2D0E944602853453
:1008C00009F0C2C1ED1005C06B2D8A2D0E94800277
:1008D000BBC16B2D8A2D0E949102B6C101E0060FAB
:1008E000102FF12C05C0873511F4FF24F3941F5FFE
:1008F000193050F4F11008C04CEB50E0612F8C2FF0
:100900000E944602853479F781E0F8121BC08D2FD2
:1009100090E0019718161906ACF41FEF1D0F4CEB71
:1009200050E0612F8C2F0E944602853459F4ED105F
:1009300005C0612F8C2F0E94800204C0612F8C2F74
:100940000E949102BB24BA94BD0E1B2DF12C05C050
:10095000873511F4FF24F3941150123050F0F11048
:1009600008C04CEB50E0612F8C2F0E94460285346A
:1009700079F781E0F81218C08D2F90E00196099761
:100980009CF44CEB50E0602F8C2F0E944602853483
:1009900059F4ED1005C0602F8C2F0E94800204C016
:1009A000602F8C2F0E949102CC24CA94CC0E1C2D57
:1009B000F12C05C0873511F4FF24F3941150113444
:1009C00050F0F11008C04CEB50E06D2F812F0E94C9
:1009D0004602853479F781E0F8121BC08C2F90E035
:1009E000019689349105ACF411E01C0F4CEB50E0FA
:1009F0006D2F812F0E944602853459F4ED1005C0F9
:100A00006D2F812F0E94800204C06D2F812F0E94C4
:100A1000910211E01C0FF12EA12C05C0873511F4B5
:100A2000AA24A394F39488E48F1550F0A11008C071
:100A30004CEB50E06D2F8F2D0E944602853471F7EC
:100A400081E0A81219C08C2F90E0019781349105A4
:100A50009CF04CEB50E06D2F8C2D0E9446028534AB
:100A600059F4ED1005C06D2F8C2D0E94800204C03A
:100A70006D2F8C2D0E949102A02EFC2C912C06C073
:100A8000873511F499249394FA94A39480E48F15F4
:100A900068F488E08A1550F04CEB50E06A2D8F2DF9
:100AA0000E944602853411F0992051F381E098129A
:100AB0001FC08C2F90E0019689349105CCF48D2FC6
:100AC00090E00197181619069CF44CEB50E06B2D42
:100AD000812F0E944602853459F4ED1005C06B2D1C
:100AE000812F0E94800204C06B2D812F0E949102F1
:100AF000AB2CF12E912C06C0873511F499249394D8
:100B0000F394AA9488E48F1560F0AA2051F0911014
:100B100008C04CEB50E06A2D8F2D0E9446028534B0
:100B200059F781E098121EC08C2F90E00197813414
:100B30009105C4F08D2F90E0019609979CF44CEB41
:100B400050E0602F8C2D0E944602853459F4ED1040
:100B500005C0602F8C2D0E94800204C0602F8C2D58
:100B60000E949102AB2CFC2C912C06C0873511F40D
:100B700099249394FA94AA9480E48F1560F4AA209F
:100B800051F04CEB50E06A2D8F2D0E9446028534C7
:100B900011F0992059F381E098121EC08C2F90E03B
:100BA000019689349105C4F48D2F90E00196099740
:100BB0009CF44CEB50E0602F812F0E94460285345C
:100BC00059F4ED1005C0602F812F0E94800204C0EF
:100BD000602F812F0E949102F12C06C0873511F4FD
:100BE000FF24F3941F5F0F5F193460F4093050F451
:100BF0004CEB50E0602F812F0E944602853411F0AB
:100C0000FF2061F381E0F8121FC08C2F90E0019764
:100C100081349105CCF08D2F90E0019718161906BC
:100C20009CF44CEB50E06B2D8C2D0E9446028534D9
:100C300059F4ED1005C06B2D8C2D0E94800204C06C
:100C40006B2D8C2D0E949102DF91CF911F910F91FE
:100C5000FF90EF90DF90CF90BF90AF909F9008955E
:100C6000FF920F931F93CF93DF93082FC0E0B0C084
:100C7000DC2FD695DF5BEC2FF0E0E454FF4F1081C2
:100C800014FF28C0C0FD03C0FF24F39404C00F2E3E
:100C9000F5E0FF2EF02D4CEB50E06F2D8D2F0E94D4
:100CA0004602873561F480916A008F5F80936A0005
:100CB000202F42E46F2D8D2F0E94A2020BC0809145
:100CC0006B008F5F80936B00202F47E56F2D8D2F7A
:100CD0000E94A20215FF29C0C0FD04C06894FF2431
:100CE000F1F804C00F2EF6E0FF2EF02D4CEB50E093
:100CF0006F2D8D2F0E944602873561F480916A0026
:100D00008F5F80936A00202F42E46F2D8D2F0E9409
:100D1000A2020BC080916B008F5F80936B00202F2D
:100D200047E56F2D8D2F0E94A20216FF2AC0C0FD3D
:100D300005C00F2EF3E0FF2EF02D04C00F2EF7E0BC
:100D4000FF2EF02D4CEB50E06F2D8D2F0E944602B0
:100D5000873561F480916A008F5F80936A00202F4D
:100D600042E46F2D8D2F0E94A2020BC080916B0078
:100D70008F5F80936B00202F47E56F2D8D2F0E9492
:100D8000A202112324F5C0FD02C014E001C018E046
:100D90004CEB50E0612F8D2F0E944602873561F4A5
:100DA00080916A008F5F80936A00202F42E4612F58
:100DB0008D2F0E94A2020BC080916B008F5F8093E9
:100DC0006B00202F47E5612F8D2F0E94A202CF5F7D
:100DD000C03108F44DCFDF91CF911F910F91FF905B
:100DE00008959F92AF92BF92CF92DF92EF92FF92BF
:100DF0000F931F93CF93DF93D82EF62EC42FE22E9E
:100E0000CC24C394C60EDC2DB12C10C08D2F90E0E5
:100E10000196099754F4A80161E06D0F8D2D0E9491
:100E200046028E1102C0BB24B394DF5FD93048F470
:100E3000A8016D2F8D2D0E9446028C1302C0BB208D
:100E400029F381E0B8120EC0D93048F00BC09801E8
:100E50004E2D6B2D8D2D0E940802B39401C0BC2C29
:100E6000BD16A8F3BB24BA94BF0CDB2DA12C11C076
:100E70008D2F90E001971816190654F4A8016FEF12
:100E80006D0F8D2D0E944602E81202C0AA24A39481
:100E9000D150DD2349F0A8016D2F8D2D0E9446020F
:100EA000C81302C0AA2021F381E0A81212C08F2D1E
:100EB00090E00197181619064CF00BC098014E2DC2
:100EC0006A2D8D2D0E940802AA9401C0AB2CDA1560
:100ED000A8F3AA24AA94AD0CDA2D912C11C08D2F61
:100EE00090E001978134910554F0A8016F2D8FEFA8
:100EF0008D0F0E944602E81202C099249394D150AB
:100F0000D13448F0A8016F2D8D2F0E944602C813DE
:100F100002C0992021F381E098120EC0D13448F428
:100F20000BC098014E2D6F2D892D0E9408029A94B6
:100F300001C09A2CD915A8F3D394DD2D912C11C0A2
:100F40008D2F90E001968934910554F4A8016F2DFE
:100F500081E08D0F0E944602E81202C0992493940A
:100F6000DF5FD93448F4A8016F2D8D2F0E9446020F
:100F7000C81302C0992021F381E098120EC0D93421
:100F800048F00BC098014E2D6F2D892D0E9408024C
:100F9000939401C09D2C9D16A8F3FC2CDA2D912C66
:100FA00018C08D2F90E001978134910584F08F2D2A
:100FB00090E0019609975CF4A80161E06F0D8FEF56
:100FC0008D0F0E944602E81202C099249394D150DA
:100FD000F394D13468F088E08F1550F0A8016F2D9C
:100FE0008D2F0E944602C81303C081E09812D9CF0A
:100FF00081E0981213C0D13488F088E08C1550F449
:101000000DC098014E2D692D8F2D0E9408029394DA
:10101000FA9402C0FA2C9C2CDF1598F3FB2CDD2DE2
:10102000912C19C08D2F90E00196893491058CF494
:101030008F2D90E00197181619065CF4A8016FEF48
:101040006F0D81E08D0F0E944602E81202C09924C4
:101050009394DF5FFA94D93460F4FF2051F0A80133
:101060006F2D8D2F0E944602C81303C081E0981295
:10107000D9CF81E0981214C0D93490F4B1100AC0CD
:101080000FC098014E2D692D8F2D0E9408029A9451
:10109000F39402C0FD2C9B2CFD1610F49110F1CF9F
:1010A000FB2CDA2D912C19C08D2F90E00197813403
:1010B00091058CF08F2D90E00197181619065CF4BD
:1010C000A8016FEF6F0D8FEF8D0F0E944602E8129F
:1010D00002C099249394D150FA94D13460F0FF2047
:1010E00051F0A8016F2D8D2F0E944602C81303C036
:1010F00081E09812D9CF81E0981211C0D13478F0F4
:10110000B11009C00CC098014E2D6B2D8A2D0E9484
:101110000802BA94AA94DA1510F4B110F4CFFC2C9A
:10112000DD2DB12C18C08D2F90E0019689349105EA
:1011300084F48F2D90E0019609975CF4A80161E09A
:101140006F0D81E08D0F0E944602E81202C0BB24A1
:10115000B394DF5FF394D93468F488E08F1550F0CE
:10116000A8016F2D8D2F0E944602C81303C081E095
:10117000B812D9CF81E0B81213C0D93488F488E00E
:101180008C1548F40DC098014E2D6C2D8D2D0E94AC
:101190000802C394D394DD1618F488E08C1598F7F0
:1011A000DF91CF911F910F91FF90EF90DF90CF9043
:1011B000BF90AF909F90089510926B0010926A00BC
:1011C00020E00BC0822F90E0FC01EC55FF4F108215
:1011D000FC01E458FF4F10822F5F283098F30895E8
:1011E00080E006C0E82FF0E0E454FF4F10828F5FEC
:1011F0008031C0F30E94DC082CEB30E047E564E06E
:1012000084E40E9408022CEB30E042E465E084E4D0
:101210000E9408022CEB30E042E464E085E40E9486
:1012200008022CEB30E047E565E085E40E94080207
:10123000089520E080E017C0E22FF0E0EC55FF4F6A
:10124000908190FD8F5F91FD8F5F92FD8F5F93FD89
:101250008F5F94FD8F5F95FD8F5F96FD8F5F992364
:101260000CF48F5F2F5F283010F4882329F3089542
:1012700020E080E017C0E22FF0E0E458FF4F9081BB
:1012800090FD8F5F91FD8F5F92FD8F5F93FD8F5F6C
:1012900094FD8F5F95FD8F5F96FD8F5F99230CF412
:1012A0008F5F2F5F283010F4882329F3089582344C
:1012B00069F4461718F40E94CD010895641718F4D4
:1012C0000E94DA0108950E94E7010895641718F456
:1012D0000E94CD010895461718F40E94DA0108957E
:1012E0000E94E701089530E043C0832F90E0FC01A5
:1012F000E454FF4F2081FC01E551FF4F2083FC01A6
:10130000E557FE4F2083FC01E459FF4F2083FC0189
:10131000E55AFE4F2083FC01E559FE4F2083FC0176
:10132000EC57FF4F2083FC01E550FF4F2083FC0169
:10133000EC56FF4F2083FC01E55BFE4F2083FC0150
:10134000E556FE4F2083FC01E55CFE4F2083FC0147
:10135000E455FF4F2083FC01E552FF4F2083FC0141
:10136000E55DFE4F2083FC01E55FFE4F20833F5F7C
:10137000303108F4BACF089520E030E031C0FB01ED
:10138000E20FF11D908194FF09C090FF04C08234E8
:1013900029F43F5F03C0873509F43F5F95FF09C01B
:1013A00091FF04C0823429F43F5F03C0873509F4FC
:1013B0003F5F96FF09C092FF04C0823429F43F5F6B
:1013C00003C0873509F43F5F99234CF493FF04C0B1
:1013D000823429F43F5F03C0873509F43F5F2F5FF4
:1013E000203168F2832F0895CF92DF92EF92FF921F
:1013F0000F931F93CF93DF93D82FD12CC12CC0E034
:101400000C947C180F2EF1E4FF2EF02DFD0CED2D29
:10141000F0E0EC55FF4FE080E0FECCC1CF5F8C2FB9
:1014200090E0FC013197EE30F10508F0A7C1E45CD3
:10143000FF4F0C94F81A2BEE30E04D2F61E08F2D0A
:101440000E9408020BEE10E02D2F4091630061E036
:101450008F2D0E94F106B8018D2F0E94BC09C8167D
:1014600008F0A8C1F092610091E090936000C82E4E
:10147000A1C12BE831E04D2F61E08F2D0E940802C1
:101480000BE811E02D2F4091630061E08F2D0E9449
:10149000F106B8018D2F0E94BC09C81608F08AC158
:1014A000F092610091E090936000C82E83C12CE619
:1014B00030E04D2F61E08F2D0E9408020CE610E015
:1014C0002D2F4091630061E08F2D0E94F106B8013D
:1014D0008D2F0E94BC09C81608F06CC1F092610003
:1014E00091E090936000C82E65C12BE531E04D2F4F
:1014F00061E08F2D0E9408020BE511E02D2F409135
:10150000630061E08F2D0E94F106B8018D2F0E94CB
:10151000BC09C81608F04EC1F092610091E09093AA
:101520006000C82E47C12BE631E04D2F61E08F2DC2
:101530000E9408020BE611E02D2F4091630061E04C
:101540008F2D0E94F106B8018D2F0E94BC09C8168C
:1015500008F030C1F092610091E090936000C82ED5
:1015600029C124E830E04D2F61E08F2D0E94080250
:1015700004E810E02D2F4091630061E08F2D0E9460
:10158000F106B8018D2F0E94BC09C81608F012C1DF
:10159000F092610091E090936000C82E0BC12BEF98
:1015A00030E04D2F61E08F2D0E9408020BEF10E01C
:1015B0002D2F4091630061E08F2D0E94F106B8014C
:1015C0008D2F0E94BC09C81608F0F4C0F09261008B
:1015D00091E090936000C82EEDC024E930E04D2FDB
:1015E00061E08F2D0E94080204E910E02D2F409148
:1015F000630061E08F2D0E94F106B8018D2F0E94DB
:10160000BC09C81608F0D6C0F092610091E0909332
:101610006000C82ECFC02BE431E04D2F61E08F2D4C
:101620000E9408020BE411E02D2F4091630061E05D
:101630008F2D0E94F106B8018D2F0E94BC09C8169B
:1016400008F0B8C0F092610091E090936000C82E5D
:10165000B1C02BE931E04D2F61E08F2D0E940802CF
:101660000BE911E02D2F4091630061E08F2D0E9466
:10167000F106B8018D2F0E94BC09C81608F09AC067
:10168000F092610091E090936000C82E93C02BE32C
:1016900031E04D2F61E08F2D0E9408020BE311E035
:1016A0002D2F4091630061E08F2D0E94F106B8015B
:1016B0008D2F0E94BC09C81608F07CC0F092610012
:1016C00091E090936000C82E75C02CEA30E04D2F59
:1016D00061E08F2D0E9408020CEA10E02D2F40914E
:1016E000630061E08F2D0E94F106B8018D2F0E94EA
:1016F000BC09C81608F05EC0F092610091E09093BA
:101700006000C82E57C02BED30E04D2F61E08F2DCB
:101710000E9408020BED10E02D2F4091630061E064
:101720008F2D0E94F106B8018D2F0E94BC09C816AA
:1017300008F040C0F092610091E090936000C82EE4
:1017400039C02BE231E04D2F61E08F2D0E9408025D
:101750000BE211E02D2F4091630061E08F2D0E947C
:10176000F106B8018D2F0E94BC09C81618F5F09239
:10177000610091E090936000C82E1CC02BE031E026
:101780004D2F61E08F2D0E9408020BE011E02D2FFC
:101790004091630061E08F2D0E94F106B8018D2F0A
:1017A0000E94BC09C81630F4F092610091E0909359
:1017B0006000C82EE1FECCC1CF5F8C2F90E0FC0111
:1017C0003197EE30F10508F0A7C1E65BFF4F0C94AE
:1017D000F81A2BEE30E04D2F62E08F2D0E940802A8
:1017E0000BEE10E02D2F4091630062E08F2D0E94E0
:1017F000F106B8018D2F0E94BC09C81608F0A8C1D7
:10180000F092610092E090936000C82EA1C12BE895
:1018100031E04D2F62E08F2D0E9408020BE811E0AD
:101820002D2F4091630062E08F2D0E94F106B801D8
:101830008D2F0E94BC09C81608F08AC1F092610081
:1018400092E090936000C82E83C12CE630E04D2FCB
:1018500062E08F2D0E9408020CE610E02D2F4091CF
:10186000630062E08F2D0E94F106B8018D2F0E9467
:10187000BC09C81608F06CC1F092610092E0909328
:101880006000C82E65C12BE531E04D2F62E08F2D41
:101890000E9408020BE511E02D2F4091630062E0E9
:1018A0008F2D0E94F106B8018D2F0E94BC09C81629
:1018B00008F04EC1F092610092E090936000C82E53
:1018C00047C12BE631E04D2F62E08F2D0E940802C8
:1018D0000BE611E02D2F4091630062E08F2D0E94F6
:1018E000F106B8018D2F0E94BC09C81608F030C15E
:1018F000F092610092E090936000C82E29C124E824
:1019000030E04D2F62E08F2D0E94080204E810E0C5
:101910002D2F4091630062E08F2D0E94F106B801E7
:101920008D2F0E94BC09C81608F012C1F092610008
:1019300092E090936000C82E0BC12BEF30E04D2F4A
:1019400062E08F2D0E9408020BEF10E02D2F4091D6
:10195000630062E08F2D0E94F106B8018D2F0E9476
:10196000BC09C81608F0F4C0F092610092E09093B0
:101970006000C82EEDC024E930E04D2F62E08F2DCD
:101980000E94080204E910E02D2F4091630062E0FC
:101990008F2D0E94F106B8018D2F0E94BC09C81638
:1019A00008F0D6C0F092610092E090936000C82EDB
:1019B000CFC02BE431E04D2F62E08F2D0E94080252
:1019C0000BE411E02D2F4091630062E08F2D0E9407
:1019D000F106B8018D2F0E94BC09C81608F0B8C0E6
:1019E000F092610092E090936000C82EB1C02BE9A4
:1019F00031E04D2F62E08F2D0E9408020BE911E0CB
:101A00002D2F4091630062E08F2D0E94F106B801F6
:101A10008D2F0E94BC09C81608F09AC0F092610090
:101A200092E090936000C82E93C02BE331E04D2FDD
:101A300062E08F2D0E9408020BE311E02D2F4091F0
:101A4000630062E08F2D0E94F106B8018D2F0E9485
:101A5000BC09C81608F07CC0F092610092E0909337
:101A60006000C82E75C02CEA30E04D2F62E08F2D4B
:101A70000E9408020CEA10E02D2F4091630062E002
:101A80008F2D0E94F106B8018D2F0E94BC09C81647
:101A900008F05EC0F092610092E090936000C82E62
:101AA00057C02BED30E04D2F62E08F2D0E940802D1
:101AB0000BED10E02D2F4091630062E08F2D0E940E
:101AC000F106B8018D2F0E94BC09C81608F040C06D
:101AD000F092610092E090936000C82E39C02BE232
:101AE00031E04D2F62E08F2D0E9408020BE211E0E1
:101AF0002D2F4091630062E08F2D0E94F106B80106
:101B00008D2F0E94BC09C81618F5F092610092E072
:101B100090936000C82E1CC02BE031E04D2F62E096
:101B20008F2D0E9408020BE011E02D2F40916300E1
:101B300062E08F2D0E94F106B8018D2F0E94BC0932
:101B4000C81630F4F092610092E090936000C82EC5
:101B5000E2FECCC1CF5F8C2F90E0FC013197EE30DC
:101B6000F10508F0A7C1E85AFF4F0C94F81A2BEEC4
:101B700030E04D2F63E08F2D0E9408020BEE10E045
:101B80002D2F4091630063E08F2D0E94F106B80174
:101B90008D2F0E94BC09C81608F0A8C1F092610000
:101BA00093E090936000C82EA1C12BE831E04D2F47
:101BB00063E08F2D0E9408020BE811E02D2F409169
:101BC000630063E08F2D0E94F106B8018D2F0E9403
:101BD000BC09C81608F08AC1F092610093E09093A6
:101BE0006000C82E83C12CE630E04D2F63E08F2DBE
:101BF0000E9408020CE610E02D2F4091630063E084
:101C00008F2D0E94F106B8018D2F0E94BC09C816C5
:101C100008F06CC1F092610093E090936000C82ED0
:101C200065C12BE531E04D2F63E08F2D0E94080246
:101C30000BE511E02D2F4091630063E08F2D0E9492
:101C4000F106B8018D2F0E94BC09C81608F04EC1DC
:101C5000F092610093E090936000C82E47C12BE69C
:101C600031E04D2F63E08F2D0E9408020BE611E05A
:101C70002D2F4091630063E08F2D0E94F106B80183
:101C80008D2F0E94BC09C81608F030C1F092610087
:101C900093E090936000C82E29C124E830E04D2FD6
:101CA00063E08F2D0E94080204E810E02D2F409180
:101CB000630063E08F2D0E94F106B8018D2F0E9412
:101CC000BC09C81608F012C1F092610093E090932D
:101CD0006000C82E0BC12BEF30E04D2F63E08F2D3D
:101CE0000E9408020BEF10E02D2F4091630063E08B
:101CF0008F2D0E94F106B8018D2F0E94BC09C816D5
:101D000008F0F4C0F092610093E090936000C82E58
:101D1000EDC024E930E04D2F63E08F2D0E940802D2
:101D200004E910E02D2F4091630063E08F2D0E94A5
:101D3000F106B8018D2F0E94BC09C81608F0D6C064
:101D4000F092610093E090936000C82ECFC02BE426
:101D500031E04D2F63E08F2D0E9408020BE411E06B
:101D60002D2F4091630063E08F2D0E94F106B80192
:101D70008D2F0E94BC09C81608F0B8C0F09261000F
:101D800093E090936000C82EB1C02BE931E04D2F55
:101D900063E08F2D0E9408020BE911E02D2F409186
:101DA000630063E08F2D0E94F106B8018D2F0E9421
:101DB000BC09C81608F09AC0F092610093E09093B5
:101DC0006000C82E93C02BE331E04D2F63E08F2DD0
:101DD0000E9408020BE311E02D2F4091630063E0A5
:101DE0008F2D0E94F106B8018D2F0E94BC09C816E4
:101DF00008F07CC0F092610093E090936000C82EE0
:101E000075C02CEA30E04D2F63E08F2D0E94080250
:101E10000CEA10E02D2F4091630063E08F2D0E94AB
:101E2000F106B8018D2F0E94BC09C81608F05EC0EB
:101E3000F092610093E090936000C82E57C02BEDA4
:101E400030E04D2F63E08F2D0E9408020BED10E073
:101E50002D2F4091630063E08F2D0E94F106B801A1
:101E60008D2F0E94BC09C81608F040C0F092610096
:101E700093E090936000C82E39C02BE231E04D2FE3
:101E800063E08F2D0E9408020BE211E02D2F40919C
:101E9000630063E08F2D0E94F106B8018D2F0E9430
:101EA000BC09C81618F5F092610093E090936000A9
:101EB000C82E1CC02BE031E04D2F63E08F2D0E9417
:101EC00008020BE011E02D2F4091630063E08F2D9D
:101ED0000E94F106B8018D2F0E94BC09C81630F48B
:101EE000F092610093E090936000C82EE3FECCC1B5
:101EF000CF5F8C2F90E0FC013197EE30F10508F0B8
:101F0000A7C1EA59FF4F0C94F81A2BEE30E04D2F81
:101F100064E08F2D0E9408020BEE10E02D2F4091FF
:101F2000630064E08F2D0E94F106B8018D2F0E949E
:101F3000BC09C81608F0A8C1F092610094E0909323
:101F40006000C82EA1C12BE831E04D2F64E08F2D39
:101F50000E9408020BE811E02D2F4091630064E01D
:101F60008F2D0E94F106B8018D2F0E94BC09C81662
:101F700008F08AC1F092610094E090936000C82E4E
:101F800083C12CE630E04D2F64E08F2D0E940802C3
:101F90000CE610E02D2F4091630064E08F2D0E942D
:101FA000F106B8018D2F0E94BC09C81608F06CC15B
:101FB000F092610094E090936000C82E65C12BE51B
:101FC00031E04D2F64E08F2D0E9408020BE511E0F7
:101FD0002D2F4091630064E08F2D0E94F106B8011F
:101FE0008D2F0E94BC09C81608F04EC1F092610006
:101FF00094E090936000C82E47C12BE631E04D2F4E
:1020000064E08F2D0E9408020BE611E02D2F409115
:10201000630064E08F2D0E94F106B8018D2F0E94AD
:10202000BC09C81608F030C1F092610094E09093AA
:102030006000C82E29C124E830E04D2F64E08F2DC8
:102040000E94080204E810E02D2F4091630064E034
:102050008F2D0E94F106B8018D2F0E94BC09C81671
:1020600008F012C1F092610094E090936000C82ED5
:102070000BC12BEF30E04D2F64E08F2D0E94080242
:102080000BEF10E02D2F4091630064E08F2D0E9434
:10209000F106B8018D2F0E94BC09C81608F0F4C0E3
:1020A000F092610094E090936000C82EEDC024E9A6
:1020B00030E04D2F64E08F2D0E94080204E910E00B
:1020C0002D2F4091630064E08F2D0E94F106B8012E
:1020D0008D2F0E94BC09C81608F0D6C0F09261008E
:1020E00094E090936000C82ECFC02BE431E04D2FD8
:1020F00064E08F2D0E9408020BE411E02D2F409127
:10210000630064E08F2D0E94F106B8018D2F0E94BC
:10211000BC09C81608F0B8C0F092610094E0909332
:102120006000C82EB1C02BE931E04D2F64E08F2D47
:102130000E9408020BE911E02D2F4091630064E03A
:102140008F2D0E94F106B8018D2F0E94BC09C81680
:1021500008F09AC0F092610094E090936000C82E5D
:1021600093C02BE331E04D2F64E08F2D0E940802D5
:102170000BE311E02D2F4091630064E08F2D0E944E
:10218000F106B8018D2F0E94BC09C81608F07CC06A
:10219000F092610094E090936000C82E75C02CEA24
:1021A00030E04D2F64E08F2D0E9408020CEA10E011
:1021B0002D2F4091630064E08F2D0E94F106B8013D
:1021C0008D2F0E94BC09C81608F05EC0F092610015
:1021D00094E090936000C82E57C02BED30E04D2F57
:1021E00064E08F2D0E9408020BED10E02D2F40912E
:1021F000630064E08F2D0E94F106B8018D2F0E94CC
:10220000BC09C81608F040C0F092610094E09093B9
:102210006000C82E39C02BE231E04D2F64E08F2DD5
:102220000E9408020BE211E02D2F4091630064E050
:102230008F2D0E94F106B8018D2F0E94BC09C8168F
:1022400018F5F092610094E090936000C82E1CC0D5
:102250002BE031E04D2F64E08F2D0E9408020BE04F
:1022600011E02D2F4091630064E08F2D0E94F10654
:10227000B8018D2F0E94BC09C81630F4F09261009D
:1022800094E090936000C82ECF5F8C2F90E0FC010B
:102290003197EE30F10508F0A7C1EC58FF4F0C94D0
:1022A000F81A2BEE30E04D2F65E08F2D0E940802CA
:1022B0000BEE10E02D2F4091630065E08F2D0E9402
:1022C000F106B8018D2F0E94BC09C81608F0A8C1FC
:1022D000F092610095E090936000C82EA1C12BE8B8
:1022E00031E04D2F65E08F2D0E9408020BE811E0D0
:1022F0002D2F4091630065E08F2D0E94F106B801FB
:102300008D2F0E94BC09C81608F08AC1F0926100A6
:1023100095E090936000C82E83C12CE630E04D2FED
:1023200065E08F2D0E9408020CE610E02D2F4091F1
:10233000630065E08F2D0E94F106B8018D2F0E9489
:10234000BC09C81608F06CC1F092610095E090934A
:102350006000C82E65C12BE531E04D2F65E08F2D63
:102360000E9408020BE511E02D2F4091630065E00B
:102370008F2D0E94F106B8018D2F0E94BC09C8164E
:1023800008F04EC1F092610095E090936000C82E75
:1023900047C12BE631E04D2F65E08F2D0E940802EA
:1023A0000BE611E02D2F4091630065E08F2D0E9418
:1023B000F106B8018D2F0E94BC09C81608F030C183
:1023C000F092610095E090936000C82E29C124E846
:1023D00030E04D2F65E08F2D0E94080204E810E0E8
:1023E0002D2F4091630065E08F2D0E94F106B8010A
:1023F0008D2F0E94BC09C81608F012C1F09261002E
:1024000095E090936000C82E0BC12BEF30E04D2F6C
:1024100065E08F2D0E9408020BEF10E02D2F4091F8
:10242000630065E08F2D0E94F106B8018D2F0E9498
:10243000BC09C81608F0F4C0F092610095E09093D2
:102440006000C82EEDC024E930E04D2F65E08F2DEF
:102450000E94080204E910E02D2F4091630065E01E
:102460008F2D0E94F106B8018D2F0E94BC09C8165D
:1024700008F0D6C0F092610095E090936000C82EFD
:10248000CFC02BE431E04D2F65E08F2D0E94080274
:102490000BE411E02D2F4091630065E08F2D0E9429
:1024A000F106B8018D2F0E94BC09C81608F0B8C00B
:1024B000F092610095E090936000C82EB1C02BE9C6
:1024C00031E04D2F65E08F2D0E9408020BE911E0ED
:1024D0002D2F4091630065E08F2D0E94F106B80119
:1024E0008D2F0E94BC09C81608F09AC0F0926100B6
:1024F00095E090936000C82E93C02BE331E04D2F00
:1025000065E08F2D0E9408020BE311E02D2F409112
:10251000630065E08F2D0E94F106B8018D2F0E94A7
:10252000BC09C81608F07CC0F092610095E0909359
:102530006000C82E75C02CEA30E04D2F65E08F2D6D
:102540000E9408020CEA10E02D2F4091630065E024
:102550008F2D0E94F106B8018D2F0E94BC09C8166C
:1025600008F05EC0F092610095E090936000C82E84
:1025700057C02BED30E04D2F65E08F2D0E940802F3
:102580000BED10E02D2F4091630065E08F2D0E9430
:10259000F106B8018D2F0E94BC09C81608F040C092
:1025A000F092610095E090936000C82E39C02BE254
:1025B00031E04D2F65E08F2D0E9408020BE211E003
:1025C0002D2F4091630065E08F2D0E94F106B80128
:1025D0008D2F0E94BC09C81618F5F092610095E095
:1025E00090936000C82E1CC02BE031E04D2F65E0B9
:1025F0008F2D0E9408020BE011E02D2F4091630007
:1026000065E08F2D0E94F106B8018D2F0E94BC0954
:10261000C81630F4F092610095E090936000C82EE7
:10262000E5FECCC1CF5F8C2F90E0FC013197EE30FE
:10263000F10508F0A7C1EE57FF4F0C94F81A2BEEE6
:1026400030E04D2F66E08F2D0E9408020BEE10E067
:102650002D2F4091630066E08F2D0E94F106B80196
:102660008D2F0E94BC09C81608F0A8C1F092610025
:1026700096E090936000C82EA1C12BE831E04D2F69
:1026800066E08F2D0E9408020BE811E02D2F40918B
:10269000630066E08F2D0E94F106B8018D2F0E9425
:1026A000BC09C81608F08AC1F092610096E09093C8
:1026B0006000C82E83C12CE630E04D2F66E08F2DE0
:1026C0000E9408020CE610E02D2F4091630066E0A6
:1026D0008F2D0E94F106B8018D2F0E94BC09C816EB
:1026E00008F06CC1F092610096E090936000C82EF3
:1026F00065C12BE531E04D2F66E08F2D0E94080269
:102700000BE511E02D2F4091630066E08F2D0E94B4
:10271000F106B8018D2F0E94BC09C81608F04EC101
:10272000F092610096E090936000C82E47C12BE6BE
:1027300031E04D2F66E08F2D0E9408020BE611E07C
:102740002D2F4091630066E08F2D0E94F106B801A5
:102750008D2F0E94BC09C81608F030C1F0926100AC
:1027600096E090936000C82E29C124E830E04D2FF8
:1027700066E08F2D0E94080204E810E02D2F4091A2
:10278000630066E08F2D0E94F106B8018D2F0E9434
:10279000BC09C81608F012C1F092610096E090934F
:1027A0006000C82E0BC12BEF30E04D2F66E08F2D5F
:1027B0000E9408020BEF10E02D2F4091630066E0AD
:1027C0008F2D0E94F106B8018D2F0E94BC09C816FA
:1027D00008F0F4C0F092610096E090936000C82E7B
:1027E000EDC024E930E04D2F66E08F2D0E940802F5
:1027F00004E910E02D2F4091630066E08F2D0E94C8
:10280000F106B8018D2F0E94BC09C81608F0D6C089
:10281000F092610096E090936000C82ECFC02BE448
:1028200031E04D2F66E08F2D0E9408020BE411E08D
:102830002D2F4091630066E08F2D0E94F106B801B4
:102840008D2F0E94BC09C81608F0B8C0F092610034
:1028500096E090936000C82EB1C02BE931E04D2F77
:1028600066E08F2D0E9408020BE911E02D2F4091A8
:10287000630066E08F2D0E94F106B8018D2F0E9443
:10288000BC09C81608F09AC0F092610096E09093D7
:102890006000C82E93C02BE331E04D2F66E08F2DF2
:1028A0000E9408020BE311E02D2F4091630066E0C7
:1028B0008F2D0E94F106B8018D2F0E94BC09C81609
:1028C00008F07CC0F092610096E090936000C82E02
:1028D00075C02CEA30E04D2F66E08F2D0E94080273
:1028E0000CEA10E02D2F4091630066E08F2D0E94CE
:1028F000F106B8018D2F0E94BC09C81608F05EC011
:10290000F092610096E090936000C82E57C02BEDC6
:1029100030E04D2F66E08F2D0E9408020BED10E095
:102920002D2F4091630066E08F2D0E94F106B801C3
:102930008D2F0E94BC09C81608F040C0F0926100BB
:1029400096E090936000C82E39C02BE231E04D2F05
:1029500066E08F2D0E9408020BE211E02D2F4091BE
:10296000630066E08F2D0E94F106B8018D2F0E9452
:10297000BC09C81618F5F092610096E090936000CB
:10298000C82E1CC02BE031E04D2F66E08F2D0E9439
:1029900008020BE011E02D2F4091630066E08F2DBF
:1029A0000E94F106B8018D2F0E94BC09C81630F4B0
:1029B000F092610096E090936000C82EE6FECCC1D4
:1029C000CF5F8C2F90E0FC013197EE30F10508F0DD
:1029D000A7C1E057FF4F0C94F81A2BEE30E04D2FB3
:1029E00067E08F2D0E9408020BEE10E02D2F409122
:1029F000630067E08F2D0E94F106B8018D2F0E94C1
:102A0000BC09C81608F0A8C1F092610097E0909345
:102A10006000C82EA1C12BE831E04D2F67E08F2D5B
:102A20000E9408020BE811E02D2F4091630067E03F
:102A30008F2D0E94F106B8018D2F0E94BC09C81687
:102A400008F08AC1F092610097E090936000C82E70
:102A500083C12CE630E04D2F67E08F2D0E940802E5
:102A60000CE610E02D2F4091630067E08F2D0E944F
:102A7000F106B8018D2F0E94BC09C81608F06CC180
:102A8000F092610097E090936000C82E65C12BE53D
:102A900031E04D2F67E08F2D0E9408020BE511E019
:102AA0002D2F4091630067E08F2D0E94F106B80141
:102AB0008D2F0E94BC09C81608F04EC1F09261002B
:102AC00097E090936000C82E47C12BE631E04D2F70
:102AD00067E08F2D0E9408020BE611E02D2F409138
:102AE000630067E08F2D0E94F106B8018D2F0E94D0
:102AF000BC09C81608F030C1F092610097E09093CD
:102B00006000C82E29C124E830E04D2F67E08F2DEA
:102B10000E94080204E810E02D2F4091630067E056
:102B20008F2D0E94F106B8018D2F0E94BC09C81696
:102B300008F012C1F092610097E090936000C82EF7
:102B40000BC12BEF30E04D2F67E08F2D0E94080264
:102B50000BEF10E02D2F4091630067E08F2D0E9456
:102B6000F106B8018D2F0E94BC09C81608F0F4C008
:102B7000F092610097E090936000C82EEDC024E9C8
:102B800030E04D2F67E08F2D0E94080204E910E02D
:102B90002D2F4091630067E08F2D0E94F106B80150
:102BA0008D2F0E94BC09C81608F0D6C0F0926100B3
:102BB00097E090936000C82ECFC02BE431E04D2FFA
:102BC00067E08F2D0E9408020BE411E02D2F409149
:102BD000630067E08F2D0E94F106B8018D2F0E94DF
:102BE000BC09C81608F0B8C0F092610097E0909355
:102BF0006000C82EB1C02BE931E04D2F67E08F2D6A
:102C00000E9408020BE911E02D2F4091630067E05C
:102C10008F2D0E94F106B8018D2F0E94BC09C816A5
:102C200008F09AC0F092610097E090936000C82E7F
:102C300093C02BE331E04D2F67E08F2D0E940802F7
:102C40000BE311E02D2F4091630067E08F2D0E9470
:102C5000F106B8018D2F0E94BC09C81608F07CC08F
:102C6000F092610097E090936000C82E75C02CEA46
:102C700030E04D2F67E08F2D0E9408020CEA10E033
:102C80002D2F4091630067E08F2D0E94F106B8015F
:102C90008D2F0E94BC09C81608F05EC0F09261003A
:102CA00097E090936000C82E57C02BED30E04D2F79
:102CB00067E08F2D0E9408020BED10E02D2F409150
:102CC000630067E08F2D0E94F106B8018D2F0E94EE
:102CD000BC09C81608F040C0F092610097E09093DC
:102CE0006000C82E39C02BE231E04D2F67E08F2DF8
:102CF0000E9408020BE211E02D2F4091630067E073
:102D00008F2D0E94F106B8018D2F0E94BC09C816B4
:102D100018F5F092610097E090936000C82E1CC0F7
:102D20002BE031E04D2F67E08F2D0E9408020BE071
:102D300011E02D2F4091630067E08F2D0E94F10676
:102D4000B8018D2F0E94BC09C81630F4F0926100C2
:102D500097E090936000C82EEE200CF0CCC1CF5FBE
:102D60008C2F90E0FC013197EE30F10508F0A7C1FF
:102D7000E256FF4F0C94F81A2BEE30E04D2F68E02E
:102D80008F2D0E9408020BEE10E02D2F4091630062
:102D900068E08F2D0E94F106B8018D2F0E94BC09BA
:102DA000C81608F0A8C1F092610098E09093600006
:102DB000C82EA1C12BE831E04D2F68E08F2D0E9475
:102DC00008020BE811E02D2F4091630068E08F2D81
:102DD0000E94F106B8018D2F0E94BC09C81608F0A8
:102DE0008AC1F092610098E090936000C82E83C180
:102DF0002CE630E04D2F68E08F2D0E9408020CE693
:102E000010E02D2F4091630068E08F2D0E94F106A5
:102E1000B8018D2F0E94BC09C81608F06CC1F09251
:102E2000610098E090936000C82E65C12BE531E009
:102E30004D2F68E08F2D0E9408020BE511E02D2F29
:102E40004091630068E08F2D0E94F106B8018D2F3C
:102E50000E94BC09C81608F04EC1F092610098E0CB
:102E600090936000C82E47C12BE631E04D2F68E0FB
:102E70008F2D0E9408020BE611E02D2F4091630078
:102E800068E08F2D0E94F106B8018D2F0E94BC09C9
:102E9000C81608F030C1F092610098E0909360008D
:102EA000C82E29C124E830E04D2F68E08F2D0E9404
:102EB000080204E810E02D2F4091630068E08F2D98
:102EC0000E94F106B8018D2F0E94BC09C81608F0B7
:102ED00012C1F092610098E090936000C82E0BC17F
:102EE0002BEF30E04D2F68E08F2D0E9408020BEF92
:102EF00010E02D2F4091630068E08F2D0E94F106B5
:102F0000B8018D2F0E94BC09C81608F0F4C0F092D9
:102F1000610098E090936000C82EEDC024E930E095
:102F20004D2F68E08F2D0E94080204E910E02D2F3C
:102F30004091630068E08F2D0E94F106B8018D2F4B
:102F40000E94BC09C81608F0D6C0F092610098E053
:102F500090936000C82ECFC02BE431E04D2F68E085
:102F60008F2D0E9408020BE411E02D2F4091630089
:102F700068E08F2D0E94F106B8018D2F0E94BC09D8
:102F8000C81608F0B8C0F092610098E09093600015
:102F9000C82EB1C02BE931E04D2F68E08F2D0E9483
:102FA00008020BE911E02D2F4091630068E08F2D9E
:102FB0000E94F106B8018D2F0E94BC09C81608F0C6
:102FC0009AC0F092610098E090936000C82E93C080
:102FD0002BE331E04D2F68E08F2D0E9408020BE3B8
:102FE00011E02D2F4091630068E08F2D0E94F106C3
:102FF000B8018D2F0E94BC09C81608F07CC0F09261
:10300000610098E090936000C82E75C02CEA30E013
:103010004D2F68E08F2D0E9408020CEA10E02D2F42
:103020004091630068E08F2D0E94F106B8018D2F5A
:103030000E94BC09C81608F05EC0F092610098E0DA
:1030400090936000C82E57C02BED30E04D2F68E004
:103050008F2D0E9408020BED10E02D2F4091630090
:1030600068E08F2D0E94F106B8018D2F0E94BC09E7
:10307000C81608F040C0F092610098E0909360009C
:10308000C82E39C02BE231E04D2F68E08F2D0E9411
:1030900008020BE211E02D2F4091630068E08F2DB4
:1030A0000E94F106B8018D2F0E94BC09C81618F5C0
:1030B000F092610098E090936000C82E1CC02BE055
:1030C00031E04D2F68E08F2D0E9408020BE011E0E7
:1030D0002D2F4091630068E08F2D0E94F106B8010A
:1030E0008D2F0E94BC09C81630F4F092610098E060
:1030F00090936000C82ED39487E08D1510F00C9447
:10310000020ADF91CF911F910F91FF90EF90DF9016
:10311000CF900895EF92FF920F931F93CF93DF9379
:103120007C01EC0109900020E9F72197C81BD90B1D
:10313000C230D10589F4FC018081813469F4818138
:10314000843551F48FE40E9417018BE40E9417012B
:103150008DE00E94170115C2C330D105A1F4F7011B
:103160008081823581F48181833569F4828184355F
:1031700051F48FE40E9417018BE40E9417018DE047
:103180000E941701FEC1C430D10581F5F70180818D
:10319000833561F58181803549F58281803231F551
:1031A0008381823411F0873509F5823479F4809374
:1031B000630087E5809362008FE40E9417018BE42F
:1031C0000E9417018DE00E941701DBC187E5809303
:1031D000630082E4809362008FE40E9417018BE415
:1031E0000E9417018DE00E941701CBC1C230D105AA
:1031F000B9F4F70180818E3499F48181873481F4A8
:103200000E94F008809162000E9430068FE40E94C4
:1032100017018BE40E9417018DE00E941701B1C1D4
:10322000C230D105A9F5F7018081853489F5818106
:10323000873471F58EB58B7F8EBD1DBC1CBC909103
:10324000660080916400891710F40E94FE011092BC
:1032500066000E94190981110EC00E94380981116F
:103260000AC08FE40E9417018BE40E9417018DE0D1
:103270000E94170109C080E50E9417018CE40E949A
:1032800017018DE00E9417018EB584608EBD79C153
:10329000C430D10539F5F7018081833519F5818175
:1032A000843501F582818032E9F483810E945E01D8
:1032B0008823C1F08A30B0F48EB58B7F8EBDF701C4
:1032C00083810E945E01809364008FE40E94170155
:1032D0008BE40E9417018DE00E9417018EB5846077
:1032E0008EBD4FC1C230D10509F040C0F7018081C9
:1032F0008F34E1F581818B34C9F50E941909882347
:1033000079F10E94DC08809162000E9430060E94E0
:103310007309809162000E94F4092CEB30E0409127
:10332000620060916000809161000E9408020CEBD5
:1033300010E02091620040916300609160008091F4
:1033400061000E94F1060E94DC08809162000E94E8
:10335000300660916000809161000E94A80102C067
:103360000E94C3018EB584608EBD0BC1C530D105EE
:1033700009F066C0F70180818D3409F061C0818158
:10338000863509F05DC08281803209F059C08381A1
:103390008154883008F054C084818153883008F00B
:1033A0004FC08EB58B7F8EBD1DBC1CBC909166003E
:1033B00080916400891730F488B38B7F88BB0E94AA
:1033C000FE0103C088B3806288BB10926600F701DB
:1033D00084810E945E01D82FF701C381682F8C2F52
:1033E0000E946D02813049F52CEB30E04091630082
:1033F0006D2F8C2F0E940802D0916300C091620053
:10340000F70184810E945E010CEB10E02D2F4C2F00
:10341000682FF70183810E94F1060E94DC088091E9
:1034200062000E9430068FE40E9417018BE40E9424
:1034300017018DE00E941701A4C00E94F401A1C0F1
:10344000C230D10509F077C0F7018081803509F0DD
:1034500072C08181833509F06EC08EB58B7F8EBDC1
:103460001DBC1CBC9091660080916400891730F4EB
:1034700088B38B7F88BB0E94FE0103C088B3806243
:1034800088BB109266008FE40E9417018BE40E94B3
:1034900017018DE00E9417010E943809811148C070
:1034A0000E941909811112C085E40E94170187E466
:1034B0000E9417018DE00E94170140916A006091FF
:1034C0006B00809162000E9457095BC00E94DC087B
:1034D000809162000E9430060E9473098091620010
:1034E0000E94F4092CEB30E0409162006091600092
:1034F000809161000E9408020CEB10E020916200B4
:103500004091630060916000809161000E94F1062B
:103510000E94DC08809162000E9430066091600089
:10352000809161000E94A8018EB584608EBD29C083
:103530000E94F40126C0C230D10539F4F701808120
:10354000803519F481818C34E1F0229789F4F701F8
:103550008081873569F481818E3451F48FE40E9433
:1035600017018BE40E9417018DE00E94170109C02A
:1035700080E50E9417018CE40E9417018DE00E94F3
:103580001701DF91CF911F910F91FF90EF90089558
:103590001F920F920FB60F9211242F933F934F93C8
:1035A0005F936F937F938F939F93AF93BF93EF93AB
:1035B000FF938CB18D3019F00E94340108C08BE765
:1035C00091E00E947C018BE791E00E948A18FF91B4
:1035D000EF91BF91AF919F918F917F916F915F918B
:1035E0004F913F912F910F900FBE0F901F90189504
:1035F000EE0FFF1F0590F491E02D0994F894FFCF92
:0636000001412020020040
:00000001FF
