S01600004D696C6573746F6E655F746573742E737265633F
S11300000C942A000C9447000C9447000C9447006D
S11300100C9447000C9447000C9447000C94470040
S11300200C9447000C9447000C9447000C94470030
S11300300C9447000C9447000C9447000C94470020
S11300400C9447000C9447000C9447000C94470010
S11300500C94470011241FBECFE5D4E0DEBFCDBF12
S113006010E0A0E6B0E0E0E9F0E102C005900D92F6
S1130070A436B107D9F720E0A4E6B0E001C01D9290
S1130080A438B207E1F70E9408080C9446080C94BF
S113009000008154880F653010F4615002C08F5FF6
S11300A0655090E0FC01EC58FF4F7081423491F4AC
S11300B044E0460F21E030E0F90102C0EE0FFF1FDB
S11300C04A95E2F702C0220F331F6A95E2F7272B05
S11300D02E2B12C021E030E0A901062E02C0440FED
S11300E0551F0A94E2F76C5F02C0220F331F6A9512
S11300F0E2F740954723242BFC01EC58FF4F208363
S113010008958154880F653010F4615002C08F5FE8
S11301106550E82FF0E0EC58FF4F808190E024E038
S1130120260FAC0102C0559547952A95E2F740FF8A
S113013009C002C0959587956A95E2F780FD04C0D1
S113014087E5089585E4089582E408958154E82FAD
S1130150F0E0615081E090E002C0880F991F6A9539
S1130160E2F7E459FF4F9081892B808308958154ED
S1130170E82FF0E0615081E090E002C0880F991F01
S11301806A95E2F7EC59FF4F9081892B808308959B
S11301907F928F929F92AF92BF92CF92DF92EF9213
S11301A0FF920F931F93CF93DF93C82FD62FC42EA4
S11301B0D22E82E44813A3C101E0060F093040F0B7
S11301C023C0823409F435C31F5F193011F41CC0F5
S11301D0102F612F8C2F0E948100853491F714C059
S11301E01FEF1D0F612F8C2F0E948100853461F455
S11301F092E4D91205C0612F8C2F0E94A60004C07E
S1130200612F8C2F0E94B700CC24CA94CD0E81E0BC
S11302108C1540F021C0823409F413C311501130FD
S113022011F41AC01C2D612F8C2F0E94810085347B
S113023091F712C0602F8C2F0E948100853461F4E5
S113024092E4D91205C0602F8C2F0E94A60004C02E
S1130250602F8C2F0E94B700BB24BA94BC0E80E49C
S11302608B1540F0FDC2823409F4F2C211501034EF
S113027011F41CC01B2D6D2F812F0E948100853429
S113028091F714C011E01C0F6D2F812F0E94810083
S1130290853461F492E4D91205C06D2F812F0E9438
S11302A0A60004C06D2F812F0E94B70011E01C0F1F
S11302B0193448F01DC0823409F4D8C2F39489E497
S11302C0F81202C015C0F12E6D2F8F2D0E948100EF
S11302D0853489F70DC06D2F8B2D0E9481008534E4
S11302E039F492E4D9120BC06D2F8B2D0E94A60015
S11302F080E48B1508F03FC0093098F03CC06D2FA6
S11303008B2D0E94B700F4CFA92C823409F0A82CBD
S1130310FA94E39490E4F91691F089E0E81207C0A6
S11303200EC0E02EFB2CA12C99249394812C6E2DCD
S11303308F2D0E948100853411F0AA2029F391E0C9
S1130340A91219C08C2F90E00196893491059CF470
S11303508D2F90E00197181619066CF46C2D812FDF
S11303600E948100853439F482E4D8120AC06C2DCD
S1130370812F0E94A600193408F080C2C11010C059
S113038077C06C2D812F0E94B700F5CFF394EA94C7
S113039099E4F91671F0EE2061F0823419F409C081
S11303A0EC2CF12E6E2D8F2D0E948100853471F777
S11303B01FC0823409F067C28C2F90E0019781340A
S11303C091050CF460C28D2F90E0019609970CF012
S11303D05AC2602F8B2D0E948100853409F053C2CC
S11303E082E4D8120BC0602F8B2D0E94A6004BC252
S11303F090E49B15E8F5C11012C03AC0602F8B2D14
S11304000E94B70040C2A92C823409F0A82CFA94A7
S1130410EA9480E4F81689F0E11007C00EC0EC2CD1
S1130420FB2CA12C99249394812C6E2D8F2D0E944A
S11304308100853411F0AA2031F391E0A91218C08B
S11304408C2F90E001968934910594F48D2F90E0DF
S1130450019609976CF4602F812F0E9481008534E6
S113046039F482E4D8120AC0602F812F0E94A600BA
S1130470193408F03BC2093088F038C2602F812F4C
S11304800E94B700F5CFFE2C823409F0FA2C1F5FCE
S11304900F5F193479F0093029F40CC0F12CEE24E3
S11304A0E394A12C602F812F0E948100853411F0E8
S11304B0FF2049F391E0F91219C28C2F90E00197C3
S11304C0813491050CF412C28D2F90E00197181617
S11304D019060CF00BC26C2D8B2D0E948100853403
S11304E009F004C282E4D81205C06C2D8B2D0E9441
S11304F0A600FCC16C2D8B2D0E94B700F7C101E052
S1130500060F093040F022C0873509F4C1C11F5FCE
S1130510193011F41BC0102F612F8C2F0E94810001
S1130520853491F713C01FEF1D0F612F8C2F0E948C
S11305308100853459F4CD1005C0612F8C2F0E94A1
S1130540A60004C0612F8C2F0E94B700BB24BA946C
S1130550BD0E91E09B1540F020C0873509F4A0C181
S11305601150113011F419C01B2D612F8C2F0E94D2
S11305708100853491F711C0602F8C2F0E94810077
S1130580853459F4CD1005C0602F8C2F0E94A6002D
S113059004C0602F8C2F0E94B700AA24AA94AC0E2A
S11305A080E48A1540F08BC1873509F480C111506D
S11305B0103411F41BC01A2D6D2F812F0E9481005D
S11305C0853491F713C011E01C0F6D2F812F0E9409
S11305D08100853459F4CD1005C06D2F812F0E9400
S11305E0A60004C06D2F812F0E94B70011E01C0FDC
S11305F0193448F01CC0873509F467C1F39499E4B1
S1130600F91202C014C0F12E6D2F8F2D0E948100AB
S1130610853489F70CC06D2F8A2D0E9481008534A2
S113062031F4CD100AC06D2F8A2D0E94A60080E4FB
S11306308A15F0F5093098F03BC06D2F8A2D0E9481
S1130640B700F5CF982C873509F0972CFA94E394EA
S113065090E4F91691F089E0E81207C00EC0E02E8C
S1130660FA2C912C88248394712C6E2D8F2D0E944A
S11306708100853411F0992029F391E0991218C072
S11306808C2F90E001968934910594F48D2F90E09D
S113069001971816190664F46B2D812F0E948100AE
S11306A0853431F4CD100AC06B2D812F0E94A60031
S11306B0193408F017C1B11010C075C06B2D812F0B
S11306C00E94B700F5CFF394EA9499E4F91671F017
S11306D0EE2061F0873519F409C0EB2CF12E6E2D54
S11306E08F2D0E948100853471F71EC0873509F073
S11306F0F4C08C2F90E00197813491050CF4EDC087
S11307008D2F90E0019609970CF0E7C0602F8A2D99
S11307100E948100853409F0E0C0CD100BC0602F29
S11307208A2D0E94A600D9C080E48A15E0F5B11094
S113073012C039C0602F8A2D0E94B700CEC0982CF9
S1130740873509F0972CFA94EA9490E4F91689F025
S1130750E11007C00EC0EB2CFA2C912C8824839452
S1130760712C6E2D8F2D0E948100853411F09920FB
S113077031F381E0981217C08C2F90E001968934F0
S113078091058CF48D2F90E00196099764F4602F05
S1130790812F0E948100853431F4CD100AC0602F6E
S11307A0812F0E94A600193408F0A0C0093088F0F7
S11307B09DC0602F812F0E94B700F5CFFE2C873596
S11307C009F0F92C1F5F0F5F193479F0093029F40F
S11307D00CC0F12CEE24E394912C602F812F0E9405
S11307E08100853411F0FF2049F391E0F9127EC0B5
S11307F08C2F90E00197813491050CF477C08D2FF4
S113080090E00197181619060CF070C06B2D8A2D14
S11308100E948100853409F069C0CD1005C06B2D9C
S11308208A2D0E94A60062C06B2D8A2D0E94B700FB
S11308305DC08D2F90E00197181619060CF4D0CCEA
S1130840E3CC8D2F90E0019609970CF4F3CC04CD02
S11308508C2F90E00196893491050CF413CD26CDAC
S113086011E01C0F193408F42ECD85CD8C2F90E0A7
S11308700197813491050CF02ECD3ACD80E48B158F
S113088008F4B9CD33C090E49B1508F4C8CDF0CD7D
S11308908D2F90E00197181619060CF444CE56CE0D
S11308A08D2F90E0019609970CF466CE76CE8C2FAE
S11308B090E00196893491050CF485CE97CE11E031
S11308C01C0F193408F49FCEF3CE8C2F90E00197BF
S11308D0813491050CF09FCEAACE80E48A1508F4E9
S11308E03ACF61CF90E49A1508F421CFDF91CF91EC
S11308F01F910F91FF90EF90DF90CF90BF90AF903A
S11309009F908F907F9008954F925F926F927F9205
S11309108F929F92AF92BF92CF92DF92EF92FF920B
S11309200F931F93CF93DF93082F0F2EF4E7EF2E2F
S1130930F0E0FF2EF02D10E0C12C442443940F2E40
S1130940F5E05F2EF02D6894662461F80F2EF6E032
S11309507F2EF02D0F2EF3E08F2EF02D0F2EF7E0CB
S11309609F2EF02D6894AA24A2F86894BB24B3F8AF
S1130970C12FC695CF5BF701D1917F01D4FF19C078
S113098010FF02C0D52C01C0D42C6D2D8C2F0E94D9
S11309908100873541F4C394202F42E46D2D8C2FC0
S11309A00E94C80006C0202F47E56D2D8C2F0E94A1
S11309B0C800D5FF19C010FF02C0D72C01C0D62C27
S11309C06D2D8C2F0E948100873541F4C394202F14
S11309D042E46D2D8C2F0E94C80006C0202F47E5ED
S11309E06D2D8C2F0E94C800D6FF19C010FF02C0C5
S11309F0D92C01C0D82C6D2D8C2F0E9481008735F5
S1130A0041F4C394202F42E46D2D8C2F0E94C80022
S1130A1006C0202F47E56D2D8C2F0E94C800DD23D2
S1130A20CCF410FF02C0DB2D01C0DA2D6D2F8C2F0A
S1130A300E948100873541F4C394202F42E46D2F36
S1130A408C2F0E94C80006C0202F47E56D2F8C2FE5
S1130A500E94C8001F5F103109F08ACF8C2DDF91EE
S1130A60CF911F910F91FF90EF90DF90CF90BF90A7
S1130A70AF909F908F907F906F905F904F9008956C
S1130A801F93CF93DF93ECE6F0E030E0D0E051E049
S1130A9072E060E013E0C4E0B5E0A6E047E001C026
S1130AA0392F919190FD04C091FD05C0262F05C0FA
S1130AB0252FD52F02C0252FD72F92FF04C0211137
S1130AC002C0252FD12F93FF04C0211102C0252F6E
S1130AD0DC2F94FF04C0211102C0252FDB2F95FFCA
S1130AE004C0211102C0252FDA2F96FF04C0211162
S1130AF002C0252FD42F992324F4211108C0D8E053
S1130B0006C091E0930F983011F0222349F2C1E41A
S1130B10C30F482F6D2F8C2F0E944900C093610092
S1130B20D0936000DF91CF911F9108958154E82FF5
S1130B30F0E0EC59FF4F208130E0615002C0359560
S1130B4027956A95E2F781E020FF80E008958F926F
S1130B509F92AF92BF92CF92DF92EF92FF920F9348
S1130B601F93CF93DF93182F062FC42FF22EEE245A
S1130B70E394E60E88E08E1590F42EC08D2F90E05D
S1130B800196099744F461E06D0F812F0E94810062
S1130B90DC2C8F11DB2CDF5FD93031F41DC0DE2D4E
S1130BA0D12CCC24C394B12C6D2F812F0E948100B1
S1130BB08C1302C0DD2011F381E0D8120DC0D930AE
S1130BC058F4ED1648F4DE2C4F2D6D2D812F0E9424
S1130BD04900D394DD16C0F3DD24DA94D00E91F4E9
S1130BE032C08D2F90E001971816190644F46FEF68
S1130BF06D0F812F0E948100CB2CF812CA2CD1508A
S1130C0031F40DC0DD2DC12CBB24B394A12C6D2F68
S1130C10812F0E948100C81302C0CC2011F381E00F
S1130C20C81211C0802F90E00197181619065CF4C1
S1130C30DD1548F4CD2C4F2D6C2D812F0E944900D9
S1130C40CA94DC15C0F3CC24CA94C10E80E48C157C
S1130C5098F08AC18D2F90E001978134910544F07A
S1130C60602F8FEF8D0F0E948100BA2CF812B92CDF
S1130C70D150D03431F40DC0DC2DB12CAA24A3946E
S1130C80912C602F8D2F0E948100C81302C0BB20BD
S1130C9009F381E0B8120DC0D13458F0DC1548F4E2
S1130CA0BC2C4F2D602F8B2D0E944900BA94DB156C
S1130CB0C0F388248394810E88E4881598F425C0B1
S1130CC08D2F90E001968934910544F4602F81E0E2
S1130CD08D0F0E9481001A2DF812192DDF5FD9346F
S1130CE031F40DC0D82D10E0AA24A394912C602FC8
S1130CF08D2F0E948100C81302C0112309F3113003
S1130D0021F4D93410F48D1638F080E48C15D0F524
S1130D1088E08E1530F536C0B82C4F2D602F8B2D02
S1130D200E944900B394BD16C0F3EFCF8D2F90E01D
S1130D3001978134910574F0802F90E00196099712
S1130D404CF461E0600F8FEF8D0F0E948100F81268
S1130D5001C01A2DD1500F5FD03489F0093031F41D
S1130D60F0C00E2DDC2D10E0AA24A394602F8D2F4B
S1130D700E948100C81303C01130C1F6FDC01130B8
S1130D8009F4FAC088E4881508F403C1D1102BC013
S1130D9083C0DC15B8F70C2DBE2C4F2D6B2D802F86
S1130DA00E944900B3940150D017B8F3EBCF8D2FB4
S1130DB090E00196893491057CF4802F90E00197AE
S1130DC0181619064CF46FEF600F81E08D0F0E9426
S1130DD08100F81201C01A2DDF5F0150D93489F067
S1130DE0011106C0B2C00D2DD82D10E0AA24A39481
S1130DF0602F8D2F0E948100C81303C01130B9F6F3
S1130E00BFC0113009F0C0C0BBC080E48C1508F02D
S1130E1043C0D1102FC040C08D1608F099C0082DD2
S1130E20BD2C4F2D6B2D802F0E944900BA940F5F6B
S1130E300D1708F08DC0B110F4CF8AC08D2F90E04B
S1130E400197813491057CF0802F90E0019718166A
S1130E5019064CF46FEF600F8FEF8D0F0E94810025
S1130E60F81201C01A2DD1500150D13488F001116B
S1130E7006C073C00D2DDC2D10E0AA24A394602FAE
S1130E808D2F0E948100C81303C01130B9F602C02F
S1130E90113011F4D13440F488E4881508F480C08A
S1130EA088E08E1568F57CC0DD20B1F3DC15A0F771
S1130EB04F2D6D2D8C2D0E944900DA94CA94DC15B7
S1130EC058F7D110F5CFE8CF8D2F90E001968934F3
S1130ED0910574F4802F90E0019609974CF461E039
S1130EE0600F81E08D0F0E948100F81201C01C2D5B
S1130EF0DF5F0F5FD93409F453C0093031F431C0D6
S1130F000E2DD82D10E0CC24C394602F8D2F0E9479
S1130F108100C81303C01130B9F640C0113009F084
S1130F203FC03CC08D16E0F54F2D6E2D882D0E94DC
S1130F304900E39483948D1698F589E0E812F4CF80
S1130F402FC0113009F01ECF24CF1130E9F464CF43
S1130F5080E48C1508F48ECF9FCF113009F09CCF1C
S1130F60A3CF1130E9F4DECF88248394810E88E482
S1130F70881508F0B7CE06CFD13408F403CF09CFD3
S1130F80D93408F042CF48CF80E48C1508F472CFEE
S1130F9083CF80E48C1508F43CCF02C0D93410F21E
S1130FA0DF91CF911F910F91FF90EF90DF90CF9041
S1130FB0BF90AF909F908F900895ECE6F0E0A4E688
S1130FC0B0E084E790E011921D92E817F907D9F791
S1130FD00895E4E7F0E084E890E01192E817F90757
S1130FE0E1F70E94DD0747E564E084E40E944900DC
S1130FF042E465E084E40E94490042E464E085E45C
S11310000E94490047E565E085E40E94490008958F
S11310100E94E90782E48093630087E5809362007D
S113102082E40E9484044091630063E084E40E94AB
S11310304900209163004091620063E084E40E94CF
S1131040A7050E94DD07809163000E94840465E087
S113105083E40E9496058130A1F44091620065E02A
S113106083E40E944900209162004091630065E09E
S113107083E40E94A7050E94DD07809163000E941B
S11310808404809163000E944005FFCFF894FFCF51
S107109001412020D6
S9030000FC
