S010000050726F6A656374312E737265630C
S11300000C9433000C9450000C9450000C94500049
S11300100C9450000C9450000C9480000C945000EC
S11300200C9450000C9450000C9450000C94330227
S11300300C9450000C9452000C9450000C945000FA
S11300400C9450000C9450000C9450000C945000EC
S11300500C945000FE00EC00EE00F000F200F400FE
S1130060F600F800FA0011241FBECFE5D4E0DEBF8D
S1130070CDBF10E0A0E6B0E0EEE0F5E002C00590F0
S11300800D92A236B107D9F720E0A2E6B0E001C094
S11300901D92A63CB207E1F70E946D020C94850202
S11300A00C9400001F920F920FB60F9211248F939D
S11300B09F93EF93FF935D9B1AC0E091650080913D
S11300C06400E81750F4F0E0EA55FF4F80818CB9E2
S11300D0809165008F5F80936500909165008091A9
S11300E06400981304C01092650010926400FF919C
S11300F0EF919F918F910F900FBE0F901F901895C5
S11301001F920F920FB60F9211248F939F93809199
S113011062008F5F8093620090916000891730F0D5
S11301201092620098B380E2892788BB9F918F91D7
S11301300F900FBE0F901F90189590BD89B980E263
S11301408BB988E48AB986E880BD08958AB180694C
S11301508AB9089590916400E92FF0E0EA55FF4FC1
S113016080839F5F903119F09093640002C01092D5
S113017064005D9B0CC0E0916500F0E0EA55FF4F20
S113018080818CB9809165008F5F809365000895AC
S113019090916300913140F4E92FF0E0EA54FF4F6D
S11301A080839F5F9093630008951DBC1CBC8EB533
S11301B08C608EBD82E19AE79BBD8ABD89B7806160
S11301C089BF089590E0FC01F097E930F105A0F4AF
S11301D0E65DFF4F0C947F0281E0089582E008956C
S11301E083E0089584E0089585E0089586E0089505
S11301F087E0089588E0089589E0089580E00895EF
S1130200E09163008E2F90E0803191054CF4FC0165
S1130210EA54FF4F86EC90E01192E817F907E1F7F2
S11302201092630008958DE40E94AA008DE40E9458
S1130230AA0080E20E94AA0082E40E94AA0085E348
S11302400E94AA008DE00E94AA0008958DE40E94F5
S1130250AA0080E50E94AA008DE00E94AA000895E9
S1130260C29884E50E94AA0085E40E94AA008DE059
S11302700E94AA000895CF93DF93EC01FC01019042
S11302800020E9F73197E81BF90BE230F10591F40E
S11302908881813409F052C08981843509F0D6C03F
S11302A08FE40E94AA008BE40E94AA008DE00E94C1
S11302B0AA00D6C0E330F105B1F48881823509F093
S11302C0C2C08981833509F0BEC08A81843509F0B2
S11302D0BAC08FE40E94AA008BE40E94AA008DE0B9
S11302E00E94AA00BDC0E430F10509F06CC0888109
S11302F0833509F0A8C08981803509F0A9C08A81B5
S1130300803209F0A5C08B81823421F0873509F051
S11303109FC00AC08FE40E94AA008BE40E94AA0036
S11303208DE00E94AA009CC08FE40E94AA008BE486
S11303300E94AA008DE00E94AA0092C088818E3497
S113034069F48981873481F58FE40E94AA008BE4E3
S11303500E94AA008DE00E94AA0082C0853421F583
S11303608981873409F04CC08FE40E94AA008BE491
S11303700E94AA008DE00E94AA0072C08A81803285
S113038009F061C08B810E94E2008150893008F03D
S11303905AC08EB51EBC8B810E94E200809360001F
S11303A08EB58C608EBD5CC088818F3449F589819F
S11303B08B3409F051C089B7846089BF0E9413014E
S11303C00E9426014DC03597F1F588818D34D9F509
S11303D089818635C1F58A818032A9F58B81815462
S11303E0883088F58C818153883068F58FE40E94C9
S11303F0AA008BE40E94AA008DE00E94AA0030C0EB
S11304008881803589F48981833551F48FE40E9491
S1130410AA008BE40E94AA008DE00E94AA0020C0DA
S113042089818C3481F41CC0873569F489818E34C8
S113043051F48FE40E94AA008BE40E94AA008DE08C
S11304400E94AA000DC00E9430010AC0888186CF94
S113045089818435C1F792CF8881803529F7E0CF2F
S1130460DF91CF9108951F920F920FB60F9211242E
S11304702F933F934F935F936F937F938F939F93A8
S1130480AF93BF93EF93FF938CB18D3019F00E941B
S1130490C80008C086EB90E00E94000186EB90E063
S11304A00E943B01FF91EF91BF91AF919F918F917A
S11304B07F916F915F914F913F912F910F900FBE5C
S11304C00F901F901895E6E6F0E026EA30E08DE202
S11304D08193E217F307E1F708950E94630283E32F
S11304E090E00E949D000E94A60087B38F6287BBA4
S11304F088B38F6288BB0E94D5007894FFCFEE0F3B
S1110500FF1F0590F491E02D0994F894FFCFAD
S105050E0200E5
S9030000FC
